{
  "_format": "hh-sol-artifact-1",
  "contractName": "ArenaMarketplace",
  "sourceName": "contracts/ArenaMarketplace.sol",
  "abi": [
    {
      "inputs": [
        {
          "internalType": "address",
          "name": "_fighter",
          "type": "address"
        },
        {
          "internalType": "address",
          "name": "_arena",
          "type": "address"
        },
        {
          "internalType": "address",
          "name": "_treasury",
          "type": "address"
        }
      ],
      "stateMutability": "nonpayable",
      "type": "constructor"
    },
    {
      "inputs": [
        {
          "internalType": "address",
          "name": "owner",
          "type": "address"
        }
      ],
      "name": "OwnableInvalidOwner",
      "type": "error"
    },
    {
      "inputs": [
        {
          "internalType": "address",
          "name": "account",
          "type": "address"
        }
      ],
      "name": "OwnableUnauthorizedAccount",
      "type": "error"
    },
    {
      "inputs": [],
      "name": "ReentrancyGuardReentrantCall",
      "type": "error"
    },
    {
      "anonymous": false,
      "inputs": [
        {
          "indexed": true,
          "internalType": "uint256",
          "name": "tokenId",
          "type": "uint256"
        }
      ],
      "name": "Delisted",
      "type": "event"
    },
    {
      "anonymous": false,
      "inputs": [
        {
          "indexed": true,
          "internalType": "uint256",
          "name": "tokenId",
          "type": "uint256"
        },
        {
          "indexed": true,
          "internalType": "address",
          "name": "seller",
          "type": "address"
        },
        {
          "indexed": false,
          "internalType": "uint256",
          "name": "price",
          "type": "uint256"
        }
      ],
      "name": "Listed",
      "type": "event"
    },
    {
      "anonymous": false,
      "inputs": [
        {
          "indexed": true,
          "internalType": "address",
          "name": "previousOwner",
          "type": "address"
        },
        {
          "indexed": true,
          "internalType": "address",
          "name": "newOwner",
          "type": "address"
        }
      ],
      "name": "OwnershipTransferred",
      "type": "event"
    },
    {
      "anonymous": false,
      "inputs": [
        {
          "indexed": true,
          "internalType": "uint256",
          "name": "tokenId",
          "type": "uint256"
        },
        {
          "indexed": true,
          "internalType": "address",
          "name": "buyer",
          "type": "address"
        },
        {
          "indexed": false,
          "internalType": "uint256",
          "name": "price",
          "type": "uint256"
        }
      ],
      "name": "Sold",
      "type": "event"
    },
    {
      "inputs": [],
      "name": "arenaCoin",
      "outputs": [
        {
          "internalType": "contract IERC20Transfer",
          "name": "",
          "type": "address"
        }
      ],
      "stateMutability": "view",
      "type": "function"
    },
    {
      "inputs": [
        {
          "internalType": "uint256",
          "name": "tokenId",
          "type": "uint256"
        }
      ],
      "name": "buy",
      "outputs": [],
      "stateMutability": "nonpayable",
      "type": "function"
    },
    {
      "inputs": [
        {
          "internalType": "uint256",
          "name": "tokenId",
          "type": "uint256"
        }
      ],
      "name": "delist",
      "outputs": [],
      "stateMutability": "nonpayable",
      "type": "function"
    },
    {
      "inputs": [],
      "name": "feeBps",
      "outputs": [
        {
          "internalType": "uint16",
          "name": "",
          "type": "uint16"
        }
      ],
      "stateMutability": "view",
      "type": "function"
    },
    {
      "inputs": [],
      "name": "fighterNFT",
      "outputs": [
        {
          "internalType": "contract IERC721Transfer",
          "name": "",
          "type": "address"
        }
      ],
      "stateMutability": "view",
      "type": "function"
    },
    {
      "inputs": [
        {
          "internalType": "uint256",
          "name": "tokenId",
          "type": "uint256"
        },
        {
          "internalType": "uint256",
          "name": "price",
          "type": "uint256"
        }
      ],
      "name": "list",
      "outputs": [],
      "stateMutability": "nonpayable",
      "type": "function"
    },
    {
      "inputs": [
        {
          "internalType": "uint256",
          "name": "",
          "type": "uint256"
        }
      ],
      "name": "listings",
      "outputs": [
        {
          "internalType": "address",
          "name": "seller",
          "type": "address"
        },
        {
          "internalType": "uint256",
          "name": "price",
          "type": "uint256"
        },
        {
          "internalType": "bool",
          "name": "active",
          "type": "bool"
        }
      ],
      "stateMutability": "view",
      "type": "function"
    },
    {
      "inputs": [],
      "name": "owner",
      "outputs": [
        {
          "internalType": "address",
          "name": "",
          "type": "address"
        }
      ],
      "stateMutability": "view",
      "type": "function"
    },
    {
      "inputs": [],
      "name": "renounceOwnership",
      "outputs": [],
      "stateMutability": "nonpayable",
      "type": "function"
    },
    {
      "inputs": [
        {
          "internalType": "uint16",
          "name": "bps",
          "type": "uint16"
        }
      ],
      "name": "setFeeBps",
      "outputs": [],
      "stateMutability": "nonpayable",
      "type": "function"
    },
    {
      "inputs": [
        {
          "internalType": "address",
          "name": "t",
          "type": "address"
        }
      ],
      "name": "setTreasury",
      "outputs": [],
      "stateMutability": "nonpayable",
      "type": "function"
    },
    {
      "inputs": [
        {
          "internalType": "address",
          "name": "newOwner",
          "type": "address"
        }
      ],
      "name": "transferOwnership",
      "outputs": [],
      "stateMutability": "nonpayable",
      "type": "function"
    },
    {
      "inputs": [],
      "name": "treasury",
      "outputs": [
        {
          "internalType": "address",
          "name": "",
          "type": "address"
        }
      ],
      "stateMutability": "view",
      "type": "function"
    }
  ],
  "bytecode": "0x60c03461014b57601f610d3a38819003918201601f19168301916001600160401b0383118484101761014f5780849260609460405283398101031261014b5761004781610163565b61005f604061005860208501610163565b9301610163565b903315610138575f8054336001600160a01b0319821681178355604051959290916001600160a01b0316907f8be0079c531659141344cd1fd0a4f28419497f9722a3daafe3b4186f6b6457e09080a360017f9b779b17422d0df92223018b32b4d1fa46e071723d6817e2486d003becc55f0081905580546001600160a01b0393841660805291831660a0526001600160b01b03199091169290911691909117607d60a11b179055610bc29081610178823960805181818160be0152818161036f0152610743015260a0518181816103170152610a2f0152f35b631e4fbdf760e01b5f525f60045260245ffd5b5f80fd5b634e487b7160e01b5f52604160045260245ffd5b51906001600160a01b038216820361014b5756fe60806040526004361015610011575f80fd5b5f5f3560e01c8063023b1fc914610a8257806324a9d85314610a5e57806348f7d5ab14610a1a57806350fd73671461071457806361d027b3146106ec578063715018a6146106955780638da5cb5b1461066e578063964bc33f146105af578063d96a094a1461021d578063de74e57b146101ce578063f0f442601461017e578063f2fde38b146100f05763fa818cf6146100a9575f80fd5b346100ed57806003193601126100ed576040517f00000000000000000000000000000000000000000000000000000000000000006001600160a01b03168152602090f35b80fd5b50346100ed5760203660031901126100ed576004356001600160a01b0381169081900361017a5761011f610b66565b80156101665781546001600160a01b03198116821783556001600160a01b03167f8be0079c531659141344cd1fd0a4f28419497f9722a3daafe3b4186f6b6457e08380a380f35b631e4fbdf760e01b82526004829052602482fd5b5080fd5b50346100ed5760203660031901126100ed576004356001600160a01b0381169081900361017a576101ad610b66565b801561017a576bffffffffffffffffffffffff60a01b600154161760015580f35b50346100ed5760203660031901126100ed576040606091600435815260026020522060018060a01b038154169060ff600260018301549201541690604051928352602083015215156040820152f35b503461044f57602036600319011261044f5760043560027f9b779b17422d0df92223018b32b4d1fa46e071723d6817e2486d003becc55f0054146105a05760027f9b779b17422d0df92223018b32b4d1fa46e071723d6817e2486d003becc55f0055805f52600260205260405f20600281019081549161029f60ff8416610b2d565b81546001600160a01b03169233841461056d5760ff19169055600181019182549061ffff60015460a01c1680830290838204148315171561055957612710900491828103908111610559576040516323b872dd60e01b81523360048201526001600160a01b03928316602482015260448101919091527f0000000000000000000000000000000000000000000000000000000000000000909116906020816064815f865af1908115610444575f9161053a575b50156105085781610453575b5050546001600160a01b03908116907f000000000000000000000000000000000000000000000000000000000000000016803b1561044f576040516323b872dd60e01b81526001600160a01b03929092166004830152336024830152604482018490525f908290606490829084905af180156104445761042f575b5054906040519182527f66f5cd880edf48cdde6c966e5da0784fcc4c5e85572b8b3b62c4357798d447d760203393a360017f9b779b17422d0df92223018b32b4d1fa46e071723d6817e2486d003becc55f005580f35b61043c9193505f90610ad4565b5f915f6103d9565b6040513d5f823e3d90fd5b5f80fd5b6001546040516323b872dd60e01b81523360048201526001600160a01b0390911660248201526044810192909252602090829060649082905f905af1908115610444575f916104d9575b50156104aa575f8061035e565b60405162461bcd60e51b81526020600482015260076024820152665061792066656560c81b6044820152606490fd5b6104fb915060203d602011610501575b6104f38183610ad4565b810190610b15565b5f61049d565b503d6104e9565b60405162461bcd60e51b815260206004820152600a6024820152692830bc9039b2b63632b960b11b6044820152606490fd5b610553915060203d602011610501576104f38183610ad4565b5f610352565b634e487b7160e01b5f52601160045260245ffd5b60405162461bcd60e51b815260206004820152600b60248201526a4f776e206c697374696e6760a81b6044820152606490fd5b633ee5aeb560e01b5f5260045ffd5b3461044f57602036600319011261044f57600435805f52600260205260405f2060028101908154906105e360ff8316610b2d565b546001600160a01b03163314801561065b575b156106275760ff191690557fc40fdc946efe80191c467f60727c4abc08254a056035d467a4516a86005ab7635f80a2005b60405162461bcd60e51b815260206004820152600c60248201526b155b985d5d1a1bdc9a5e995960a21b6044820152606490fd5b505f546001600160a01b031633146105f6565b3461044f575f36600319011261044f575f546040516001600160a01b039091168152602090f35b3461044f575f36600319011261044f576106ad610b66565b5f80546001600160a01b0319811682556001600160a01b03167f8be0079c531659141344cd1fd0a4f28419497f9722a3daafe3b4186f6b6457e08280a3005b3461044f575f36600319011261044f576001546040516001600160a01b039091168152602090f35b3461044f57604036600319011261044f576040516331a9108f60e11b81526004803590820181905260248035927f00000000000000000000000000000000000000000000000000000000000000006001600160a01b031691602090829081855afa908115610444575f916109fb575b50336001600160a01b03909116036109ca57821561099b57815f52600260205260ff600260405f2001541661096d5760405163020604bf60e21b815260048101839052602081602481855afa908115610444575f9161093e575b506001600160a01b031630149081156108e3575b50156108af576040516060810181811067ffffffffffffffff82111761089b5760405233815260026020820191848352604081019260018452845f528260205260405f209160018060a01b039051166bffffffffffffffffffffffff60a01b835416178255516001820155019051151560ff801983541691161790556040519182527f50955776c5778c3b7d968d86d8c51fb6b29a7a74c20866b533268e209fc0834360203393a3005b634e487b7160e01b5f52604160045260245ffd5b60405162461bcd60e51b815260206004820152600c60248201526b139bdd08185c1c1c9bdd995960a21b6044820152606490fd5b60405163e985e9c560e01b81523360048201523060248201529150602090829060449082905afa908115610444575f9161091f575b50836107f1565b610938915060203d602011610501576104f38183610ad4565b83610918565b610960915060203d602011610966575b6109588183610ad4565b810190610af6565b846107dd565b503d61094e565b60405162461bcd60e51b815260206004820152600660248201526541637469766560d01b6044820152606490fd5b60405162461bcd60e51b8152602060048201526007602482015266050726963653d360cc1b6044820152606490fd5b60405162461bcd60e51b81526020600482015260096024820152682737ba1037bbb732b960b91b6044820152606490fd5b610a14915060203d602011610966576109588183610ad4565b84610783565b3461044f575f36600319011261044f576040517f00000000000000000000000000000000000000000000000000000000000000006001600160a01b03168152602090f35b3461044f575f36600319011261044f57602061ffff60015460a01c16604051908152f35b3461044f57602036600319011261044f5760043561ffff811680820361044f576103e890610aae610b66565b1161044f576001805461ffff60a01b191660a09290921b61ffff60a01b16919091179055005b90601f8019910116810190811067ffffffffffffffff82111761089b57604052565b9081602091031261044f57516001600160a01b038116810361044f5790565b9081602091031261044f5751801515810361044f5790565b15610b3457565b60405162461bcd60e51b815260206004820152600a6024820152694e6f742061637469766560b01b6044820152606490fd5b5f546001600160a01b03163303610b7957565b63118cdaa760e01b5f523360045260245ffdfea2646970667358221220e3d4769ce5d963917d9c0e6fa99500e5a07b982df07748807a1b7e57221c87ea64736f6c634300081c0033",
  "linkReferences": {},
  "deployedLinkReferences": {}
}