{
  "_format": "hh-sol-artifact-1",
  "contractName": "ArenaGame",
  "sourceName": "contracts/ArenaGame.sol",
  "abi": [
    {
      "inputs": [
        {
          "internalType": "address",
          "name": "_fighterNFT",
          "type": "address"
        },
        {
          "internalType": "address",
          "name": "_arenaCoin",
          "type": "address"
        }
      ],
      "stateMutability": "nonpayable",
      "type": "constructor"
    },
    {
      "inputs": [
        {
          "internalType": "address",
          "name": "owner",
          "type": "address"
        }
      ],
      "name": "OwnableInvalidOwner",
      "type": "error"
    },
    {
      "inputs": [
        {
          "internalType": "address",
          "name": "account",
          "type": "address"
        }
      ],
      "name": "OwnableUnauthorizedAccount",
      "type": "error"
    },
    {
      "inputs": [],
      "name": "ReentrancyGuardReentrantCall",
      "type": "error"
    },
    {
      "anonymous": false,
      "inputs": [
        {
          "indexed": true,
          "internalType": "uint256",
          "name": "battleId",
          "type": "uint256"
        },
        {
          "indexed": true,
          "internalType": "uint256",
          "name": "attackerTokenId",
          "type": "uint256"
        },
        {
          "indexed": true,
          "internalType": "uint256",
          "name": "defenderTokenId",
          "type": "uint256"
        },
        {
          "indexed": false,
          "internalType": "enum ArenaGame.Outcome",
          "name": "outcome",
          "type": "uint8"
        },
        {
          "indexed": false,
          "internalType": "uint256",
          "name": "reward",
          "type": "uint256"
        }
      ],
      "name": "BattleResolved",
      "type": "event"
    },
    {
      "anonymous": false,
      "inputs": [
        {
          "indexed": true,
          "internalType": "address",
          "name": "previousOwner",
          "type": "address"
        },
        {
          "indexed": true,
          "internalType": "address",
          "name": "newOwner",
          "type": "address"
        }
      ],
      "name": "OwnershipTransferred",
      "type": "event"
    },
    {
      "inputs": [],
      "name": "arenaCoin",
      "outputs": [
        {
          "internalType": "contract IArenaCoin",
          "name": "",
          "type": "address"
        }
      ],
      "stateMutability": "view",
      "type": "function"
    },
    {
      "inputs": [],
      "name": "battleCooldown",
      "outputs": [
        {
          "internalType": "uint256",
          "name": "",
          "type": "uint256"
        }
      ],
      "stateMutability": "view",
      "type": "function"
    },
    {
      "inputs": [],
      "name": "battleCount",
      "outputs": [
        {
          "internalType": "uint256",
          "name": "",
          "type": "uint256"
        }
      ],
      "stateMutability": "view",
      "type": "function"
    },
    {
      "inputs": [
        {
          "internalType": "uint256",
          "name": "attackerTokenId",
          "type": "uint256"
        }
      ],
      "name": "battlePvE",
      "outputs": [
        {
          "internalType": "uint256",
          "name": "battleId",
          "type": "uint256"
        }
      ],
      "stateMutability": "nonpayable",
      "type": "function"
    },
    {
      "inputs": [
        {
          "internalType": "uint256",
          "name": "attackerTokenId",
          "type": "uint256"
        },
        {
          "internalType": "uint256",
          "name": "defenderTokenId",
          "type": "uint256"
        }
      ],
      "name": "battlePvP",
      "outputs": [
        {
          "internalType": "uint256",
          "name": "battleId",
          "type": "uint256"
        }
      ],
      "stateMutability": "nonpayable",
      "type": "function"
    },
    {
      "inputs": [
        {
          "internalType": "uint256",
          "name": "",
          "type": "uint256"
        }
      ],
      "name": "battles",
      "outputs": [
        {
          "internalType": "uint256",
          "name": "attackerTokenId",
          "type": "uint256"
        },
        {
          "internalType": "uint256",
          "name": "defenderTokenId",
          "type": "uint256"
        },
        {
          "internalType": "address",
          "name": "attacker",
          "type": "address"
        },
        {
          "internalType": "address",
          "name": "defender",
          "type": "address"
        },
        {
          "internalType": "enum ArenaGame.BattleMode",
          "name": "mode",
          "type": "uint8"
        },
        {
          "internalType": "enum ArenaGame.Outcome",
          "name": "outcome",
          "type": "uint8"
        },
        {
          "internalType": "uint256",
          "name": "reward",
          "type": "uint256"
        },
        {
          "internalType": "uint256",
          "name": "timestamp",
          "type": "uint256"
        }
      ],
      "stateMutability": "view",
      "type": "function"
    },
    {
      "inputs": [],
      "name": "fighterNFT",
      "outputs": [
        {
          "internalType": "contract IArenaFighter",
          "name": "",
          "type": "address"
        }
      ],
      "stateMutability": "view",
      "type": "function"
    },
    {
      "inputs": [
        {
          "internalType": "uint256",
          "name": "",
          "type": "uint256"
        }
      ],
      "name": "lastBattleTime",
      "outputs": [
        {
          "internalType": "uint256",
          "name": "",
          "type": "uint256"
        }
      ],
      "stateMutability": "view",
      "type": "function"
    },
    {
      "inputs": [],
      "name": "owner",
      "outputs": [
        {
          "internalType": "address",
          "name": "",
          "type": "address"
        }
      ],
      "stateMutability": "view",
      "type": "function"
    },
    {
      "inputs": [],
      "name": "pveWinReward",
      "outputs": [
        {
          "internalType": "uint256",
          "name": "",
          "type": "uint256"
        }
      ],
      "stateMutability": "view",
      "type": "function"
    },
    {
      "inputs": [],
      "name": "pvpWinReward",
      "outputs": [
        {
          "internalType": "uint256",
          "name": "",
          "type": "uint256"
        }
      ],
      "stateMutability": "view",
      "type": "function"
    },
    {
      "inputs": [],
      "name": "renounceOwnership",
      "outputs": [],
      "stateMutability": "nonpayable",
      "type": "function"
    },
    {
      "inputs": [
        {
          "internalType": "uint256",
          "name": "cooldown",
          "type": "uint256"
        }
      ],
      "name": "setBattleCooldown",
      "outputs": [],
      "stateMutability": "nonpayable",
      "type": "function"
    },
    {
      "inputs": [
        {
          "internalType": "uint256",
          "name": "reward",
          "type": "uint256"
        }
      ],
      "name": "setPveWinReward",
      "outputs": [],
      "stateMutability": "nonpayable",
      "type": "function"
    },
    {
      "inputs": [
        {
          "internalType": "uint256",
          "name": "reward",
          "type": "uint256"
        }
      ],
      "name": "setPvpWinReward",
      "outputs": [],
      "stateMutability": "nonpayable",
      "type": "function"
    },
    {
      "inputs": [
        {
          "internalType": "address",
          "name": "newOwner",
          "type": "address"
        }
      ],
      "name": "transferOwnership",
      "outputs": [],
      "stateMutability": "nonpayable",
      "type": "function"
    }
  ],
  "bytecode": "0x60803461013157601f61116c38819003918201601f19168301916001600160401b0383118484101761013557808492604094855283398101031261013157610052602061004b83610149565b9201610149565b331561011e575f8054336001600160a01b0319821681178355604051949290916001600160a01b0316907f8be0079c531659141344cd1fd0a4f28419497f9722a3daafe3b4186f6b6457e09080a360017f9b779b17422d0df92223018b32b4d1fa46e071723d6817e2486d003becc55f00819055678ac7230489e8000060055568015af1d78b58c40000600655610e1060075580546001600160a01b039283166001600160a01b0319918216179091556002805493909216921691909117905561100e908161015e8239f35b631e4fbdf760e01b5f525f60045260245ffd5b5f80fd5b634e487b7160e01b5f52604160045260245ffd5b51906001600160a01b03821682036101315756fe60806040526004361015610011575f80fd5b5f5f3560e01c80633b52af07146109e557806348f7d5ab146109bc5780635693e9761461099957806356ba304114610976578063606d2e96146108d857806364a291aa146108b557806370ea9f681461088b578063715018a6146108315780638613379a146108135780638da5cb5b146107ec57806390d354a9146101dd578063ba3cd937146101bf578063d1006a6f146101a1578063e00b636314610183578063f2fde38b146100f55763fa818cf6146100ca575f80fd5b346100f257806003193601126100f2576001546040516001600160a01b039091168152602090f35b80fd5b50346100f25760203660031901126100f2576004356001600160a01b0381169081900361017f57610124610fb2565b801561016b5781546001600160a01b03198116821783556001600160a01b03167f8be0079c531659141344cd1fd0a4f28419497f9722a3daafe3b4186f6b6457e08380a380f35b631e4fbdf760e01b82526004829052602482fd5b5080fd5b50346100f257806003193601126100f2576020600354604051908152f35b50346100f257806003193601126100f2576020600754604051908152f35b50346100f257806003193601126100f2576020600654604051908152f35b50346100f25760403660031901126100f2576024356004356101fd610e0a565b6001546040516331a9108f60e11b8152600481018390526001600160a01b0390911690602081602481855afa801561078e5761024b9186916107cd575b506001600160a01b03163314610d34565b8282146107995761025b82610e68565b6040516331a9108f60e11b81526004810184905290602082602481845afa91821561078e57859261075d575b5060405163ad217ae560e01b81526004810184905260e081602481855afa801561075257869087928891610729575b5060405163ad217ae560e01b8152600481018890529160e083602481885afa91821561071e5789918a948b946106bd575b509160ff806103106103089482610308819882806103199d9e169116610def565b911690610def565b97169116610def565b906040516020810190610371816103638a8a3344428993916094959391855260208501526bffffffffffffffffffffffff199060601b166040840152605483015260748201520190565b03601f198101835282610cf3565b5190208282146106a9575b5011156105cf575060065460015485929083906001600160a01b0316803b1561017f57818091602460405180948193639e6611a560e01b83528b60048401525af180156105c4576105af575b506001546001600160a01b0316803b1561017f5781906024604051809481936330113a1f60e11b83528b60048401525af180156105a45761058b575b5060406005959493837f76d6ae576845fe70321f4ac9ef3deb14100909d606cf45ead8540774b4d0f92e9361043c60209a9633610ec4565b86865260088a524284872055610453600354610dfc565b988980978160035586519361046785610cc2565b8a85528d85018c8152888601338152606087019260018060a01b0316835260808701906001825260a088019261049c8b610ca4565b8a845260c089018a81524260e08b019081529787526004602052958c902098518955516001890155516002880180546001600160a01b03199081166001600160a01b039384161790915593516003890180549095169116178355519061050182610ca4565b61050a82610ca4565b8254905161051781610ca4565b61052081610ca4565b60ff60a81b9060a81b169160ff60a01b9060a01b169061ffff60a01b1916171790555160048401555191015582519161055881610ca4565b825288820152a460017f9b779b17422d0df92223018b32b4d1fa46e071723d6817e2486d003becc55f0055604051908152f35b610596878092610cf3565b6105a0575f610404565b8580fd5b6040513d89823e3d90fd5b816105b991610cf3565b6105a057855f6103c8565b6040513d84823e3d90fd5b6001918560065492803b1561017f578180916024604051809481936330113a1f60e11b83528b60048401525af180156105c457610694575b5083546001600160a01b0316803b1561017f578190602460405180948193639e6611a560e01b83528b60048401525af180156105a45761067f575b5060406005959493838361067a60209a967f76d6ae576845fe70321f4ac9ef3deb14100909d606cf45ead8540774b4d0f92e96610ec4565b61043c565b61068a878092610cf3565b6105a0575f610642565b8161069e91610cf3565b6105a057855f610607565b90600a6106b7920690610def565b5f61037c565b610319955060ff80979550809450610310610308948261030881966106fa839760e03d60e011610717575b6106f28183610cf3565b810190610d92565b505050509e9199909e9c9e9d5050509698505050945050506102e7565b503d6106e8565b6040513d8b823e3d90fd5b915050610745915060e03d60e011610717576106f28183610cf3565b505050509190915f6102b6565b6040513d88823e3d90fd5b61078091925060203d602011610787575b6107788183610cf3565b810190610d15565b905f610287565b503d61076e565b6040513d87823e3d90fd5b60405162461bcd60e51b815260206004820152600c60248201526b29b0b6b2903334b3b43a32b960a11b6044820152606490fd5b6107e6915060203d602011610787576107788183610cf3565b5f61023a565b50346100f257806003193601126100f257546040516001600160a01b039091168152602090f35b50346100f257806003193601126100f2576020600554604051908152f35b50346100f257806003193601126100f25761084a610fb2565b80546001600160a01b03198116825581906001600160a01b03167f8be0079c531659141344cd1fd0a4f28419497f9722a3daafe3b4186f6b6457e08280a380f35b50346100f25760203660031901126100f25760406020916004358152600883522054604051908152f35b50346100f25760203660031901126100f2576108cf610fb2565b60043560075580f35b50346100f25760203660031901126100f257604061010091600435815260046020522080549060018101549060018060a01b03600282015416600382015460ff8160a01c169060ff8160a81c169260056004860154950154956040519788526020880152604087015260018060a01b0316606086015261095781610ca4565b608085015261096581610ca4565b60a084015260c083015260e0820152f35b50346100f25760203660031901126100f257610990610fb2565b60043560065580f35b50346100f25760203660031901126100f2576109b3610fb2565b60043560055580f35b50346100f257806003193601126100f2576002546040516001600160a01b039091168152602090f35b5034610c55576020366003190112610c555760043590610a03610e0a565b6001546040516331a9108f60e11b8152600481018490526001600160a01b0390911690602081602481855afa8015610c4a57610a50915f916107cd57506001600160a01b03163314610d34565b610a5983610e68565b60405163ad217ae560e01b81526004810184905260e081602481855afa908115610c4a57610a9e915f5f5f92610c6d575b60ff80809495506103089392169116610def565b6064600354604051610aeb8161036360208201948a3344428993916094959391855260208501526bffffffffffffffffffffffff199060601b166040840152605483015260748201520190565b519020066064019081606411610c595710610bf55750600554600154909282916001600160a01b0316803b15610bf157828091602460405180948193639e6611a560e01b83528760048401525af18015610be657610bd1575b5083610b5260209533610ec4565b818352600885524260408420557f76d6ae576845fe70321f4ac9ef3deb14100909d606cf45ead8540774b4d0f92e6040610b8d600354610dfc565b958693846003558251610b9f81610cc2565b868152600586898c8401818152878501903382526060860191838352608087019084825260a088019261049c8b610ca4565b610bdc838092610cf3565b61017f575f610b44565b6040513d85823e3d90fd5b8280fd5b91906001915f843b15610c55575f80956024604051809881936330113a1f60e11b83528760048401525af1948515610c4a57602095610c35575b50610b52565b610c429193505f90610cf3565b5f915f610c2f565b6040513d5f823e3d90fd5b5f80fd5b634e487b7160e01b5f52601160045260245ffd5b50505060ff61030881610c8f819460e03d60e011610717576106f28183610cf3565b50505050959192909594505050905082610a8a565b60021115610cae57565b634e487b7160e01b5f52602160045260245ffd5b610100810190811067ffffffffffffffff821117610cdf57604052565b634e487b7160e01b5f52604160045260245ffd5b90601f8019910116810190811067ffffffffffffffff821117610cdf57604052565b90816020910312610c5557516001600160a01b0381168103610c555790565b15610d3b57565b60405162461bcd60e51b815260206004820152601060248201526f2737ba103cb7bab9103334b3b43a32b960811b6044820152606490fd5b519060ff82168203610c5557565b519063ffffffff82168203610c5557565b908160e0910312610c5557610da681610d73565b91610db360208301610d73565b91610dc060408201610d73565b91610dcd60608301610d73565b91610dda60808201610d81565b9160c0610de960a08401610d81565b92015190565b91908201809211610c5957565b5f198114610c595760010190565b60027f9b779b17422d0df92223018b32b4d1fa46e071723d6817e2486d003becc55f005414610e595760027f9b779b17422d0df92223018b32b4d1fa46e071723d6817e2486d003becc55f0055565b633ee5aeb560e01b5f5260045ffd5b5f526008602052610e8060405f205460075490610def565b4210610e8857565b60405162461bcd60e51b81526020600482015260146024820152732334b3b43a32b91031b7b7b634b733903237bbb760611b6044820152606490fd5b6002546040516370a0823160e01b81523060048201526001600160a01b039091169290602081602481875afa8015610c4a5782915f91610f7d575b501015610f0b57505050565b60405163a9059cbb60e01b81526001600160a01b039092166004830152602482015290602090829060449082905f905af18015610c4a57610f495750565b6020813d602011610f75575b81610f6260209383610cf3565b81010312610c55575180151503610c5557565b3d9150610f55565b9150506020813d602011610faa575b81610f9960209383610cf3565b81010312610c55578190515f610eff565b3d9150610f8c565b5f546001600160a01b03163303610fc557565b63118cdaa760e01b5f523360045260245ffdfea2646970667358221220b7c1383a9b76fa1b02e0f24ed3049118564076e254d87489c22586e2b03b89f064736f6c634300081c0033",
  "linkReferences": {},
  "deployedLinkReferences": {}
}