{"contracts/ArenaMarketplace.sol":{"ArenaMarketplace":{"abi":[{"inputs":[{"internalType":"address","name":"_fighterNFT","type":"address"},{"internalType":"address","name":"_arenaCoin","type":"address"},{"internalType":"address","name":"_treasury","type":"address"}],"stateMutability":"nonpayable","type":"constructor"},{"inputs":[{"internalType":"address","name":"owner","type":"address"}],"name":"OwnableInvalidOwner","type":"error"},{"inputs":[{"internalType":"address","name":"account","type":"address"}],"name":"OwnableUnauthorizedAccount","type":"error"},{"inputs":[],"name":"ReentrancyGuardReentrantCall","type":"error"},{"anonymous":false,"inputs":[{"indexed":true,"internalType":"uint256","name":"listingId","type":"uint256"},{"indexed":true,"internalType":"uint256","name":"tokenId","type":"uint256"}],"name":"Delisted","type":"event"},{"anonymous":false,"inputs":[{"indexed":false,"internalType":"uint256","name":"newFeeBps","type":"uint256"}],"name":"FeeUpdated","type":"event"},{"anonymous":false,"inputs":[{"indexed":true,"internalType":"uint256","name":"listingId","type":"uint256"},{"indexed":true,"internalType":"address","name":"seller","type":"address"},{"indexed":true,"internalType":"uint256","name":"tokenId","type":"uint256"},{"indexed":false,"internalType":"uint256","name":"price","type":"uint256"}],"name":"Listed","type":"event"},{"anonymous":false,"inputs":[{"indexed":true,"internalType":"address","name":"previousOwner","type":"address"},{"indexed":true,"internalType":"address","name":"newOwner","type":"address"}],"name":"OwnershipTransferred","type":"event"},{"anonymous":false,"inputs":[{"indexed":true,"internalType":"uint256","name":"listingId","type":"uint256"},{"indexed":true,"internalType":"address","name":"buyer","type":"address"},{"indexed":true,"internalType":"uint256","name":"tokenId","type":"uint256"},{"indexed":false,"internalType":"uint256","name":"price","type":"uint256"}],"name":"Sold","type":"event"},{"anonymous":false,"inputs":[{"indexed":false,"internalType":"address","name":"newTreasury","type":"address"}],"name":"TreasuryUpdated","type":"event"},{"inputs":[{"internalType":"uint256","name":"","type":"uint256"}],"name":"activeListingByToken","outputs":[{"internalType":"uint256","name":"","type":"uint256"}],"stateMutability":"view","type":"function"},{"inputs":[],"name":"arenaCoin","outputs":[{"internalType":"contract IArenaCoin","name":"","type":"address"}],"stateMutability":"view","type":"function"},{"inputs":[{"internalType":"uint256","name":"listingId","type":"uint256"}],"name":"buy","outputs":[],"stateMutability":"nonpayable","type":"function"},{"inputs":[{"internalType":"uint256","name":"listingId","type":"uint256"}],"name":"delist","outputs":[],"stateMutability":"nonpayable","type":"function"},{"inputs":[],"name":"feeBps","outputs":[{"internalType":"uint256","name":"","type":"uint256"}],"stateMutability":"view","type":"function"},{"inputs":[],"name":"fighterNFT","outputs":[{"internalType":"contract IERC721","name":"","type":"address"}],"stateMutability":"view","type":"function"},{"inputs":[{"internalType":"uint256","name":"tokenId","type":"uint256"},{"internalType":"uint256","name":"price","type":"uint256"}],"name":"list","outputs":[{"internalType":"uint256","name":"listingId","type":"uint256"}],"stateMutability":"nonpayable","type":"function"},{"inputs":[],"name":"listingCount","outputs":[{"internalType":"uint256","name":"","type":"uint256"}],"stateMutability":"view","type":"function"},{"inputs":[{"internalType":"uint256","name":"","type":"uint256"}],"name":"listings","outputs":[{"internalType":"address","name":"seller","type":"address"},{"internalType":"uint256","name":"tokenId","type":"uint256"},{"internalType":"uint256","name":"price","type":"uint256"},{"internalType":"bool","name":"active","type":"bool"}],"stateMutability":"view","type":"function"},{"inputs":[],"name":"owner","outputs":[{"internalType":"address","name":"","type":"address"}],"stateMutability":"view","type":"function"},{"inputs":[],"name":"renounceOwnership","outputs":[],"stateMutability":"nonpayable","type":"function"},{"inputs":[{"internalType":"uint256","name":"_feeBps","type":"uint256"}],"name":"setFeeBps","outputs":[],"stateMutability":"nonpayable","type":"function"},{"inputs":[{"internalType":"address","name":"_treasury","type":"address"}],"name":"setTreasury","outputs":[],"stateMutability":"nonpayable","type":"function"},{"inputs":[{"internalType":"address","name":"newOwner","type":"address"}],"name":"transferOwnership","outputs":[],"stateMutability":"nonpayable","type":"function"},{"inputs":[],"name":"treasury","outputs":[{"internalType":"address","name":"","type":"address"}],"stateMutability":"view","type":"function"}],"evm":{"bytecode":{"linkReferences":{},"object":"60803461013557601f610e2638819003918201601f19168301916001600160401b0383118484101761013957808492606094604052833981010312610135576100478161014d565b9061006060406100596020840161014d565b920161014d565b903315610122575f8054336001600160a01b0319821681178355604051959290916001600160a01b0316907f8be0079c531659141344cd1fd0a4f28419497f9722a3daafe3b4186f6b6457e09080a360017f9b779b17422d0df92223018b32b4d1fa46e071723d6817e2486d003becc55f0081905560fa60045580546001600160a01b03199081166001600160a01b039384161790915560028054821693831693909317909255600380549092169216919091179055610cc490816101628239f35b631e4fbdf760e01b5f525f60045260245ffd5b5f80fd5b634e487b7160e01b5f52604160045260245ffd5b51906001600160a01b03821682036101355756fe6080806040526004361015610012575f80fd5b5f905f3560e01c90816324a9d85314610bbc5750806348f7d5ab14610b9457806350fd73671461085557806361d027b31461082d578063715018a6146107d657806372c27b621461075157806382e0a476146107275780638da5cb5b14610700578063964bc33f1461062b578063a9b07c261461060e578063d96a094a14610286578063de74e57b1461022c578063f0f442601461017c578063f2fde38b146100ee5763fa818cf6146100c3575f80fd5b346100eb57806003193601126100eb576001546040516001600160a01b039091168152602090f35b80fd5b50346100eb5760203660031901126100eb576004356001600160a01b038116908190036101785761011d610c68565b80156101645781546001600160a01b03198116821783556001600160a01b03167f8be0079c531659141344cd1fd0a4f28419497f9722a3daafe3b4186f6b6457e08380a380f35b631e4fbdf760e01b82526004829052602482fd5b5080fd5b50346100eb5760203660031901126100eb576004356001600160a01b03811690819003610178576101ab610c68565b80156101f8576020817f7dae230f18360d76a040c81f050aa14eb9d6dc7901b20fc5d855e2a20fe814d1926bffffffffffffffffffffffff60a01b6003541617600355604051908152a180f35b60405162461bcd60e51b815260206004820152600c60248201526b5a65726f206164647265737360a01b6044820152606490fd5b50346100eb5760203660031901126100eb576040608091600435815260066020522060018060a01b038154169060018101549060ff6003600283015492015416916040519384526020840152604083015215156060820152f35b503461048d57602036600319011261048d5760043560027f9b779b17422d0df92223018b32b4d1fa46e071723d6817e2486d003becc55f0054146105ff5760027f9b779b17422d0df92223018b32b4d1fa46e071723d6817e2486d003becc55f0055805f52600660205260405f209060038201805461030760ff8216610c2f565b83546001600160a01b031633146105c15760ff191690556001820180545f5260076020525f6040812055600283019283546004548082029082820414821517156105ad576127109004908181039081116105ad5760025483546040516323b872dd60e01b81523360048201526001600160a01b0391821660248201526044810193909352602091839160649183915f91165af1908115610482575f9161058e575b50156105525780610491575b50600154905482546001600160a01b039283169290911690823b1561048d576040516323b872dd60e01b81526001600160a01b039290921660048301523360248301526044820152905f908290606490829084905af180156104825761046d575b50549154906040519182527fcd1c39d27a443bebce7f2cf1cb49519e7586ec24d1a7a7c9fcc00f57cd8efbfb60203393a460017f9b779b17422d0df92223018b32b4d1fa46e071723d6817e2486d003becc55f005580f35b61047a9194505f90610bd6565b5f925f610415565b6040513d5f823e3d90fd5b5f80fd5b6002546003546040516323b872dd60e01b81523360048201526001600160a01b0391821660248201526044810193909352602091839160649183915f91165af1908115610482575f91610523575b50156104eb575f6103b4565b60405162461bcd60e51b815260206004820152601060248201526f1054915390481999594819985a5b195960821b6044820152606490fd5b610545915060203d60201161054b575b61053d8183610bd6565b810190610c17565b5f6104df565b503d610533565b60405162461bcd60e51b81526020600482015260146024820152731054915390481c185e5b595b9d0819985a5b195960621b6044820152606490fd5b6105a7915060203d60201161054b5761053d8183610bd6565b5f6103a8565b634e487b7160e01b5f52601160045260245ffd5b60405162461bcd60e51b815260206004820152601660248201527543616e6e6f7420627579206f776e206c697374696e6760501b6044820152606490fd5b633ee5aeb560e01b5f5260045ffd5b3461048d575f36600319011261048d576020600554604051908152f35b3461048d57602036600319011261048d57600435805f52600660205260405f20600381019081549161065f60ff8416610c2f565b81546001600160a01b0316331480156106ed575b156106b95760019260ff191690550180545f5260076020525f604081205554907f59acfc838c3817a4ad51829dec2a433647fb0229670ccb3e8093af5aaa64f7a15f80a3005b60405162461bcd60e51b815260206004820152600c60248201526b155b985d5d1a1bdc9a5e995960a21b6044820152606490fd5b505f546001600160a01b03163314610673565b3461048d575f36600319011261048d575f546040516001600160a01b039091168152602090f35b3461048d57602036600319011261048d576004355f526007602052602060405f2054604051908152f35b3461048d57602036600319011261048d5760043561076d610c68565b6103e881116107a7576020817f8c4d35e54a3f2ef1134138fd8ea3daee6a3c89e10d2665996babdf70261e2c7692600455604051908152a1005b60405162461bcd60e51b81526020600482015260076024820152664d61782031302560c81b6044820152606490fd5b3461048d575f36600319011261048d576107ee610c68565b5f80546001600160a01b0319811682556001600160a01b03167f8be0079c531659141344cd1fd0a4f28419497f9722a3daafe3b4186f6b6457e08280a3005b3461048d575f36600319011261048d576003546040516001600160a01b039091168152602090f35b3461048d57604036600319011261048d576004356024359060018060a01b03600154166040516331a9108f60e11b8152826004820152602081602481855afa908115610482575f91610b75575b50336001600160a01b0390911603610b3d578215610b045760405163020604bf60e21b815260048101839052602081602481855afa908115610482575f91610ad5575b506001600160a01b03163014908115610a7a575b5015610a3557805f52600760205260405f20546109ff576005545f1981146105ad57600101908160055560405192608084019380851067ffffffffffffffff8611176109eb5760209460405233815260038582019184835260408101848152606082019360018552875f526006895260405f209260018060a01b039051166bffffffffffffffffffffffff60a01b845416178355516001830155516002820155019051151560ff80198354169116179055815f52600784528260405f2055604051908152827f98868c46d49b200d82c273c9f28d73265826ca6567690262736450563dfff64c853393a4604051908152f35b634e487b7160e01b5f52604160045260245ffd5b60405162461bcd60e51b815260206004820152600e60248201526d105b1c9958591e481b1a5cdd195960921b6044820152606490fd5b60405162461bcd60e51b815260206004820152601860248201527f4d61726b6574706c616365206e6f7420617070726f76656400000000000000006044820152606490fd5b60405163e985e9c560e01b81523360048201523060248201529150602090829060449082905afa908115610482575f91610ab6575b50836108f9565b610acf915060203d60201161054b5761053d8183610bd6565b83610aaf565b610af7915060203d602011610afd575b610aef8183610bd6565b810190610bf8565b846108e5565b503d610ae5565b60405162461bcd60e51b815260206004820152601160248201527005072696365206d757374206265203e203607c1b6044820152606490fd5b60405162461bcd60e51b815260206004820152601060248201526f2737ba103cb7bab9103334b3b43a32b960811b6044820152606490fd5b610b8e915060203d602011610afd57610aef8183610bd6565b846108a2565b3461048d575f36600319011261048d576002546040516001600160a01b039091168152602090f35b3461048d575f36600319011261048d576020906004548152f35b90601f8019910116810190811067ffffffffffffffff8211176109eb57604052565b9081602091031261048d57516001600160a01b038116810361048d5790565b9081602091031261048d5751801515810361048d5790565b15610c3657565b60405162461bcd60e51b815260206004820152600a6024820152694e6f742061637469766560b01b6044820152606490fd5b5f546001600160a01b03163303610c7b57565b63118cdaa760e01b5f523360045260245ffdfea264697066735822122017d5e7def433418a3f744016563a46b5f3a581f4889e6f313d61abcb552193d864736f6c634300081c0033","opcodes":"PUSH1 0x80 CALLVALUE PUSH2 0x135 JUMPI PUSH1 0x1F PUSH2 0xE26 CODESIZE DUP2 SWAP1 SUB SWAP2 DUP3 ADD PUSH1 0x1F NOT AND DUP4 ADD SWAP2 PUSH1 0x1 PUSH1 0x1 PUSH1 0x40 SHL SUB DUP4 GT DUP5 DUP5 LT OR PUSH2 0x139 JUMPI DUP1 DUP5 SWAP3 PUSH1 0x60 SWAP5 PUSH1 0x40 MSTORE DUP4 CODECOPY DUP2 ADD SUB SLT PUSH2 0x135 JUMPI PUSH2 0x47 DUP2 PUSH2 0x14D JUMP JUMPDEST SWAP1 PUSH2 0x60 PUSH1 0x40 PUSH2 0x59 PUSH1 0x20 DUP5 ADD PUSH2 0x14D JUMP JUMPDEST SWAP3 ADD PUSH2 0x14D JUMP JUMPDEST SWAP1 CALLER ISZERO PUSH2 0x122 JUMPI PUSH0 DUP1 SLOAD CALLER PUSH1 0x1 PUSH1 0x1 PUSH1 0xA0 SHL SUB NOT DUP3 AND DUP2 OR DUP4 SSTORE PUSH1 0x40 MLOAD SWAP6 SWAP3 SWAP1 SWAP2 PUSH1 0x1 PUSH1 0x1 PUSH1 0xA0 SHL SUB AND SWAP1 PUSH32 0x8BE0079C531659141344CD1FD0A4F28419497F9722A3DAAFE3B4186F6B6457E0 SWAP1 DUP1 LOG3 PUSH1 0x1 PUSH32 0x9B779B17422D0DF92223018B32B4D1FA46E071723D6817E2486D003BECC55F00 DUP2 SWAP1 SSTORE PUSH1 0xFA PUSH1 0x4 SSTORE DUP1 SLOAD PUSH1 0x1 PUSH1 0x1 PUSH1 0xA0 SHL SUB NOT SWAP1 DUP2 AND PUSH1 0x1 PUSH1 0x1 PUSH1 0xA0 SHL SUB SWAP4 DUP5 AND OR SWAP1 SWAP2 SSTORE PUSH1 0x2 DUP1 SLOAD DUP3 AND SWAP4 DUP4 AND SWAP4 SWAP1 SWAP4 OR SWAP1 SWAP3 SSTORE PUSH1 0x3 DUP1 SLOAD SWAP1 SWAP3 AND SWAP3 AND SWAP2 SWAP1 SWAP2 OR SWAP1 SSTORE PUSH2 0xCC4 SWAP1 DUP2 PUSH2 0x162 DUP3 CODECOPY RETURN JUMPDEST PUSH4 0x1E4FBDF7 PUSH1 0xE0 SHL PUSH0 MSTORE PUSH0 PUSH1 0x4 MSTORE PUSH1 0x24 PUSH0 REVERT JUMPDEST PUSH0 DUP1 REVERT JUMPDEST PUSH4 0x4E487B71 PUSH1 0xE0 SHL PUSH0 MSTORE PUSH1 0x41 PUSH1 0x4 MSTORE PUSH1 0x24 PUSH0 REVERT JUMPDEST MLOAD SWAP1 PUSH1 0x1 PUSH1 0x1 PUSH1 0xA0 SHL SUB DUP3 AND DUP3 SUB PUSH2 0x135 JUMPI JUMP INVALID PUSH1 0x80 DUP1 PUSH1 0x40 MSTORE PUSH1 0x4 CALLDATASIZE LT ISZERO PUSH2 0x12 JUMPI PUSH0 DUP1 REVERT JUMPDEST PUSH0 SWAP1 PUSH0 CALLDATALOAD PUSH1 0xE0 SHR SWAP1 DUP2 PUSH4 0x24A9D853 EQ PUSH2 0xBBC JUMPI POP DUP1 PUSH4 0x48F7D5AB EQ PUSH2 0xB94 JUMPI DUP1 PUSH4 0x50FD7367 EQ PUSH2 0x855 JUMPI DUP1 PUSH4 0x61D027B3 EQ PUSH2 0x82D JUMPI DUP1 PUSH4 0x715018A6 EQ PUSH2 0x7D6 JUMPI DUP1 PUSH4 0x72C27B62 EQ PUSH2 0x751 JUMPI DUP1 PUSH4 0x82E0A476 EQ PUSH2 0x727 JUMPI DUP1 PUSH4 0x8DA5CB5B EQ PUSH2 0x700 JUMPI DUP1 PUSH4 0x964BC33F EQ PUSH2 0x62B JUMPI DUP1 PUSH4 0xA9B07C26 EQ PUSH2 0x60E JUMPI DUP1 PUSH4 0xD96A094A EQ PUSH2 0x286 JUMPI DUP1 PUSH4 0xDE74E57B EQ PUSH2 0x22C JUMPI DUP1 PUSH4 0xF0F44260 EQ PUSH2 0x17C JUMPI DUP1 PUSH4 0xF2FDE38B EQ PUSH2 0xEE JUMPI PUSH4 0xFA818CF6 EQ PUSH2 0xC3 JUMPI PUSH0 DUP1 REVERT JUMPDEST CALLVALUE PUSH2 0xEB JUMPI DUP1 PUSH1 0x3 NOT CALLDATASIZE ADD SLT PUSH2 0xEB JUMPI PUSH1 0x1 SLOAD PUSH1 0x40 MLOAD PUSH1 0x1 PUSH1 0x1 PUSH1 0xA0 SHL SUB SWAP1 SWAP2 AND DUP2 MSTORE PUSH1 0x20 SWAP1 RETURN JUMPDEST DUP1 REVERT JUMPDEST POP CALLVALUE PUSH2 0xEB JUMPI PUSH1 0x20 CALLDATASIZE PUSH1 0x3 NOT ADD SLT PUSH2 0xEB JUMPI PUSH1 0x4 CALLDATALOAD PUSH1 0x1 PUSH1 0x1 PUSH1 0xA0 SHL SUB DUP2 AND SWAP1 DUP2 SWAP1 SUB PUSH2 0x178 JUMPI PUSH2 0x11D PUSH2 0xC68 JUMP JUMPDEST DUP1 ISZERO PUSH2 0x164 JUMPI DUP2 SLOAD PUSH1 0x1 PUSH1 0x1 PUSH1 0xA0 SHL SUB NOT DUP2 AND DUP3 OR DUP4 SSTORE PUSH1 0x1 PUSH1 0x1 PUSH1 0xA0 SHL SUB AND PUSH32 0x8BE0079C531659141344CD1FD0A4F28419497F9722A3DAAFE3B4186F6B6457E0 DUP4 DUP1 LOG3 DUP1 RETURN JUMPDEST PUSH4 0x1E4FBDF7 PUSH1 0xE0 SHL DUP3 MSTORE PUSH1 0x4 DUP3 SWAP1 MSTORE PUSH1 0x24 DUP3 REVERT JUMPDEST POP DUP1 REVERT JUMPDEST POP CALLVALUE PUSH2 0xEB JUMPI PUSH1 0x20 CALLDATASIZE PUSH1 0x3 NOT ADD SLT PUSH2 0xEB JUMPI PUSH1 0x4 CALLDATALOAD PUSH1 0x1 PUSH1 0x1 PUSH1 0xA0 SHL SUB DUP2 AND SWAP1 DUP2 SWAP1 SUB PUSH2 0x178 JUMPI PUSH2 0x1AB PUSH2 0xC68 JUMP JUMPDEST DUP1 ISZERO PUSH2 0x1F8 JUMPI PUSH1 0x20 DUP2 PUSH32 0x7DAE230F18360D76A040C81F050AA14EB9D6DC7901B20FC5D855E2A20FE814D1 SWAP3 PUSH12 0xFFFFFFFFFFFFFFFFFFFFFFFF PUSH1 0xA0 SHL PUSH1 0x3 SLOAD AND OR PUSH1 0x3 SSTORE PUSH1 0x40 MLOAD SWAP1 DUP2 MSTORE LOG1 DUP1 RETURN JUMPDEST PUSH1 0x40 MLOAD PUSH3 0x461BCD PUSH1 0xE5 SHL DUP2 MSTORE PUSH1 0x20 PUSH1 0x4 DUP3 ADD MSTORE PUSH1 0xC PUSH1 0x24 DUP3 ADD MSTORE PUSH12 0x5A65726F2061646472657373 PUSH1 0xA0 SHL PUSH1 0x44 DUP3 ADD MSTORE PUSH1 0x64 SWAP1 REVERT JUMPDEST POP CALLVALUE PUSH2 0xEB JUMPI PUSH1 0x20 CALLDATASIZE PUSH1 0x3 NOT ADD SLT PUSH2 0xEB JUMPI PUSH1 0x40 PUSH1 0x80 SWAP2 PUSH1 0x4 CALLDATALOAD DUP2 MSTORE PUSH1 0x6 PUSH1 0x20 MSTORE KECCAK256 PUSH1 0x1 DUP1 PUSH1 0xA0 SHL SUB DUP2 SLOAD AND SWAP1 PUSH1 0x1 DUP2 ADD SLOAD SWAP1 PUSH1 0xFF PUSH1 0x3 PUSH1 0x2 DUP4 ADD SLOAD SWAP3 ADD SLOAD AND SWAP2 PUSH1 0x40 MLOAD SWAP4 DUP5 MSTORE PUSH1 0x20 DUP5 ADD MSTORE PUSH1 0x40 DUP4 ADD MSTORE ISZERO ISZERO PUSH1 0x60 DUP3 ADD MSTORE RETURN JUMPDEST POP CALLVALUE PUSH2 0x48D JUMPI PUSH1 0x20 CALLDATASIZE PUSH1 0x3 NOT ADD SLT PUSH2 0x48D JUMPI PUSH1 0x4 CALLDATALOAD PUSH1 0x2 PUSH32 0x9B779B17422D0DF92223018B32B4D1FA46E071723D6817E2486D003BECC55F00 SLOAD EQ PUSH2 0x5FF JUMPI PUSH1 0x2 PUSH32 0x9B779B17422D0DF92223018B32B4D1FA46E071723D6817E2486D003BECC55F00 SSTORE DUP1 PUSH0 MSTORE PUSH1 0x6 PUSH1 0x20 MSTORE PUSH1 0x40 PUSH0 KECCAK256 SWAP1 PUSH1 0x3 DUP3 ADD DUP1 SLOAD PUSH2 0x307 PUSH1 0xFF DUP3 AND PUSH2 0xC2F JUMP JUMPDEST DUP4 SLOAD PUSH1 0x1 PUSH1 0x1 PUSH1 0xA0 SHL SUB AND CALLER EQ PUSH2 0x5C1 JUMPI PUSH1 0xFF NOT AND SWAP1 SSTORE PUSH1 0x1 DUP3 ADD DUP1 SLOAD PUSH0 MSTORE PUSH1 0x7 PUSH1 0x20 MSTORE PUSH0 PUSH1 0x40 DUP2 KECCAK256 SSTORE PUSH1 0x2 DUP4 ADD SWAP3 DUP4 SLOAD PUSH1 0x4 SLOAD DUP1 DUP3 MUL SWAP1 DUP3 DUP3 DIV EQ DUP3 ISZERO OR ISZERO PUSH2 0x5AD JUMPI PUSH2 0x2710 SWAP1 DIV SWAP1 DUP2 DUP2 SUB SWAP1 DUP2 GT PUSH2 0x5AD JUMPI PUSH1 0x2 SLOAD DUP4 SLOAD PUSH1 0x40 MLOAD PUSH4 0x23B872DD PUSH1 0xE0 SHL DUP2 MSTORE CALLER PUSH1 0x4 DUP3 ADD MSTORE PUSH1 0x1 PUSH1 0x1 PUSH1 0xA0 SHL SUB SWAP2 DUP3 AND PUSH1 0x24 DUP3 ADD MSTORE PUSH1 0x44 DUP2 ADD SWAP4 SWAP1 SWAP4 MSTORE PUSH1 0x20 SWAP2 DUP4 SWAP2 PUSH1 0x64 SWAP2 DUP4 SWAP2 PUSH0 SWAP2 AND GAS CALL SWAP1 DUP2 ISZERO PUSH2 0x482 JUMPI PUSH0 SWAP2 PUSH2 0x58E JUMPI JUMPDEST POP ISZERO PUSH2 0x552 JUMPI DUP1 PUSH2 0x491 JUMPI JUMPDEST POP PUSH1 0x1 SLOAD SWAP1 SLOAD DUP3 SLOAD PUSH1 0x1 PUSH1 0x1 PUSH1 0xA0 SHL SUB SWAP3 DUP4 AND SWAP3 SWAP1 SWAP2 AND SWAP1 DUP3 EXTCODESIZE ISZERO PUSH2 0x48D JUMPI PUSH1 0x40 MLOAD PUSH4 0x23B872DD PUSH1 0xE0 SHL DUP2 MSTORE PUSH1 0x1 PUSH1 0x1 PUSH1 0xA0 SHL SUB SWAP3 SWAP1 SWAP3 AND PUSH1 0x4 DUP4 ADD MSTORE CALLER PUSH1 0x24 DUP4 ADD MSTORE PUSH1 0x44 DUP3 ADD MSTORE SWAP1 PUSH0 SWAP1 DUP3 SWAP1 PUSH1 0x64 SWAP1 DUP3 SWAP1 DUP5 SWAP1 GAS CALL DUP1 ISZERO PUSH2 0x482 JUMPI PUSH2 0x46D JUMPI JUMPDEST POP SLOAD SWAP2 SLOAD SWAP1 PUSH1 0x40 MLOAD SWAP2 DUP3 MSTORE PUSH32 0xCD1C39D27A443BEBCE7F2CF1CB49519E7586EC24D1A7A7C9FCC00F57CD8EFBFB PUSH1 0x20 CALLER SWAP4 LOG4 PUSH1 0x1 PUSH32 0x9B779B17422D0DF92223018B32B4D1FA46E071723D6817E2486D003BECC55F00 SSTORE DUP1 RETURN JUMPDEST PUSH2 0x47A SWAP2 SWAP5 POP PUSH0 SWAP1 PUSH2 0xBD6 JUMP JUMPDEST PUSH0 SWAP3 PUSH0 PUSH2 0x415 JUMP JUMPDEST PUSH1 0x40 MLOAD RETURNDATASIZE PUSH0 DUP3 RETURNDATACOPY RETURNDATASIZE SWAP1 REVERT JUMPDEST PUSH0 DUP1 REVERT JUMPDEST PUSH1 0x2 SLOAD PUSH1 0x3 SLOAD PUSH1 0x40 MLOAD PUSH4 0x23B872DD PUSH1 0xE0 SHL DUP2 MSTORE CALLER PUSH1 0x4 DUP3 ADD MSTORE PUSH1 0x1 PUSH1 0x1 PUSH1 0xA0 SHL SUB SWAP2 DUP3 AND PUSH1 0x24 DUP3 ADD MSTORE PUSH1 0x44 DUP2 ADD SWAP4 SWAP1 SWAP4 MSTORE PUSH1 0x20 SWAP2 DUP4 SWAP2 PUSH1 0x64 SWAP2 DUP4 SWAP2 PUSH0 SWAP2 AND GAS CALL SWAP1 DUP2 ISZERO PUSH2 0x482 JUMPI PUSH0 SWAP2 PUSH2 0x523 JUMPI JUMPDEST POP ISZERO PUSH2 0x4EB JUMPI PUSH0 PUSH2 0x3B4 JUMP JUMPDEST PUSH1 0x40 MLOAD PUSH3 0x461BCD PUSH1 0xE5 SHL DUP2 MSTORE PUSH1 0x20 PUSH1 0x4 DUP3 ADD MSTORE PUSH1 0x10 PUSH1 0x24 DUP3 ADD MSTORE PUSH16 0x1054915390481999594819985A5B1959 PUSH1 0x82 SHL PUSH1 0x44 DUP3 ADD MSTORE PUSH1 0x64 SWAP1 REVERT JUMPDEST PUSH2 0x545 SWAP2 POP PUSH1 0x20 RETURNDATASIZE PUSH1 0x20 GT PUSH2 0x54B JUMPI JUMPDEST PUSH2 0x53D DUP2 DUP4 PUSH2 0xBD6 JUMP JUMPDEST DUP2 ADD SWAP1 PUSH2 0xC17 JUMP JUMPDEST PUSH0 PUSH2 0x4DF JUMP JUMPDEST POP RETURNDATASIZE PUSH2 0x533 JUMP JUMPDEST PUSH1 0x40 MLOAD PUSH3 0x461BCD PUSH1 0xE5 SHL DUP2 MSTORE PUSH1 0x20 PUSH1 0x4 DUP3 ADD MSTORE PUSH1 0x14 PUSH1 0x24 DUP3 ADD MSTORE PUSH20 0x1054915390481C185E5B595B9D0819985A5B1959 PUSH1 0x62 SHL PUSH1 0x44 DUP3 ADD MSTORE PUSH1 0x64 SWAP1 REVERT JUMPDEST PUSH2 0x5A7 SWAP2 POP PUSH1 0x20 RETURNDATASIZE PUSH1 0x20 GT PUSH2 0x54B JUMPI PUSH2 0x53D DUP2 DUP4 PUSH2 0xBD6 JUMP JUMPDEST PUSH0 PUSH2 0x3A8 JUMP JUMPDEST PUSH4 0x4E487B71 PUSH1 0xE0 SHL PUSH0 MSTORE PUSH1 0x11 PUSH1 0x4 MSTORE PUSH1 0x24 PUSH0 REVERT JUMPDEST PUSH1 0x40 MLOAD PUSH3 0x461BCD PUSH1 0xE5 SHL DUP2 MSTORE PUSH1 0x20 PUSH1 0x4 DUP3 ADD MSTORE PUSH1 0x16 PUSH1 0x24 DUP3 ADD MSTORE PUSH22 0x43616E6E6F7420627579206F776E206C697374696E67 PUSH1 0x50 SHL PUSH1 0x44 DUP3 ADD MSTORE PUSH1 0x64 SWAP1 REVERT JUMPDEST PUSH4 0x3EE5AEB5 PUSH1 0xE0 SHL PUSH0 MSTORE PUSH1 0x4 PUSH0 REVERT JUMPDEST CALLVALUE PUSH2 0x48D JUMPI PUSH0 CALLDATASIZE PUSH1 0x3 NOT ADD SLT PUSH2 0x48D JUMPI PUSH1 0x20 PUSH1 0x5 SLOAD PUSH1 0x40 MLOAD SWAP1 DUP2 MSTORE RETURN JUMPDEST CALLVALUE PUSH2 0x48D JUMPI PUSH1 0x20 CALLDATASIZE PUSH1 0x3 NOT ADD SLT PUSH2 0x48D JUMPI PUSH1 0x4 CALLDATALOAD DUP1 PUSH0 MSTORE PUSH1 0x6 PUSH1 0x20 MSTORE PUSH1 0x40 PUSH0 KECCAK256 PUSH1 0x3 DUP2 ADD SWAP1 DUP2 SLOAD SWAP2 PUSH2 0x65F PUSH1 0xFF DUP5 AND PUSH2 0xC2F JUMP JUMPDEST DUP2 SLOAD PUSH1 0x1 PUSH1 0x1 PUSH1 0xA0 SHL SUB AND CALLER EQ DUP1 ISZERO PUSH2 0x6ED JUMPI JUMPDEST ISZERO PUSH2 0x6B9 JUMPI PUSH1 0x1 SWAP3 PUSH1 0xFF NOT AND SWAP1 SSTORE ADD DUP1 SLOAD PUSH0 MSTORE PUSH1 0x7 PUSH1 0x20 MSTORE PUSH0 PUSH1 0x40 DUP2 KECCAK256 SSTORE SLOAD SWAP1 PUSH32 0x59ACFC838C3817A4AD51829DEC2A433647FB0229670CCB3E8093AF5AAA64F7A1 PUSH0 DUP1 LOG3 STOP JUMPDEST PUSH1 0x40 MLOAD PUSH3 0x461BCD PUSH1 0xE5 SHL DUP2 MSTORE PUSH1 0x20 PUSH1 0x4 DUP3 ADD MSTORE PUSH1 0xC PUSH1 0x24 DUP3 ADD MSTORE PUSH12 0x155B985D5D1A1BDC9A5E9959 PUSH1 0xA2 SHL PUSH1 0x44 DUP3 ADD MSTORE PUSH1 0x64 SWAP1 REVERT JUMPDEST POP PUSH0 SLOAD PUSH1 0x1 PUSH1 0x1 PUSH1 0xA0 SHL SUB AND CALLER EQ PUSH2 0x673 JUMP JUMPDEST CALLVALUE PUSH2 0x48D JUMPI PUSH0 CALLDATASIZE PUSH1 0x3 NOT ADD SLT PUSH2 0x48D JUMPI PUSH0 SLOAD PUSH1 0x40 MLOAD PUSH1 0x1 PUSH1 0x1 PUSH1 0xA0 SHL SUB SWAP1 SWAP2 AND DUP2 MSTORE PUSH1 0x20 SWAP1 RETURN JUMPDEST CALLVALUE PUSH2 0x48D JUMPI PUSH1 0x20 CALLDATASIZE PUSH1 0x3 NOT ADD SLT PUSH2 0x48D JUMPI PUSH1 0x4 CALLDATALOAD PUSH0 MSTORE PUSH1 0x7 PUSH1 0x20 MSTORE PUSH1 0x20 PUSH1 0x40 PUSH0 KECCAK256 SLOAD PUSH1 0x40 MLOAD SWAP1 DUP2 MSTORE RETURN JUMPDEST CALLVALUE PUSH2 0x48D JUMPI PUSH1 0x20 CALLDATASIZE PUSH1 0x3 NOT ADD SLT PUSH2 0x48D JUMPI PUSH1 0x4 CALLDATALOAD PUSH2 0x76D PUSH2 0xC68 JUMP JUMPDEST PUSH2 0x3E8 DUP2 GT PUSH2 0x7A7 JUMPI PUSH1 0x20 DUP2 PUSH32 0x8C4D35E54A3F2EF1134138FD8EA3DAEE6A3C89E10D2665996BABDF70261E2C76 SWAP3 PUSH1 0x4 SSTORE PUSH1 0x40 MLOAD SWAP1 DUP2 MSTORE LOG1 STOP JUMPDEST PUSH1 0x40 MLOAD PUSH3 0x461BCD PUSH1 0xE5 SHL DUP2 MSTORE PUSH1 0x20 PUSH1 0x4 DUP3 ADD MSTORE PUSH1 0x7 PUSH1 0x24 DUP3 ADD MSTORE PUSH7 0x4D617820313025 PUSH1 0xC8 SHL PUSH1 0x44 DUP3 ADD MSTORE PUSH1 0x64 SWAP1 REVERT JUMPDEST CALLVALUE PUSH2 0x48D JUMPI PUSH0 CALLDATASIZE PUSH1 0x3 NOT ADD SLT PUSH2 0x48D JUMPI PUSH2 0x7EE PUSH2 0xC68 JUMP JUMPDEST PUSH0 DUP1 SLOAD PUSH1 0x1 PUSH1 0x1 PUSH1 0xA0 SHL SUB NOT DUP2 AND DUP3 SSTORE PUSH1 0x1 PUSH1 0x1 PUSH1 0xA0 SHL SUB AND PUSH32 0x8BE0079C531659141344CD1FD0A4F28419497F9722A3DAAFE3B4186F6B6457E0 DUP3 DUP1 LOG3 STOP JUMPDEST CALLVALUE PUSH2 0x48D JUMPI PUSH0 CALLDATASIZE PUSH1 0x3 NOT ADD SLT PUSH2 0x48D JUMPI PUSH1 0x3 SLOAD PUSH1 0x40 MLOAD PUSH1 0x1 PUSH1 0x1 PUSH1 0xA0 SHL SUB SWAP1 SWAP2 AND DUP2 MSTORE PUSH1 0x20 SWAP1 RETURN JUMPDEST CALLVALUE PUSH2 0x48D JUMPI PUSH1 0x40 CALLDATASIZE PUSH1 0x3 NOT ADD SLT PUSH2 0x48D JUMPI PUSH1 0x4 CALLDATALOAD PUSH1 0x24 CALLDATALOAD SWAP1 PUSH1 0x1 DUP1 PUSH1 0xA0 SHL SUB PUSH1 0x1 SLOAD AND PUSH1 0x40 MLOAD PUSH4 0x31A9108F PUSH1 0xE1 SHL DUP2 MSTORE DUP3 PUSH1 0x4 DUP3 ADD MSTORE PUSH1 0x20 DUP2 PUSH1 0x24 DUP2 DUP6 GAS STATICCALL SWAP1 DUP2 ISZERO PUSH2 0x482 JUMPI PUSH0 SWAP2 PUSH2 0xB75 JUMPI JUMPDEST POP CALLER PUSH1 0x1 PUSH1 0x1 PUSH1 0xA0 SHL SUB SWAP1 SWAP2 AND SUB PUSH2 0xB3D JUMPI DUP3 ISZERO PUSH2 0xB04 JUMPI PUSH1 0x40 MLOAD PUSH4 0x20604BF PUSH1 0xE2 SHL DUP2 MSTORE PUSH1 0x4 DUP2 ADD DUP4 SWAP1 MSTORE PUSH1 0x20 DUP2 PUSH1 0x24 DUP2 DUP6 GAS STATICCALL SWAP1 DUP2 ISZERO PUSH2 0x482 JUMPI PUSH0 SWAP2 PUSH2 0xAD5 JUMPI JUMPDEST POP PUSH1 0x1 PUSH1 0x1 PUSH1 0xA0 SHL SUB AND ADDRESS EQ SWAP1 DUP2 ISZERO PUSH2 0xA7A JUMPI JUMPDEST POP ISZERO PUSH2 0xA35 JUMPI DUP1 PUSH0 MSTORE PUSH1 0x7 PUSH1 0x20 MSTORE PUSH1 0x40 PUSH0 KECCAK256 SLOAD PUSH2 0x9FF JUMPI PUSH1 0x5 SLOAD PUSH0 NOT DUP2 EQ PUSH2 0x5AD JUMPI PUSH1 0x1 ADD SWAP1 DUP2 PUSH1 0x5 SSTORE PUSH1 0x40 MLOAD SWAP3 PUSH1 0x80 DUP5 ADD SWAP4 DUP1 DUP6 LT PUSH8 0xFFFFFFFFFFFFFFFF DUP7 GT OR PUSH2 0x9EB JUMPI PUSH1 0x20 SWAP5 PUSH1 0x40 MSTORE CALLER DUP2 MSTORE PUSH1 0x3 DUP6 DUP3 ADD SWAP2 DUP5 DUP4 MSTORE PUSH1 0x40 DUP2 ADD DUP5 DUP2 MSTORE PUSH1 0x60 DUP3 ADD SWAP4 PUSH1 0x1 DUP6 MSTORE DUP8 PUSH0 MSTORE PUSH1 0x6 DUP10 MSTORE PUSH1 0x40 PUSH0 KECCAK256 SWAP3 PUSH1 0x1 DUP1 PUSH1 0xA0 SHL SUB SWAP1 MLOAD AND PUSH12 0xFFFFFFFFFFFFFFFFFFFFFFFF PUSH1 0xA0 SHL DUP5 SLOAD AND OR DUP4 SSTORE MLOAD PUSH1 0x1 DUP4 ADD SSTORE MLOAD PUSH1 0x2 DUP3 ADD SSTORE ADD SWAP1 MLOAD ISZERO ISZERO PUSH1 0xFF DUP1 NOT DUP4 SLOAD AND SWAP2 AND OR SWAP1 SSTORE DUP2 PUSH0 MSTORE PUSH1 0x7 DUP5 MSTORE DUP3 PUSH1 0x40 PUSH0 KECCAK256 SSTORE PUSH1 0x40 MLOAD SWAP1 DUP2 MSTORE DUP3 PUSH32 0x98868C46D49B200D82C273C9F28D73265826CA6567690262736450563DFFF64C DUP6 CALLER SWAP4 LOG4 PUSH1 0x40 MLOAD SWAP1 DUP2 MSTORE RETURN JUMPDEST PUSH4 0x4E487B71 PUSH1 0xE0 SHL PUSH0 MSTORE PUSH1 0x41 PUSH1 0x4 MSTORE PUSH1 0x24 PUSH0 REVERT JUMPDEST PUSH1 0x40 MLOAD PUSH3 0x461BCD PUSH1 0xE5 SHL DUP2 MSTORE PUSH1 0x20 PUSH1 0x4 DUP3 ADD MSTORE PUSH1 0xE PUSH1 0x24 DUP3 ADD MSTORE PUSH14 0x105B1C9958591E481B1A5CDD1959 PUSH1 0x92 SHL PUSH1 0x44 DUP3 ADD MSTORE PUSH1 0x64 SWAP1 REVERT JUMPDEST PUSH1 0x40 MLOAD PUSH3 0x461BCD PUSH1 0xE5 SHL DUP2 MSTORE PUSH1 0x20 PUSH1 0x4 DUP3 ADD MSTORE PUSH1 0x18 PUSH1 0x24 DUP3 ADD MSTORE PUSH32 0x4D61726B6574706C616365206E6F7420617070726F7665640000000000000000 PUSH1 0x44 DUP3 ADD MSTORE PUSH1 0x64 SWAP1 REVERT JUMPDEST PUSH1 0x40 MLOAD PUSH4 0xE985E9C5 PUSH1 0xE0 SHL DUP2 MSTORE CALLER PUSH1 0x4 DUP3 ADD MSTORE ADDRESS PUSH1 0x24 DUP3 ADD MSTORE SWAP2 POP PUSH1 0x20 SWAP1 DUP3 SWAP1 PUSH1 0x44 SWAP1 DUP3 SWAP1 GAS STATICCALL SWAP1 DUP2 ISZERO PUSH2 0x482 JUMPI PUSH0 SWAP2 PUSH2 0xAB6 JUMPI JUMPDEST POP DUP4 PUSH2 0x8F9 JUMP JUMPDEST PUSH2 0xACF SWAP2 POP PUSH1 0x20 RETURNDATASIZE PUSH1 0x20 GT PUSH2 0x54B JUMPI PUSH2 0x53D DUP2 DUP4 PUSH2 0xBD6 JUMP JUMPDEST DUP4 PUSH2 0xAAF JUMP JUMPDEST PUSH2 0xAF7 SWAP2 POP PUSH1 0x20 RETURNDATASIZE PUSH1 0x20 GT PUSH2 0xAFD JUMPI JUMPDEST PUSH2 0xAEF DUP2 DUP4 PUSH2 0xBD6 JUMP JUMPDEST DUP2 ADD SWAP1 PUSH2 0xBF8 JUMP JUMPDEST DUP5 PUSH2 0x8E5 JUMP JUMPDEST POP RETURNDATASIZE PUSH2 0xAE5 JUMP JUMPDEST PUSH1 0x40 MLOAD PUSH3 0x461BCD PUSH1 0xE5 SHL DUP2 MSTORE PUSH1 0x20 PUSH1 0x4 DUP3 ADD MSTORE PUSH1 0x11 PUSH1 0x24 DUP3 ADD MSTORE PUSH17 0x5072696365206D757374206265203E203 PUSH1 0x7C SHL PUSH1 0x44 DUP3 ADD MSTORE PUSH1 0x64 SWAP1 REVERT JUMPDEST PUSH1 0x40 MLOAD PUSH3 0x461BCD PUSH1 0xE5 SHL DUP2 MSTORE PUSH1 0x20 PUSH1 0x4 DUP3 ADD MSTORE PUSH1 0x10 PUSH1 0x24 DUP3 ADD MSTORE PUSH16 0x2737BA103CB7BAB9103334B3B43A32B9 PUSH1 0x81 SHL PUSH1 0x44 DUP3 ADD MSTORE PUSH1 0x64 SWAP1 REVERT JUMPDEST PUSH2 0xB8E SWAP2 POP PUSH1 0x20 RETURNDATASIZE PUSH1 0x20 GT PUSH2 0xAFD JUMPI PUSH2 0xAEF DUP2 DUP4 PUSH2 0xBD6 JUMP JUMPDEST DUP5 PUSH2 0x8A2 JUMP JUMPDEST CALLVALUE PUSH2 0x48D JUMPI PUSH0 CALLDATASIZE PUSH1 0x3 NOT ADD SLT PUSH2 0x48D JUMPI PUSH1 0x2 SLOAD PUSH1 0x40 MLOAD PUSH1 0x1 PUSH1 0x1 PUSH1 0xA0 SHL SUB SWAP1 SWAP2 AND DUP2 MSTORE PUSH1 0x20 SWAP1 RETURN JUMPDEST CALLVALUE PUSH2 0x48D JUMPI PUSH0 CALLDATASIZE PUSH1 0x3 NOT ADD SLT PUSH2 0x48D JUMPI PUSH1 0x20 SWAP1 PUSH1 0x4 SLOAD DUP2 MSTORE RETURN JUMPDEST SWAP1 PUSH1 0x1F DUP1 NOT SWAP2 ADD AND DUP2 ADD SWAP1 DUP2 LT PUSH8 0xFFFFFFFFFFFFFFFF DUP3 GT OR PUSH2 0x9EB JUMPI PUSH1 0x40 MSTORE JUMP JUMPDEST SWAP1 DUP2 PUSH1 0x20 SWAP2 SUB SLT PUSH2 0x48D JUMPI MLOAD PUSH1 0x1 PUSH1 0x1 PUSH1 0xA0 SHL SUB DUP2 AND DUP2 SUB PUSH2 0x48D JUMPI SWAP1 JUMP JUMPDEST SWAP1 DUP2 PUSH1 0x20 SWAP2 SUB SLT PUSH2 0x48D JUMPI MLOAD DUP1 ISZERO ISZERO DUP2 SUB PUSH2 0x48D JUMPI SWAP1 JUMP JUMPDEST ISZERO PUSH2 0xC36 JUMPI JUMP JUMPDEST PUSH1 0x40 MLOAD PUSH3 0x461BCD PUSH1 0xE5 SHL DUP2 MSTORE PUSH1 0x20 PUSH1 0x4 DUP3 ADD MSTORE PUSH1 0xA PUSH1 0x24 DUP3 ADD MSTORE PUSH10 0x4E6F7420616374697665 PUSH1 0xB0 SHL PUSH1 0x44 DUP3 ADD MSTORE PUSH1 0x64 SWAP1 REVERT JUMPDEST PUSH0 SLOAD PUSH1 0x1 PUSH1 0x1 PUSH1 0xA0 SHL SUB AND CALLER SUB PUSH2 0xC7B JUMPI JUMP JUMPDEST PUSH4 0x118CDAA7 PUSH1 0xE0 SHL PUSH0 MSTORE CALLER PUSH1 0x4 MSTORE PUSH1 0x24 PUSH0 REVERT INVALID LOG2 PUSH5 0x6970667358 0x22 SLT KECCAK256 OR 0xD5 0xE7 0xDE DELEGATECALL CALLER COINBASE DUP11 EXTCODEHASH PUSH21 0x4016563A46B5F3A581F4889E6F313D61ABCB552193 0xD8 PUSH5 0x736F6C6343 STOP ADDMOD SHR STOP CALLER "},"methodIdentifiers":{"activeListingByToken(uint256)":"82e0a476","arenaCoin()":"48f7d5ab","buy(uint256)":"d96a094a","delist(uint256)":"964bc33f","feeBps()":"24a9d853","fighterNFT()":"fa818cf6","list(uint256,uint256)":"50fd7367","listingCount()":"a9b07c26","listings(uint256)":"de74e57b","owner()":"8da5cb5b","renounceOwnership()":"715018a6","setFeeBps(uint256)":"72c27b62","setTreasury(address)":"f0f44260","transferOwnership(address)":"f2fde38b","treasury()":"61d027b3"}}}}}