{"contracts/ArenaFighter.sol":{"ArenaFighter":{"abi":[{"inputs":[{"internalType":"address","name":"_arenaCoin","type":"address"},{"internalType":"string","name":"baseURI","type":"string"}],"stateMutability":"nonpayable","type":"constructor"},{"inputs":[],"name":"ERC721EnumerableForbiddenBatchMint","type":"error"},{"inputs":[{"internalType":"address","name":"sender","type":"address"},{"internalType":"uint256","name":"tokenId","type":"uint256"},{"internalType":"address","name":"owner","type":"address"}],"name":"ERC721IncorrectOwner","type":"error"},{"inputs":[{"internalType":"address","name":"operator","type":"address"},{"internalType":"uint256","name":"tokenId","type":"uint256"}],"name":"ERC721InsufficientApproval","type":"error"},{"inputs":[{"internalType":"address","name":"approver","type":"address"}],"name":"ERC721InvalidApprover","type":"error"},{"inputs":[{"internalType":"address","name":"operator","type":"address"}],"name":"ERC721InvalidOperator","type":"error"},{"inputs":[{"internalType":"address","name":"owner","type":"address"}],"name":"ERC721InvalidOwner","type":"error"},{"inputs":[{"internalType":"address","name":"receiver","type":"address"}],"name":"ERC721InvalidReceiver","type":"error"},{"inputs":[{"internalType":"address","name":"sender","type":"address"}],"name":"ERC721InvalidSender","type":"error"},{"inputs":[{"internalType":"uint256","name":"tokenId","type":"uint256"}],"name":"ERC721NonexistentToken","type":"error"},{"inputs":[{"internalType":"address","name":"owner","type":"address"},{"internalType":"uint256","name":"index","type":"uint256"}],"name":"ERC721OutOfBoundsIndex","type":"error"},{"inputs":[{"internalType":"address","name":"owner","type":"address"}],"name":"OwnableInvalidOwner","type":"error"},{"inputs":[{"internalType":"address","name":"account","type":"address"}],"name":"OwnableUnauthorizedAccount","type":"error"},{"inputs":[],"name":"ReentrancyGuardReentrantCall","type":"error"},{"anonymous":false,"inputs":[{"indexed":true,"internalType":"address","name":"owner","type":"address"},{"indexed":true,"internalType":"address","name":"approved","type":"address"},{"indexed":true,"internalType":"uint256","name":"tokenId","type":"uint256"}],"name":"Approval","type":"event"},{"anonymous":false,"inputs":[{"indexed":true,"internalType":"address","name":"owner","type":"address"},{"indexed":true,"internalType":"address","name":"operator","type":"address"},{"indexed":false,"internalType":"bool","name":"approved","type":"bool"}],"name":"ApprovalForAll","type":"event"},{"anonymous":false,"inputs":[{"indexed":true,"internalType":"address","name":"arenaContract","type":"address"}],"name":"ArenaContractSet","type":"event"},{"anonymous":false,"inputs":[{"indexed":true,"internalType":"address","name":"owner","type":"address"},{"indexed":true,"internalType":"uint256","name":"tokenId","type":"uint256"},{"indexed":false,"internalType":"enum ArenaFighter.Rarity","name":"rarity","type":"uint8"}],"name":"FighterMinted","type":"event"},{"anonymous":false,"inputs":[{"indexed":true,"internalType":"address","name":"previousOwner","type":"address"},{"indexed":true,"internalType":"address","name":"newOwner","type":"address"}],"name":"OwnershipTransferred","type":"event"},{"anonymous":false,"inputs":[{"indexed":true,"internalType":"uint256","name":"tokenId","type":"uint256"},{"indexed":false,"internalType":"uint32","name":"wins","type":"uint32"},{"indexed":false,"internalType":"uint32","name":"losses","type":"uint32"}],"name":"StatsUpdated","type":"event"},{"anonymous":false,"inputs":[{"indexed":true,"internalType":"address","name":"from","type":"address"},{"indexed":true,"internalType":"address","name":"to","type":"address"},{"indexed":true,"internalType":"uint256","name":"tokenId","type":"uint256"}],"name":"Transfer","type":"event"},{"inputs":[{"internalType":"address","name":"to","type":"address"},{"internalType":"uint256","name":"tokenId","type":"uint256"}],"name":"approve","outputs":[],"stateMutability":"nonpayable","type":"function"},{"inputs":[],"name":"arenaCoin","outputs":[{"internalType":"contract IArenaCoin","name":"","type":"address"}],"stateMutability":"view","type":"function"},{"inputs":[],"name":"arenaContract","outputs":[{"internalType":"address","name":"","type":"address"}],"stateMutability":"view","type":"function"},{"inputs":[{"internalType":"address","name":"owner","type":"address"}],"name":"balanceOf","outputs":[{"internalType":"uint256","name":"","type":"uint256"}],"stateMutability":"view","type":"function"},{"inputs":[{"internalType":"uint256","name":"tokenId","type":"uint256"}],"name":"getApproved","outputs":[{"internalType":"address","name":"","type":"address"}],"stateMutability":"view","type":"function"},{"inputs":[{"internalType":"address","name":"owner","type":"address"},{"internalType":"address","name":"operator","type":"address"}],"name":"isApprovedForAll","outputs":[{"internalType":"bool","name":"","type":"bool"}],"stateMutability":"view","type":"function"},{"inputs":[{"internalType":"enum ArenaFighter.Rarity","name":"rarity","type":"uint8"}],"name":"mint","outputs":[{"internalType":"uint256","name":"tokenId","type":"uint256"}],"stateMutability":"nonpayable","type":"function"},{"inputs":[{"internalType":"enum ArenaFighter.Rarity","name":"","type":"uint8"}],"name":"mintCost","outputs":[{"internalType":"uint256","name":"","type":"uint256"}],"stateMutability":"view","type":"function"},{"inputs":[],"name":"name","outputs":[{"internalType":"string","name":"","type":"string"}],"stateMutability":"view","type":"function"},{"inputs":[],"name":"nextTokenId","outputs":[{"internalType":"uint256","name":"","type":"uint256"}],"stateMutability":"view","type":"function"},{"inputs":[],"name":"owner","outputs":[{"internalType":"address","name":"","type":"address"}],"stateMutability":"view","type":"function"},{"inputs":[{"internalType":"uint256","name":"tokenId","type":"uint256"}],"name":"ownerOf","outputs":[{"internalType":"address","name":"","type":"address"}],"stateMutability":"view","type":"function"},{"inputs":[{"internalType":"uint256","name":"tokenId","type":"uint256"}],"name":"recordLoss","outputs":[],"stateMutability":"nonpayable","type":"function"},{"inputs":[{"internalType":"uint256","name":"tokenId","type":"uint256"}],"name":"recordWin","outputs":[],"stateMutability":"nonpayable","type":"function"},{"inputs":[],"name":"renounceOwnership","outputs":[],"stateMutability":"nonpayable","type":"function"},{"inputs":[{"internalType":"address","name":"from","type":"address"},{"internalType":"address","name":"to","type":"address"},{"internalType":"uint256","name":"tokenId","type":"uint256"}],"name":"safeTransferFrom","outputs":[],"stateMutability":"nonpayable","type":"function"},{"inputs":[{"internalType":"address","name":"from","type":"address"},{"internalType":"address","name":"to","type":"address"},{"internalType":"uint256","name":"tokenId","type":"uint256"},{"internalType":"bytes","name":"data","type":"bytes"}],"name":"safeTransferFrom","outputs":[],"stateMutability":"nonpayable","type":"function"},{"inputs":[{"internalType":"address","name":"operator","type":"address"},{"internalType":"bool","name":"approved","type":"bool"}],"name":"setApprovalForAll","outputs":[],"stateMutability":"nonpayable","type":"function"},{"inputs":[{"internalType":"address","name":"_arena","type":"address"}],"name":"setArenaContract","outputs":[],"stateMutability":"nonpayable","type":"function"},{"inputs":[{"internalType":"string","name":"baseURI","type":"string"}],"name":"setBaseURI","outputs":[],"stateMutability":"nonpayable","type":"function"},{"inputs":[{"internalType":"enum ArenaFighter.Rarity","name":"rarity","type":"uint8"},{"internalType":"uint256","name":"cost","type":"uint256"}],"name":"setMintCost","outputs":[],"stateMutability":"nonpayable","type":"function"},{"inputs":[{"internalType":"uint256","name":"","type":"uint256"}],"name":"stats","outputs":[{"internalType":"uint8","name":"strength","type":"uint8"},{"internalType":"uint8","name":"speed","type":"uint8"},{"internalType":"uint8","name":"intelligence","type":"uint8"},{"internalType":"enum ArenaFighter.Rarity","name":"rarity","type":"uint8"},{"internalType":"uint32","name":"wins","type":"uint32"},{"internalType":"uint32","name":"losses","type":"uint32"},{"internalType":"uint256","name":"mintedAt","type":"uint256"}],"stateMutability":"view","type":"function"},{"inputs":[{"internalType":"bytes4","name":"interfaceId","type":"bytes4"}],"name":"supportsInterface","outputs":[{"internalType":"bool","name":"","type":"bool"}],"stateMutability":"view","type":"function"},{"inputs":[],"name":"symbol","outputs":[{"internalType":"string","name":"","type":"string"}],"stateMutability":"view","type":"function"},{"inputs":[{"internalType":"uint256","name":"index","type":"uint256"}],"name":"tokenByIndex","outputs":[{"internalType":"uint256","name":"","type":"uint256"}],"stateMutability":"view","type":"function"},{"inputs":[{"internalType":"address","name":"owner","type":"address"},{"internalType":"uint256","name":"index","type":"uint256"}],"name":"tokenOfOwnerByIndex","outputs":[{"internalType":"uint256","name":"","type":"uint256"}],"stateMutability":"view","type":"function"},{"inputs":[{"internalType":"uint256","name":"tokenId","type":"uint256"}],"name":"tokenURI","outputs":[{"internalType":"string","name":"","type":"string"}],"stateMutability":"view","type":"function"},{"inputs":[],"name":"totalSupply","outputs":[{"internalType":"uint256","name":"","type":"uint256"}],"stateMutability":"view","type":"function"},{"inputs":[{"internalType":"address","name":"from","type":"address"},{"internalType":"address","name":"to","type":"address"},{"internalType":"uint256","name":"tokenId","type":"uint256"}],"name":"transferFrom","outputs":[],"stateMutability":"nonpayable","type":"function"},{"inputs":[{"internalType":"address","name":"newOwner","type":"address"}],"name":"transferOwnership","outputs":[],"stateMutability":"nonpayable","type":"function"}],"evm":{"bytecode":{"linkReferences":{},"object":"6080604052346105c2576122a380380380610019816105c6565b92833981016040828203126105c25781516001600160a01b03811692908390036105c2576020810151906001600160401b0382116105c2570181601f820112156105c2578051906001600160401b0382116103db57610081601f8301601f19166020016105c6565b92828452602083830101116105c257815f9260208093018386015e8301015260406100ab816105c6565b92600d84526c20b932b730902334b3b43a32b960991b60208501526100cf826105c6565b600881526720a324a3a42a22a960c11b6020820152845190946001600160401b0382116103db575f5490600182811c921680156105b8575b60208310146103bd5781601f84931161054b575b50602090601f83116001146104e8575f926104dd575b50508160011b915f199060031b1c1916175f555b83516001600160401b0381116103db57600154600181811c911680156104d3575b60208210146103bd57601f8111610470575b50602094601f821160011461040d579481929394955f92610402575b50508160011b915f199060031b1c1916176001555b33156103ef57600a8054336001600160a01b0319821681179092556001600160a01b03167f8be0079c531659141344cd1fd0a4f28419497f9722a3daafe3b4186f6b6457e05f80a360017f9b779b17422d0df92223018b32b4d1fa46e071723d6817e2486d003becc55f00819055600d55600b80546001600160a01b03191691909117905581516001600160401b0381116103db57601054600181811c911680156103d1575b60208210146103bd57601f811161035a575b50602092601f82116001146102f957928192935f926102ee575b50508160011b915f199060031b1c1916176010555b5f808052600e6020528181206802b5e3af16b1880000905560018152818120680821ab0d44149800009055600281528181206815af1d78b58c400000905560038152819020683635c9adc5dea00000905551611cb790816105ec8239f35b015190505f8061027b565b601f1982169360105f52805f20915f5b868110610342575083600195961061032a575b505050811b01601055610290565b01515f1960f88460031b161c191690555f808061031c565b91926020600181928685015181550194019201610309565b60105f527f1b6847dc741a1b0cd08d278845f9d819d87b734759afb55fe2de5cb82a9ae672601f830160051c810191602084106103b3575b601f0160051c01905b8181106103a85750610261565b5f815560010161039b565b9091508190610392565b634e487b7160e01b5f52602260045260245ffd5b90607f169061024f565b634e487b7160e01b5f52604160045260245ffd5b631e4fbdf760e01b5f525f60045260245ffd5b015190505f80610194565b601f1982169560015f52805f20915f5b88811061045857508360019596979810610440575b505050811b016001556101a9565b01515f1960f88460031b161c191690555f8080610432565b9192602060018192868501518155019401920161041d565b60015f527fb10e2d527612073b26eecdfd717e6a320cf44b4afac2b0732d9fcbe2b7fa0cf6601f830160051c810191602084106104c9575b601f0160051c01905b8181106104be5750610178565b5f81556001016104b1565b90915081906104a8565b90607f1690610166565b015190505f80610131565b5f8080528281209350601f198516905b818110610533575090846001959493921061051b575b505050811b015f55610145565b01515f1960f88460031b161c191690555f808061050e565b929360206001819287860151815501950193016104f8565b5f80529091507f290decd9548b62a8d60345a988386fc84ba6bc95484008f6362f93160ef3e563601f840160051c810191602085106105ae575b90601f859493920160051c01905b8181106105a0575061011b565b5f8155849350600101610593565b9091508190610585565b91607f1691610107565b5f80fd5b6040519190601f01601f191682016001600160401b038111838210176103db5760405256fe6080806040526004361015610012575f80fd5b5f3560e01c90816301ffc9a7146115765750806306fdde03146114d4578063081812fc14611498578063082a8c4e14611470578063095ea7b31461138657806318160ddd1461136957806323b872dd146113525780632f745c59146112e0578063368e0ed81461127a57806342842e0e1461124b57806348f7d5ab146112235780634f6ccce7146111d557806355f804b3146110605780636022743e14610ff65780636352211e14610fc65780636ecd23061461091f57806370a08231146108f4578063715018a61461089957806375794a3c1461087c5780638da5cb5b1461085457806395d89b411461078a5780639e6611a5146106cb578063a22cb46514610617578063ad217ae51461059a578063b88d4fde14610504578063bd96237d146104d3578063c4be71531461049f578063c87b56dd14610247578063e985e9c5146101f05763f2fde38b14610166575f80fd5b346101ec5760203660031901126101ec5761017f61161f565b610187611a8c565b6001600160a01b031680156101d957600a80546001600160a01b0319811683179091556001600160a01b03167f8be0079c531659141344cd1fd0a4f28419497f9722a3daafe3b4186f6b6457e05f80a3005b631e4fbdf760e01b5f525f60045260245ffd5b5f80fd5b346101ec5760403660031901126101ec5761020961161f565b610211611635565b9060018060a01b03165f52600560205260405f209060018060a01b03165f52602052602060ff60405f2054166040519015158152f35b346101ec5760203660031901126101ec5760043561026481611a58565b5080815f9272184f03e93ff9f4daa797ed6e38ed64bf6a1f0160401b811015610479575b50806d04ee2d6d415b85acef8100000000600a92101561045e575b662386f26fc1000081101561044a575b6305f5e100811015610439575b61271081101561042a575b606481101561041c575b1015610412575b6001820190600a60216103076102f1856116b4565b946102ff6040519687611692565b8086526116b4565b602085019590601f19013687378401015b5f1901916f181899199a1a9b1b9c1cb0b131b232b360811b8282061a835304801561034657600a9091610318565b5050604051905f9060105461035a816116e7565b90600181169081156103ee57506001146103a9575b506103a593610391928492518092825e015f815203601f198101835282611692565b6040519182916020835260208301906115fb565b0390f35b90915060105f525f516020611c625f395f51905f525f905b8282106103d85750508201602001906103a561036f565b60018160209254838589010152019101906103c1565b60ff1916602080870191909152821515909202850190910192506103a5905061036f565b90600101906102dc565b6064600291049301926102d5565b612710600491049301926102cb565b6305f5e100600891049301926102c0565b662386f26fc10000601091049301926102b3565b6d04ee2d6d415b85acef8100000000602091049301926102a3565b6040935072184f03e93ff9f4daa797ed6e38ed64bf6a1f0160401b90049050600a610288565b346101ec5760403660031901126101ec5760043560048110156101ec576104c4611a8c565b6104d0602435916116d0565b55005b346101ec5760203660031901126101ec5760043560048110156101ec576104fb6020916116d0565b54604051908152f35b346101ec5760803660031901126101ec5761051d61161f565b610525611635565b906044356064359267ffffffffffffffff84116101ec57366023850112156101ec57836004013592610556846116b4565b936105646040519586611692565b80855236602482880101116101ec576020815f9260246105989901838901378601015261059283838361171f565b33611b2b565b005b346101ec5760203660031901126101ec576004355f52600f60205260e060405f206001815491015463ffffffff6040519260ff8116845260ff8160081c16602085015260ff8160101c1660408501526105fc6060850160ff8360181c16611685565b818160201c16608085015260401c1660a083015260c0820152f35b346101ec5760403660031901126101ec5761063061161f565b602435908115158092036101ec5733156106b8576001600160a01b03169081156106a557335f52600560205260405f20825f5260205260405f2060ff1981541660ff83161790556040519081527f17307eab39ab6107e8899845ad3d59bd9653f200f220920489ca2b5937696c3160203392a3005b50630b61174360e31b5f5260045260245ffd5b63a9fbf51f60e01b5f525f60045260245ffd5b346101ec5760203660031901126101ec576004356106f460018060a01b03600c541633146119d3565b805f52600f60205261073760405f2061071663ffffffff825460201c16611a10565b67ffffffff0000000082549160201b169067ffffffff000000001916179055565b5f818152600f602090815260409182902054825163ffffffff82841c8116825291841c909116918101919091527f74209d4994a0e9195d31793fb37ad892582ceb5a3594feb4a454f1ac9e1a214c9190a2005b346101ec575f3660031901126101ec576040515f6001546107aa816116e7565b808452906001811690811561083057506001146107d2575b6103a58361039181850382611692565b91905060015f527fb10e2d527612073b26eecdfd717e6a320cf44b4afac2b0732d9fcbe2b7fa0cf6915f905b808210610816575090915081016020016103916107c2565b9192600181602092548385880101520191019092916107fe565b60ff191660208086019190915291151560051b8401909101915061039190506107c2565b346101ec575f3660031901126101ec57600a546040516001600160a01b039091168152602090f35b346101ec575f3660031901126101ec576020600d54604051908152f35b346101ec575f3660031901126101ec576108b1611a8c565b600a80546001600160a01b031981169091555f906001600160a01b03167f8be0079c531659141344cd1fd0a4f28419497f9722a3daafe3b4186f6b6457e08280a3005b346101ec5760203660031901126101ec57602061091761091261161f565b611a27565b604051908152f35b346101ec5760203660031901126101ec5760043560048110156101ec5760027f9b779b17422d0df92223018b32b4d1fa46e071723d6817e2486d003becc55f005414610fb75760027f9b779b17422d0df92223018b32b4d1fa46e071723d6817e2486d003becc55f0055610992816116d0565b548015610f8157600b546040516323b872dd60e01b81523360048201523060248201526044810192909252602090829060649082905f906001600160a01b03165af1908115610f76575f91610f3b575b5015610efe57600d545f198114610e305760018101600d55602091604051610a0a8482611692565b5f81523315610eeb575f8381526002855260409020546001600160a01b031680158015919082610eba575b335f8181526003895260408082208054600101905588825260028a52812080546001600160a01b0319168317905587919084907fddf252ad1be2c89b69c2b068fc378daa952ba7f163c4a11628f55a4df523b3ef9080a415610e4457600854855f52600987528060405f2055600160401b811015610cc35785610ac1826001610ad994016008556119a7565b90919082549060031b91821b915f19901b1916179055565b338103610df5575b50610de25783333b610cd7575b5050604051838101904282524460408201523360601b606082015283607482015260748152610b1e609482611692565b51902090610b2c8183611ab3565b610b4682610b3d818660081c611ab3565b9460101c611ab3565b926040519160e083019083821067ffffffffffffffff831117610cc35760ff9160405216825260ff8683019116815260ff6040830194168452606082019383855260808301945f865260a08401915f835260c0850192428452885f52600f8a5260ff60405f209651169462ff000061ff008854925160081b16935160101b1693516004811015610caf578a99600197610c4d9663ffffffff96610c289563ff000000899660181b169363ff000000199162ffffff1916171617171789555116879067ffffffff0000000082549160201b169067ffffffff000000001916179055565b5185546bffffffff00000000000000001916911660401b63ffffffff60401b16178455565b51910155610c5e6040518092611685565b7fbd505665ccef6d54e9244e8cc562406f27f4590a1ee39ccc941d462a22527069843392a360017f9b779b17422d0df92223018b32b4d1fa46e071723d6817e2486d003becc55f0055604051908152f35b634e487b7160e01b5f52602160045260245ffd5b634e487b7160e01b5f52604160045260245ffd5b610d0f9160405180938192630a85bd0160e11b83523360048401525f60248401528760448401526080606484015260848301906115fb565b03815f335af15f9181610da2575b50610d7157833d15610d69573d90610d34826116b4565b91610d426040519384611692565b82523d5f8284013e5b81519182610d6657633250574960e11b5f523360045260245ffd5b01fd5b606090610d4b565b6001600160e01b03191663757a42ff60e11b01610d8f578383610aee565b633250574960e11b5f523360045260245ffd5b9091508481813d8311610ddb575b610dba8183611692565b810103126101ec57516001600160e01b0319811681036101ec579085610d1d565b503d610db0565b6339e3563760e11b5f525f60045260245ffd5b610dfe33611a27565b5f198101908111610e3057335f526006875260405f20815f5287528560405f2055855f526007875260405f2055610ae1565b634e487b7160e01b5f52601160045260245ffd5b338114610ad957610e5481611a27565b855f526007875260405f205490825f526006885260405f2091818103610e92575b50865f52600788525f60408120555f5286525f6040812055610ad9565b815f5282895260405f2054815f52838a528060405f20555f526007895260405f205588610e75565b5f8681526004602052604080822080546001600160a01b031916905583825260038952902080545f19019055610a35565b633250574960e11b5f525f60045260245ffd5b60405162461bcd60e51b81526020600482015260156024820152741054915390481d1c985b9cd9995c8819985a5b1959605a1b6044820152606490fd5b90506020813d602011610f6e575b81610f5660209383611692565b810103126101ec575180151581036101ec57826109e2565b3d9150610f49565b6040513d5f823e3d90fd5b60405162461bcd60e51b815260206004820152600e60248201526d496e76616c69642072617269747960901b6044820152606490fd5b633ee5aeb560e01b5f5260045ffd5b346101ec5760203660031901126101ec576020610fe4600435611a58565b6040516001600160a01b039091168152f35b346101ec5760203660031901126101ec5760043561101f60018060a01b03600c541633146119d3565b805f52600f60205261073760405f2061104163ffffffff825460401c16611a10565b63ffffffff60401b82549160401b169063ffffffff60401b1916179055565b346101ec5760203660031901126101ec5760043567ffffffffffffffff81116101ec57366023820112156101ec57806004013567ffffffffffffffff81116101ec5736602482840101116101ec576110b6611a8c565b6110c16010546116e7565b601f8111611171575b505f601f82116001146111065781925f926110f8575b50505f19600383901b1c191660019190911b17601055005b6024925001013582806110e0565b601f198216925f516020611c625f395f51905f52915f5b8581106111565750836001951061113a575b505050811b01601055005b01602401355f19600384901b60f8161c1916905582808061112f565b9092602060018192602487870101358155019401910161111d565b601f820160051c5f516020611c625f395f51905f520190602083106111c0575b601f0160051c5f516020611c625f395f51905f5201905b8181106111b557506110ca565b5f81556001016111a8565b5f516020611c625f395f51905f529150611191565b346101ec5760203660031901126101ec5760043560085481101561120d576111fe6020916119a7565b90549060031b1c604051908152f35b63295f44f760e21b5f525f60045260245260445ffd5b346101ec575f3660031901126101ec57600b546040516001600160a01b039091168152602090f35b346101ec5761059861125c3661164b565b906040519261126c602085611692565b5f845261059283838361171f565b346101ec5760203660031901126101ec5761129361161f565b61129b611a8c565b600c80546001600160a01b0319166001600160a01b039290921691821790557fda05b298405d30faa06fd33fd0f66be4c5b369d0617617baf90412c4bb25fcea5f80a2005b346101ec5760403660031901126101ec576112f961161f565b6024359061130681611a27565b8210156113355760018060a01b03165f52600660205260405f20905f52602052602060405f2054604051908152f35b63295f44f760e21b5f5260018060a01b031660045260245260445ffd5b346101ec576105986113633661164b565b9161171f565b346101ec575f3660031901126101ec576020600854604051908152f35b346101ec5760403660031901126101ec5761139f61161f565b6024356113ab81611a58565b3315158061145d575b80611430575b61141d5781906001600160a01b0384811691167f8c5be1e5ebec7d5bd14f71427d1e84f3dd0314c0f7b2291e5b200ac8c7c3b9255f80a45f90815260046020526040902080546001600160a01b0319166001600160a01b03909216919091179055005b63a9fbf51f60e01b5f523360045260245ffd5b506001600160a01b0381165f90815260056020908152604080832033845290915290205460ff16156113ba565b506001600160a01b0381163314156113b4565b346101ec575f3660031901126101ec57600c546040516001600160a01b039091168152602090f35b346101ec5760203660031901126101ec576004356114b581611a58565b505f526004602052602060018060a01b0360405f205416604051908152f35b346101ec575f3660031901126101ec576040515f5f546114f3816116e7565b8084529060018116908115610830575060011461151a576103a58361039181850382611692565b5f8080527f290decd9548b62a8d60345a988386fc84ba6bc95484008f6362f93160ef3e563939250905b80821061155c575090915081016020016103916107c2565b919260018160209254838588010152019101909291611544565b346101ec5760203660031901126101ec576004359063ffffffff60e01b82168092036101ec5760209163780e9d6360e01b81149081156115b8575b5015158152f35b6380ac58cd60e01b8114915081156115ea575b81156115d9575b50836115b1565b6301ffc9a760e01b149050836115d2565b635b5e139f60e01b811491506115cb565b805180835260209291819084018484015e5f828201840152601f01601f1916010190565b600435906001600160a01b03821682036101ec57565b602435906001600160a01b03821682036101ec57565b60609060031901126101ec576004356001600160a01b03811681036101ec57906024356001600160a01b03811681036101ec579060443590565b906004821015610caf5752565b90601f8019910116810190811067ffffffffffffffff821117610cc357604052565b67ffffffffffffffff8111610cc357601f01601f191660200190565b6004811015610caf575f52600e60205260405f2090565b90600182811c92168015611715575b602083101461170157565b634e487b7160e01b5f52602260045260245ffd5b91607f16916116f6565b9091906001600160a01b0383168015610eeb575f838152600260205260409020546001600160a01b03169333151580611917575b50841580156118e4575b825f52600360205260405f2060018154019055845f52600260205260405f20836bffffffffffffffffffffffff60a01b8254161790558483877fddf252ad1be2c89b69c2b068fc378daa952ba7f163c4a11628f55a4df523b3ef5f80a41561186757600854845f5260096020528060405f2055600160401b811015610cc35784610ac18260016117f094016008556119a7565b818503611827575b50506001600160a01b031680830361180f57505050565b6364283d7b60e01b5f5260045260245260445260645ffd5b61183090611a27565b5f19810191908211610e30575f52600660205260405f20815f526020528260405f2055825f52600760205260405f20555f806117f8565b8482146117f05761187785611a27565b845f52600760205260405f205490865f52600660205260405f20918181036118b9575b50855f5260076020525f60408120555f526020525f60408120556117f0565b815f528260205260405f2054815f52836020528060405f20555f52600760205260405f20555f61189a565b5f85815260046020526040902080546001600160a01b0319169055855f52600360205260405f205f19815401905561175d565b80611956575b15611928575f611753565b838561194057637e27328960e01b5f5260045260245ffd5b63177e802f60e01b5f523360045260245260445ffd5b503385148015611985575b8061191d57505f848152600460205260409020546001600160a01b0316331461191d565b505f85815260056020908152604080832033845290915290205460ff16611961565b6008548110156119bf5760085f5260205f2001905f90565b634e487b7160e01b5f52603260045260245ffd5b156119da57565b60405162461bcd60e51b815260206004820152600e60248201526d4f6e6c79204172656e6147616d6560901b6044820152606490fd5b63ffffffff1663ffffffff8114610e305760010190565b6001600160a01b03168015611a45575f52600360205260405f205490565b6322718ad960e21b5f525f60045260245ffd5b5f818152600260205260409020546001600160a01b0316908115611a7a575090565b637e27328960e01b5f5260045260245ffd5b600a546001600160a01b03163303611aa057565b63118cdaa760e01b5f523360045260245ffd5b906004811015610caf5780611afa5750601460ff601e5b16908115611ae65760ff1691068101809111610e305760ff1690565b634e487b7160e01b5f52601260045260245ffd5b60018103611b0e5750602860ff601e611aca565b600203611b2057603c60ff6019611aca565b605060ff6014611aca565b823b611b39575b5050505050565b604051630a85bd0160e11b81526001600160a01b039182166004820152918116602483015260448201939093526080606482015291169160209082908190611b859060848301906115fb565b03815f865af15f9181611c1c575b50611be857503d15611be1573d611ba9816116b4565b90611bb76040519283611692565b81523d5f602083013e5b80519081611bdc5782633250574960e11b5f5260045260245ffd5b602001fd5b6060611bc1565b6001600160e01b03191663757a42ff60e11b01611c0a57505f80808080611b32565b633250574960e11b5f5260045260245ffd5b9091506020813d602011611c59575b81611c3860209383611692565b810103126101ec57516001600160e01b0319811681036101ec57905f611b93565b3d9150611c2b56fe1b6847dc741a1b0cd08d278845f9d819d87b734759afb55fe2de5cb82a9ae672a264697066735822122077c9e9fb5be6aae6d2036a19089671f0c08813eee469920c943bc0d6fa0e88e564736f6c634300081c0033","opcodes":"PUSH1 0x80 PUSH1 0x40 MSTORE CALLVALUE PUSH2 0x5C2 JUMPI PUSH2 0x22A3 DUP1 CODESIZE SUB DUP1 PUSH2 0x19 DUP2 PUSH2 0x5C6 JUMP JUMPDEST SWAP3 DUP4 CODECOPY DUP2 ADD PUSH1 0x40 DUP3 DUP3 SUB SLT PUSH2 0x5C2 JUMPI DUP2 MLOAD PUSH1 0x1 PUSH1 0x1 PUSH1 0xA0 SHL SUB DUP2 AND SWAP3 SWAP1 DUP4 SWAP1 SUB PUSH2 0x5C2 JUMPI PUSH1 0x20 DUP2 ADD MLOAD SWAP1 PUSH1 0x1 PUSH1 0x1 PUSH1 0x40 SHL SUB DUP3 GT PUSH2 0x5C2 JUMPI ADD DUP2 PUSH1 0x1F DUP3 ADD SLT ISZERO PUSH2 0x5C2 JUMPI DUP1 MLOAD SWAP1 PUSH1 0x1 PUSH1 0x1 PUSH1 0x40 SHL SUB DUP3 GT PUSH2 0x3DB JUMPI PUSH2 0x81 PUSH1 0x1F DUP4 ADD PUSH1 0x1F NOT AND PUSH1 0x20 ADD PUSH2 0x5C6 JUMP JUMPDEST SWAP3 DUP3 DUP5 MSTORE PUSH1 0x20 DUP4 DUP4 ADD ADD GT PUSH2 0x5C2 JUMPI DUP2 PUSH0 SWAP3 PUSH1 0x20 DUP1 SWAP4 ADD DUP4 DUP7 ADD MCOPY DUP4 ADD ADD MSTORE PUSH1 0x40 PUSH2 0xAB DUP2 PUSH2 0x5C6 JUMP JUMPDEST SWAP3 PUSH1 0xD DUP5 MSTORE PUSH13 0x20B932B730902334B3B43A32B9 PUSH1 0x99 SHL PUSH1 0x20 DUP6 ADD MSTORE PUSH2 0xCF DUP3 PUSH2 0x5C6 JUMP JUMPDEST PUSH1 0x8 DUP2 MSTORE PUSH8 0x20A324A3A42A22A9 PUSH1 0xC1 SHL PUSH1 0x20 DUP3 ADD MSTORE DUP5 MLOAD SWAP1 SWAP5 PUSH1 0x1 PUSH1 0x1 PUSH1 0x40 SHL SUB DUP3 GT PUSH2 0x3DB JUMPI PUSH0 SLOAD SWAP1 PUSH1 0x1 DUP3 DUP2 SHR SWAP3 AND DUP1 ISZERO PUSH2 0x5B8 JUMPI JUMPDEST PUSH1 0x20 DUP4 LT EQ PUSH2 0x3BD JUMPI DUP2 PUSH1 0x1F DUP5 SWAP4 GT PUSH2 0x54B JUMPI JUMPDEST POP PUSH1 0x20 SWAP1 PUSH1 0x1F DUP4 GT PUSH1 0x1 EQ PUSH2 0x4E8 JUMPI PUSH0 SWAP3 PUSH2 0x4DD JUMPI JUMPDEST POP POP DUP2 PUSH1 0x1 SHL SWAP2 PUSH0 NOT SWAP1 PUSH1 0x3 SHL SHR NOT AND OR PUSH0 SSTORE JUMPDEST DUP4 MLOAD PUSH1 0x1 PUSH1 0x1 PUSH1 0x40 SHL SUB DUP2 GT PUSH2 0x3DB JUMPI PUSH1 0x1 SLOAD PUSH1 0x1 DUP2 DUP2 SHR SWAP2 AND DUP1 ISZERO PUSH2 0x4D3 JUMPI JUMPDEST PUSH1 0x20 DUP3 LT EQ PUSH2 0x3BD JUMPI PUSH1 0x1F DUP2 GT PUSH2 0x470 JUMPI JUMPDEST POP PUSH1 0x20 SWAP5 PUSH1 0x1F DUP3 GT PUSH1 0x1 EQ PUSH2 0x40D JUMPI SWAP5 DUP2 SWAP3 SWAP4 SWAP5 SWAP6 PUSH0 SWAP3 PUSH2 0x402 JUMPI JUMPDEST POP POP DUP2 PUSH1 0x1 SHL SWAP2 PUSH0 NOT SWAP1 PUSH1 0x3 SHL SHR NOT AND OR PUSH1 0x1 SSTORE JUMPDEST CALLER ISZERO PUSH2 0x3EF JUMPI PUSH1 0xA DUP1 SLOAD CALLER PUSH1 0x1 PUSH1 0x1 PUSH1 0xA0 SHL SUB NOT DUP3 AND DUP2 OR SWAP1 SWAP3 SSTORE PUSH1 0x1 PUSH1 0x1 PUSH1 0xA0 SHL SUB AND PUSH32 0x8BE0079C531659141344CD1FD0A4F28419497F9722A3DAAFE3B4186F6B6457E0 PUSH0 DUP1 LOG3 PUSH1 0x1 PUSH32 0x9B779B17422D0DF92223018B32B4D1FA46E071723D6817E2486D003BECC55F00 DUP2 SWAP1 SSTORE PUSH1 0xD SSTORE PUSH1 0xB DUP1 SLOAD PUSH1 0x1 PUSH1 0x1 PUSH1 0xA0 SHL SUB NOT AND SWAP2 SWAP1 SWAP2 OR SWAP1 SSTORE DUP2 MLOAD PUSH1 0x1 PUSH1 0x1 PUSH1 0x40 SHL SUB DUP2 GT PUSH2 0x3DB JUMPI PUSH1 0x10 SLOAD PUSH1 0x1 DUP2 DUP2 SHR SWAP2 AND DUP1 ISZERO PUSH2 0x3D1 JUMPI JUMPDEST PUSH1 0x20 DUP3 LT EQ PUSH2 0x3BD JUMPI PUSH1 0x1F DUP2 GT PUSH2 0x35A JUMPI JUMPDEST POP PUSH1 0x20 SWAP3 PUSH1 0x1F DUP3 GT PUSH1 0x1 EQ PUSH2 0x2F9 JUMPI SWAP3 DUP2 SWAP3 SWAP4 PUSH0 SWAP3 PUSH2 0x2EE JUMPI JUMPDEST POP POP DUP2 PUSH1 0x1 SHL SWAP2 PUSH0 NOT SWAP1 PUSH1 0x3 SHL SHR NOT AND OR PUSH1 0x10 SSTORE JUMPDEST PUSH0 DUP1 DUP1 MSTORE PUSH1 0xE PUSH1 0x20 MSTORE DUP2 DUP2 KECCAK256 PUSH9 0x2B5E3AF16B1880000 SWAP1 SSTORE PUSH1 0x1 DUP2 MSTORE DUP2 DUP2 KECCAK256 PUSH9 0x821AB0D4414980000 SWAP1 SSTORE PUSH1 0x2 DUP2 MSTORE DUP2 DUP2 KECCAK256 PUSH9 0x15AF1D78B58C400000 SWAP1 SSTORE PUSH1 0x3 DUP2 MSTORE DUP2 SWAP1 KECCAK256 PUSH9 0x3635C9ADC5DEA00000 SWAP1 SSTORE MLOAD PUSH2 0x1CB7 SWAP1 DUP2 PUSH2 0x5EC DUP3 CODECOPY RETURN JUMPDEST ADD MLOAD SWAP1 POP PUSH0 DUP1 PUSH2 0x27B JUMP JUMPDEST PUSH1 0x1F NOT DUP3 AND SWAP4 PUSH1 0x10 PUSH0 MSTORE DUP1 PUSH0 KECCAK256 SWAP2 PUSH0 JUMPDEST DUP7 DUP2 LT PUSH2 0x342 JUMPI POP DUP4 PUSH1 0x1 SWAP6 SWAP7 LT PUSH2 0x32A JUMPI JUMPDEST POP POP POP DUP2 SHL ADD PUSH1 0x10 SSTORE PUSH2 0x290 JUMP JUMPDEST ADD MLOAD PUSH0 NOT PUSH1 0xF8 DUP5 PUSH1 0x3 SHL AND SHR NOT AND SWAP1 SSTORE PUSH0 DUP1 DUP1 PUSH2 0x31C JUMP JUMPDEST SWAP2 SWAP3 PUSH1 0x20 PUSH1 0x1 DUP2 SWAP3 DUP7 DUP6 ADD MLOAD DUP2 SSTORE ADD SWAP5 ADD SWAP3 ADD PUSH2 0x309 JUMP JUMPDEST PUSH1 0x10 PUSH0 MSTORE PUSH32 0x1B6847DC741A1B0CD08D278845F9D819D87B734759AFB55FE2DE5CB82A9AE672 PUSH1 0x1F DUP4 ADD PUSH1 0x5 SHR DUP2 ADD SWAP2 PUSH1 0x20 DUP5 LT PUSH2 0x3B3 JUMPI JUMPDEST PUSH1 0x1F ADD PUSH1 0x5 SHR ADD SWAP1 JUMPDEST DUP2 DUP2 LT PUSH2 0x3A8 JUMPI POP PUSH2 0x261 JUMP JUMPDEST PUSH0 DUP2 SSTORE PUSH1 0x1 ADD PUSH2 0x39B JUMP JUMPDEST SWAP1 SWAP2 POP DUP2 SWAP1 PUSH2 0x392 JUMP JUMPDEST PUSH4 0x4E487B71 PUSH1 0xE0 SHL PUSH0 MSTORE PUSH1 0x22 PUSH1 0x4 MSTORE PUSH1 0x24 PUSH0 REVERT JUMPDEST SWAP1 PUSH1 0x7F AND SWAP1 PUSH2 0x24F JUMP JUMPDEST PUSH4 0x4E487B71 PUSH1 0xE0 SHL PUSH0 MSTORE PUSH1 0x41 PUSH1 0x4 MSTORE PUSH1 0x24 PUSH0 REVERT JUMPDEST PUSH4 0x1E4FBDF7 PUSH1 0xE0 SHL PUSH0 MSTORE PUSH0 PUSH1 0x4 MSTORE PUSH1 0x24 PUSH0 REVERT JUMPDEST ADD MLOAD SWAP1 POP PUSH0 DUP1 PUSH2 0x194 JUMP JUMPDEST PUSH1 0x1F NOT DUP3 AND SWAP6 PUSH1 0x1 PUSH0 MSTORE DUP1 PUSH0 KECCAK256 SWAP2 PUSH0 JUMPDEST DUP9 DUP2 LT PUSH2 0x458 JUMPI POP DUP4 PUSH1 0x1 SWAP6 SWAP7 SWAP8 SWAP9 LT PUSH2 0x440 JUMPI JUMPDEST POP POP POP DUP2 SHL ADD PUSH1 0x1 SSTORE PUSH2 0x1A9 JUMP JUMPDEST ADD MLOAD PUSH0 NOT PUSH1 0xF8 DUP5 PUSH1 0x3 SHL AND SHR NOT AND SWAP1 SSTORE PUSH0 DUP1 DUP1 PUSH2 0x432 JUMP JUMPDEST SWAP2 SWAP3 PUSH1 0x20 PUSH1 0x1 DUP2 SWAP3 DUP7 DUP6 ADD MLOAD DUP2 SSTORE ADD SWAP5 ADD SWAP3 ADD PUSH2 0x41D JUMP JUMPDEST PUSH1 0x1 PUSH0 MSTORE PUSH32 0xB10E2D527612073B26EECDFD717E6A320CF44B4AFAC2B0732D9FCBE2B7FA0CF6 PUSH1 0x1F DUP4 ADD PUSH1 0x5 SHR DUP2 ADD SWAP2 PUSH1 0x20 DUP5 LT PUSH2 0x4C9 JUMPI JUMPDEST PUSH1 0x1F ADD PUSH1 0x5 SHR ADD SWAP1 JUMPDEST DUP2 DUP2 LT PUSH2 0x4BE JUMPI POP PUSH2 0x178 JUMP JUMPDEST PUSH0 DUP2 SSTORE PUSH1 0x1 ADD PUSH2 0x4B1 JUMP JUMPDEST SWAP1 SWAP2 POP DUP2 SWAP1 PUSH2 0x4A8 JUMP JUMPDEST SWAP1 PUSH1 0x7F AND SWAP1 PUSH2 0x166 JUMP JUMPDEST ADD MLOAD SWAP1 POP PUSH0 DUP1 PUSH2 0x131 JUMP JUMPDEST PUSH0 DUP1 DUP1 MSTORE DUP3 DUP2 KECCAK256 SWAP4 POP PUSH1 0x1F NOT DUP6 AND SWAP1 JUMPDEST DUP2 DUP2 LT PUSH2 0x533 JUMPI POP SWAP1 DUP5 PUSH1 0x1 SWAP6 SWAP5 SWAP4 SWAP3 LT PUSH2 0x51B JUMPI JUMPDEST POP POP POP DUP2 SHL ADD PUSH0 SSTORE PUSH2 0x145 JUMP JUMPDEST ADD MLOAD PUSH0 NOT PUSH1 0xF8 DUP5 PUSH1 0x3 SHL AND SHR NOT AND SWAP1 SSTORE PUSH0 DUP1 DUP1 PUSH2 0x50E JUMP JUMPDEST SWAP3 SWAP4 PUSH1 0x20 PUSH1 0x1 DUP2 SWAP3 DUP8 DUP7 ADD MLOAD DUP2 SSTORE ADD SWAP6 ADD SWAP4 ADD PUSH2 0x4F8 JUMP JUMPDEST PUSH0 DUP1 MSTORE SWAP1 SWAP2 POP PUSH32 0x290DECD9548B62A8D60345A988386FC84BA6BC95484008F6362F93160EF3E563 PUSH1 0x1F DUP5 ADD PUSH1 0x5 SHR DUP2 ADD SWAP2 PUSH1 0x20 DUP6 LT PUSH2 0x5AE JUMPI JUMPDEST SWAP1 PUSH1 0x1F DUP6 SWAP5 SWAP4 SWAP3 ADD PUSH1 0x5 SHR ADD SWAP1 JUMPDEST DUP2 DUP2 LT PUSH2 0x5A0 JUMPI POP PUSH2 0x11B JUMP JUMPDEST PUSH0 DUP2 SSTORE DUP5 SWAP4 POP PUSH1 0x1 ADD PUSH2 0x593 JUMP JUMPDEST SWAP1 SWAP2 POP DUP2 SWAP1 PUSH2 0x585 JUMP JUMPDEST SWAP2 PUSH1 0x7F AND SWAP2 PUSH2 0x107 JUMP JUMPDEST PUSH0 DUP1 REVERT JUMPDEST PUSH1 0x40 MLOAD SWAP2 SWAP1 PUSH1 0x1F ADD PUSH1 0x1F NOT AND DUP3 ADD PUSH1 0x1 PUSH1 0x1 PUSH1 0x40 SHL SUB DUP2 GT DUP4 DUP3 LT OR PUSH2 0x3DB JUMPI PUSH1 0x40 MSTORE JUMP INVALID PUSH1 0x80 DUP1 PUSH1 0x40 MSTORE PUSH1 0x4 CALLDATASIZE LT ISZERO PUSH2 0x12 JUMPI PUSH0 DUP1 REVERT JUMPDEST PUSH0 CALLDATALOAD PUSH1 0xE0 SHR SWAP1 DUP2 PUSH4 0x1FFC9A7 EQ PUSH2 0x1576 JUMPI POP DUP1 PUSH4 0x6FDDE03 EQ PUSH2 0x14D4 JUMPI DUP1 PUSH4 0x81812FC EQ PUSH2 0x1498 JUMPI DUP1 PUSH4 0x82A8C4E EQ PUSH2 0x1470 JUMPI DUP1 PUSH4 0x95EA7B3 EQ PUSH2 0x1386 JUMPI DUP1 PUSH4 0x18160DDD EQ PUSH2 0x1369 JUMPI DUP1 PUSH4 0x23B872DD EQ PUSH2 0x1352 JUMPI DUP1 PUSH4 0x2F745C59 EQ PUSH2 0x12E0 JUMPI DUP1 PUSH4 0x368E0ED8 EQ PUSH2 0x127A JUMPI DUP1 PUSH4 0x42842E0E EQ PUSH2 0x124B JUMPI DUP1 PUSH4 0x48F7D5AB EQ PUSH2 0x1223 JUMPI DUP1 PUSH4 0x4F6CCCE7 EQ PUSH2 0x11D5 JUMPI DUP1 PUSH4 0x55F804B3 EQ PUSH2 0x1060 JUMPI DUP1 PUSH4 0x6022743E EQ PUSH2 0xFF6 JUMPI DUP1 PUSH4 0x6352211E EQ PUSH2 0xFC6 JUMPI DUP1 PUSH4 0x6ECD2306 EQ PUSH2 0x91F JUMPI DUP1 PUSH4 0x70A08231 EQ PUSH2 0x8F4 JUMPI DUP1 PUSH4 0x715018A6 EQ PUSH2 0x899 JUMPI DUP1 PUSH4 0x75794A3C EQ PUSH2 0x87C JUMPI DUP1 PUSH4 0x8DA5CB5B EQ PUSH2 0x854 JUMPI DUP1 PUSH4 0x95D89B41 EQ PUSH2 0x78A JUMPI DUP1 PUSH4 0x9E6611A5 EQ PUSH2 0x6CB JUMPI DUP1 PUSH4 0xA22CB465 EQ PUSH2 0x617 JUMPI DUP1 PUSH4 0xAD217AE5 EQ PUSH2 0x59A JUMPI DUP1 PUSH4 0xB88D4FDE EQ PUSH2 0x504 JUMPI DUP1 PUSH4 0xBD96237D EQ PUSH2 0x4D3 JUMPI DUP1 PUSH4 0xC4BE7153 EQ PUSH2 0x49F JUMPI DUP1 PUSH4 0xC87B56DD EQ PUSH2 0x247 JUMPI DUP1 PUSH4 0xE985E9C5 EQ PUSH2 0x1F0 JUMPI PUSH4 0xF2FDE38B EQ PUSH2 0x166 JUMPI PUSH0 DUP1 REVERT JUMPDEST CALLVALUE PUSH2 0x1EC JUMPI PUSH1 0x20 CALLDATASIZE PUSH1 0x3 NOT ADD SLT PUSH2 0x1EC JUMPI PUSH2 0x17F PUSH2 0x161F JUMP JUMPDEST PUSH2 0x187 PUSH2 0x1A8C JUMP JUMPDEST PUSH1 0x1 PUSH1 0x1 PUSH1 0xA0 SHL SUB AND DUP1 ISZERO PUSH2 0x1D9 JUMPI PUSH1 0xA DUP1 SLOAD PUSH1 0x1 PUSH1 0x1 PUSH1 0xA0 SHL SUB NOT DUP2 AND DUP4 OR SWAP1 SWAP2 SSTORE PUSH1 0x1 PUSH1 0x1 PUSH1 0xA0 SHL SUB AND PUSH32 0x8BE0079C531659141344CD1FD0A4F28419497F9722A3DAAFE3B4186F6B6457E0 PUSH0 DUP1 LOG3 STOP JUMPDEST PUSH4 0x1E4FBDF7 PUSH1 0xE0 SHL PUSH0 MSTORE PUSH0 PUSH1 0x4 MSTORE PUSH1 0x24 PUSH0 REVERT JUMPDEST PUSH0 DUP1 REVERT JUMPDEST CALLVALUE PUSH2 0x1EC JUMPI PUSH1 0x40 CALLDATASIZE PUSH1 0x3 NOT ADD SLT PUSH2 0x1EC JUMPI PUSH2 0x209 PUSH2 0x161F JUMP JUMPDEST PUSH2 0x211 PUSH2 0x1635 JUMP JUMPDEST SWAP1 PUSH1 0x1 DUP1 PUSH1 0xA0 SHL SUB AND PUSH0 MSTORE PUSH1 0x5 PUSH1 0x20 MSTORE PUSH1 0x40 PUSH0 KECCAK256 SWAP1 PUSH1 0x1 DUP1 PUSH1 0xA0 SHL SUB AND PUSH0 MSTORE PUSH1 0x20 MSTORE PUSH1 0x20 PUSH1 0xFF PUSH1 0x40 PUSH0 KECCAK256 SLOAD AND PUSH1 0x40 MLOAD SWAP1 ISZERO ISZERO DUP2 MSTORE RETURN JUMPDEST CALLVALUE PUSH2 0x1EC JUMPI PUSH1 0x20 CALLDATASIZE PUSH1 0x3 NOT ADD SLT PUSH2 0x1EC JUMPI PUSH1 0x4 CALLDATALOAD PUSH2 0x264 DUP2 PUSH2 0x1A58 JUMP JUMPDEST POP DUP1 DUP2 PUSH0 SWAP3 PUSH19 0x184F03E93FF9F4DAA797ED6E38ED64BF6A1F01 PUSH1 0x40 SHL DUP2 LT ISZERO PUSH2 0x479 JUMPI JUMPDEST POP DUP1 PUSH14 0x4EE2D6D415B85ACEF8100000000 PUSH1 0xA SWAP3 LT ISZERO PUSH2 0x45E JUMPI JUMPDEST PUSH7 0x2386F26FC10000 DUP2 LT ISZERO PUSH2 0x44A JUMPI JUMPDEST PUSH4 0x5F5E100 DUP2 LT ISZERO PUSH2 0x439 JUMPI JUMPDEST PUSH2 0x2710 DUP2 LT ISZERO PUSH2 0x42A JUMPI JUMPDEST PUSH1 0x64 DUP2 LT ISZERO PUSH2 0x41C JUMPI JUMPDEST LT ISZERO PUSH2 0x412 JUMPI JUMPDEST PUSH1 0x1 DUP3 ADD SWAP1 PUSH1 0xA PUSH1 0x21 PUSH2 0x307 PUSH2 0x2F1 DUP6 PUSH2 0x16B4 JUMP JUMPDEST SWAP5 PUSH2 0x2FF PUSH1 0x40 MLOAD SWAP7 DUP8 PUSH2 0x1692 JUMP JUMPDEST DUP1 DUP7 MSTORE PUSH2 0x16B4 JUMP JUMPDEST PUSH1 0x20 DUP6 ADD SWAP6 SWAP1 PUSH1 0x1F NOT ADD CALLDATASIZE DUP8 CALLDATACOPY DUP5 ADD ADD JUMPDEST PUSH0 NOT ADD SWAP2 PUSH16 0x181899199A1A9B1B9C1CB0B131B232B3 PUSH1 0x81 SHL DUP3 DUP3 MOD BYTE DUP4 MSTORE8 DIV DUP1 ISZERO PUSH2 0x346 JUMPI PUSH1 0xA SWAP1 SWAP2 PUSH2 0x318 JUMP JUMPDEST POP POP PUSH1 0x40 MLOAD SWAP1 PUSH0 SWAP1 PUSH1 0x10 SLOAD PUSH2 0x35A DUP2 PUSH2 0x16E7 JUMP JUMPDEST SWAP1 PUSH1 0x1 DUP2 AND SWAP1 DUP2 ISZERO PUSH2 0x3EE JUMPI POP PUSH1 0x1 EQ PUSH2 0x3A9 JUMPI JUMPDEST POP PUSH2 0x3A5 SWAP4 PUSH2 0x391 SWAP3 DUP5 SWAP3 MLOAD DUP1 SWAP3 DUP3 MCOPY ADD PUSH0 DUP2 MSTORE SUB PUSH1 0x1F NOT DUP2 ADD DUP4 MSTORE DUP3 PUSH2 0x1692 JUMP JUMPDEST PUSH1 0x40 MLOAD SWAP2 DUP3 SWAP2 PUSH1 0x20 DUP4 MSTORE PUSH1 0x20 DUP4 ADD SWAP1 PUSH2 0x15FB JUMP JUMPDEST SUB SWAP1 RETURN JUMPDEST SWAP1 SWAP2 POP PUSH1 0x10 PUSH0 MSTORE PUSH0 MLOAD PUSH1 0x20 PUSH2 0x1C62 PUSH0 CODECOPY PUSH0 MLOAD SWAP1 PUSH0 MSTORE PUSH0 SWAP1 JUMPDEST DUP3 DUP3 LT PUSH2 0x3D8 JUMPI POP POP DUP3 ADD PUSH1 0x20 ADD SWAP1 PUSH2 0x3A5 PUSH2 0x36F JUMP JUMPDEST PUSH1 0x1 DUP2 PUSH1 0x20 SWAP3 SLOAD DUP4 DUP6 DUP10 ADD ADD MSTORE ADD SWAP2 ADD SWAP1 PUSH2 0x3C1 JUMP JUMPDEST PUSH1 0xFF NOT AND PUSH1 0x20 DUP1 DUP8 ADD SWAP2 SWAP1 SWAP2 MSTORE DUP3 ISZERO ISZERO SWAP1 SWAP3 MUL DUP6 ADD SWAP1 SWAP2 ADD SWAP3 POP PUSH2 0x3A5 SWAP1 POP PUSH2 0x36F JUMP JUMPDEST SWAP1 PUSH1 0x1 ADD SWAP1 PUSH2 0x2DC JUMP JUMPDEST PUSH1 0x64 PUSH1 0x2 SWAP2 DIV SWAP4 ADD SWAP3 PUSH2 0x2D5 JUMP JUMPDEST PUSH2 0x2710 PUSH1 0x4 SWAP2 DIV SWAP4 ADD SWAP3 PUSH2 0x2CB JUMP JUMPDEST PUSH4 0x5F5E100 PUSH1 0x8 SWAP2 DIV SWAP4 ADD SWAP3 PUSH2 0x2C0 JUMP JUMPDEST PUSH7 0x2386F26FC10000 PUSH1 0x10 SWAP2 DIV SWAP4 ADD SWAP3 PUSH2 0x2B3 JUMP JUMPDEST PUSH14 0x4EE2D6D415B85ACEF8100000000 PUSH1 0x20 SWAP2 DIV SWAP4 ADD SWAP3 PUSH2 0x2A3 JUMP JUMPDEST PUSH1 0x40 SWAP4 POP PUSH19 0x184F03E93FF9F4DAA797ED6E38ED64BF6A1F01 PUSH1 0x40 SHL SWAP1 DIV SWAP1 POP PUSH1 0xA PUSH2 0x288 JUMP JUMPDEST CALLVALUE PUSH2 0x1EC JUMPI PUSH1 0x40 CALLDATASIZE PUSH1 0x3 NOT ADD SLT PUSH2 0x1EC JUMPI PUSH1 0x4 CALLDATALOAD PUSH1 0x4 DUP2 LT ISZERO PUSH2 0x1EC JUMPI PUSH2 0x4C4 PUSH2 0x1A8C JUMP JUMPDEST PUSH2 0x4D0 PUSH1 0x24 CALLDATALOAD SWAP2 PUSH2 0x16D0 JUMP JUMPDEST SSTORE STOP JUMPDEST CALLVALUE PUSH2 0x1EC JUMPI PUSH1 0x20 CALLDATASIZE PUSH1 0x3 NOT ADD SLT PUSH2 0x1EC JUMPI PUSH1 0x4 CALLDATALOAD PUSH1 0x4 DUP2 LT ISZERO PUSH2 0x1EC JUMPI PUSH2 0x4FB PUSH1 0x20 SWAP2 PUSH2 0x16D0 JUMP JUMPDEST SLOAD PUSH1 0x40 MLOAD SWAP1 DUP2 MSTORE RETURN JUMPDEST CALLVALUE PUSH2 0x1EC JUMPI PUSH1 0x80 CALLDATASIZE PUSH1 0x3 NOT ADD SLT PUSH2 0x1EC JUMPI PUSH2 0x51D PUSH2 0x161F JUMP JUMPDEST PUSH2 0x525 PUSH2 0x1635 JUMP JUMPDEST SWAP1 PUSH1 0x44 CALLDATALOAD PUSH1 0x64 CALLDATALOAD SWAP3 PUSH8 0xFFFFFFFFFFFFFFFF DUP5 GT PUSH2 0x1EC JUMPI CALLDATASIZE PUSH1 0x23 DUP6 ADD SLT ISZERO PUSH2 0x1EC JUMPI DUP4 PUSH1 0x4 ADD CALLDATALOAD SWAP3 PUSH2 0x556 DUP5 PUSH2 0x16B4 JUMP JUMPDEST SWAP4 PUSH2 0x564 PUSH1 0x40 MLOAD SWAP6 DUP7 PUSH2 0x1692 JUMP JUMPDEST DUP1 DUP6 MSTORE CALLDATASIZE PUSH1 0x24 DUP3 DUP9 ADD ADD GT PUSH2 0x1EC JUMPI PUSH1 0x20 DUP2 PUSH0 SWAP3 PUSH1 0x24 PUSH2 0x598 SWAP10 ADD DUP4 DUP10 ADD CALLDATACOPY DUP7 ADD ADD MSTORE PUSH2 0x592 DUP4 DUP4 DUP4 PUSH2 0x171F JUMP JUMPDEST CALLER PUSH2 0x1B2B JUMP JUMPDEST STOP JUMPDEST CALLVALUE PUSH2 0x1EC JUMPI PUSH1 0x20 CALLDATASIZE PUSH1 0x3 NOT ADD SLT PUSH2 0x1EC JUMPI PUSH1 0x4 CALLDATALOAD PUSH0 MSTORE PUSH1 0xF PUSH1 0x20 MSTORE PUSH1 0xE0 PUSH1 0x40 PUSH0 KECCAK256 PUSH1 0x1 DUP2 SLOAD SWAP2 ADD SLOAD PUSH4 0xFFFFFFFF PUSH1 0x40 MLOAD SWAP3 PUSH1 0xFF DUP2 AND DUP5 MSTORE PUSH1 0xFF DUP2 PUSH1 0x8 SHR AND PUSH1 0x20 DUP6 ADD MSTORE PUSH1 0xFF DUP2 PUSH1 0x10 SHR AND PUSH1 0x40 DUP6 ADD MSTORE PUSH2 0x5FC PUSH1 0x60 DUP6 ADD PUSH1 0xFF DUP4 PUSH1 0x18 SHR AND PUSH2 0x1685 JUMP JUMPDEST DUP2 DUP2 PUSH1 0x20 SHR AND PUSH1 0x80 DUP6 ADD MSTORE PUSH1 0x40 SHR AND PUSH1 0xA0 DUP4 ADD MSTORE PUSH1 0xC0 DUP3 ADD MSTORE RETURN JUMPDEST CALLVALUE PUSH2 0x1EC JUMPI PUSH1 0x40 CALLDATASIZE PUSH1 0x3 NOT ADD SLT PUSH2 0x1EC JUMPI PUSH2 0x630 PUSH2 0x161F JUMP JUMPDEST PUSH1 0x24 CALLDATALOAD SWAP1 DUP2 ISZERO ISZERO DUP1 SWAP3 SUB PUSH2 0x1EC JUMPI CALLER ISZERO PUSH2 0x6B8 JUMPI PUSH1 0x1 PUSH1 0x1 PUSH1 0xA0 SHL SUB AND SWAP1 DUP2 ISZERO PUSH2 0x6A5 JUMPI CALLER PUSH0 MSTORE PUSH1 0x5 PUSH1 0x20 MSTORE PUSH1 0x40 PUSH0 KECCAK256 DUP3 PUSH0 MSTORE PUSH1 0x20 MSTORE PUSH1 0x40 PUSH0 KECCAK256 PUSH1 0xFF NOT DUP2 SLOAD AND PUSH1 0xFF DUP4 AND OR SWAP1 SSTORE PUSH1 0x40 MLOAD SWAP1 DUP2 MSTORE PUSH32 0x17307EAB39AB6107E8899845AD3D59BD9653F200F220920489CA2B5937696C31 PUSH1 0x20 CALLER SWAP3 LOG3 STOP JUMPDEST POP PUSH4 0xB611743 PUSH1 0xE3 SHL PUSH0 MSTORE PUSH1 0x4 MSTORE PUSH1 0x24 PUSH0 REVERT JUMPDEST PUSH4 0xA9FBF51F PUSH1 0xE0 SHL PUSH0 MSTORE PUSH0 PUSH1 0x4 MSTORE PUSH1 0x24 PUSH0 REVERT JUMPDEST CALLVALUE PUSH2 0x1EC JUMPI PUSH1 0x20 CALLDATASIZE PUSH1 0x3 NOT ADD SLT PUSH2 0x1EC JUMPI PUSH1 0x4 CALLDATALOAD PUSH2 0x6F4 PUSH1 0x1 DUP1 PUSH1 0xA0 SHL SUB PUSH1 0xC SLOAD AND CALLER EQ PUSH2 0x19D3 JUMP JUMPDEST DUP1 PUSH0 MSTORE PUSH1 0xF PUSH1 0x20 MSTORE PUSH2 0x737 PUSH1 0x40 PUSH0 KECCAK256 PUSH2 0x716 PUSH4 0xFFFFFFFF DUP3 SLOAD PUSH1 0x20 SHR AND PUSH2 0x1A10 JUMP JUMPDEST PUSH8 0xFFFFFFFF00000000 DUP3 SLOAD SWAP2 PUSH1 0x20 SHL AND SWAP1 PUSH8 0xFFFFFFFF00000000 NOT AND OR SWAP1 SSTORE JUMP JUMPDEST PUSH0 DUP2 DUP2 MSTORE PUSH1 0xF PUSH1 0x20 SWAP1 DUP2 MSTORE PUSH1 0x40 SWAP2 DUP3 SWAP1 KECCAK256 SLOAD DUP3 MLOAD PUSH4 0xFFFFFFFF DUP3 DUP5 SHR DUP2 AND DUP3 MSTORE SWAP2 DUP5 SHR SWAP1 SWAP2 AND SWAP2 DUP2 ADD SWAP2 SWAP1 SWAP2 MSTORE PUSH32 0x74209D4994A0E9195D31793FB37AD892582CEB5A3594FEB4A454F1AC9E1A214C SWAP2 SWAP1 LOG2 STOP JUMPDEST CALLVALUE PUSH2 0x1EC JUMPI PUSH0 CALLDATASIZE PUSH1 0x3 NOT ADD SLT PUSH2 0x1EC JUMPI PUSH1 0x40 MLOAD PUSH0 PUSH1 0x1 SLOAD PUSH2 0x7AA DUP2 PUSH2 0x16E7 JUMP JUMPDEST DUP1 DUP5 MSTORE SWAP1 PUSH1 0x1 DUP2 AND SWAP1 DUP2 ISZERO PUSH2 0x830 JUMPI POP PUSH1 0x1 EQ PUSH2 0x7D2 JUMPI JUMPDEST PUSH2 0x3A5 DUP4 PUSH2 0x391 DUP2 DUP6 SUB DUP3 PUSH2 0x1692 JUMP JUMPDEST SWAP2 SWAP1 POP PUSH1 0x1 PUSH0 MSTORE PUSH32 0xB10E2D527612073B26EECDFD717E6A320CF44B4AFAC2B0732D9FCBE2B7FA0CF6 SWAP2 PUSH0 SWAP1 JUMPDEST DUP1 DUP3 LT PUSH2 0x816 JUMPI POP SWAP1 SWAP2 POP DUP2 ADD PUSH1 0x20 ADD PUSH2 0x391 PUSH2 0x7C2 JUMP JUMPDEST SWAP2 SWAP3 PUSH1 0x1 DUP2 PUSH1 0x20 SWAP3 SLOAD DUP4 DUP6 DUP9 ADD ADD MSTORE ADD SWAP2 ADD SWAP1 SWAP3 SWAP2 PUSH2 0x7FE JUMP JUMPDEST PUSH1 0xFF NOT AND PUSH1 0x20 DUP1 DUP7 ADD SWAP2 SWAP1 SWAP2 MSTORE SWAP2 ISZERO ISZERO PUSH1 0x5 SHL DUP5 ADD SWAP1 SWAP2 ADD SWAP2 POP PUSH2 0x391 SWAP1 POP PUSH2 0x7C2 JUMP JUMPDEST CALLVALUE PUSH2 0x1EC JUMPI PUSH0 CALLDATASIZE PUSH1 0x3 NOT ADD SLT PUSH2 0x1EC JUMPI PUSH1 0xA SLOAD PUSH1 0x40 MLOAD PUSH1 0x1 PUSH1 0x1 PUSH1 0xA0 SHL SUB SWAP1 SWAP2 AND DUP2 MSTORE PUSH1 0x20 SWAP1 RETURN JUMPDEST CALLVALUE PUSH2 0x1EC JUMPI PUSH0 CALLDATASIZE PUSH1 0x3 NOT ADD SLT PUSH2 0x1EC JUMPI PUSH1 0x20 PUSH1 0xD SLOAD PUSH1 0x40 MLOAD SWAP1 DUP2 MSTORE RETURN JUMPDEST CALLVALUE PUSH2 0x1EC JUMPI PUSH0 CALLDATASIZE PUSH1 0x3 NOT ADD SLT PUSH2 0x1EC JUMPI PUSH2 0x8B1 PUSH2 0x1A8C JUMP JUMPDEST PUSH1 0xA DUP1 SLOAD PUSH1 0x1 PUSH1 0x1 PUSH1 0xA0 SHL SUB NOT DUP2 AND SWAP1 SWAP2 SSTORE PUSH0 SWAP1 PUSH1 0x1 PUSH1 0x1 PUSH1 0xA0 SHL SUB AND PUSH32 0x8BE0079C531659141344CD1FD0A4F28419497F9722A3DAAFE3B4186F6B6457E0 DUP3 DUP1 LOG3 STOP JUMPDEST CALLVALUE PUSH2 0x1EC JUMPI PUSH1 0x20 CALLDATASIZE PUSH1 0x3 NOT ADD SLT PUSH2 0x1EC JUMPI PUSH1 0x20 PUSH2 0x917 PUSH2 0x912 PUSH2 0x161F JUMP JUMPDEST PUSH2 0x1A27 JUMP JUMPDEST PUSH1 0x40 MLOAD SWAP1 DUP2 MSTORE RETURN JUMPDEST CALLVALUE PUSH2 0x1EC JUMPI PUSH1 0x20 CALLDATASIZE PUSH1 0x3 NOT ADD SLT PUSH2 0x1EC JUMPI PUSH1 0x4 CALLDATALOAD PUSH1 0x4 DUP2 LT ISZERO PUSH2 0x1EC JUMPI PUSH1 0x2 PUSH32 0x9B779B17422D0DF92223018B32B4D1FA46E071723D6817E2486D003BECC55F00 SLOAD EQ PUSH2 0xFB7 JUMPI PUSH1 0x2 PUSH32 0x9B779B17422D0DF92223018B32B4D1FA46E071723D6817E2486D003BECC55F00 SSTORE PUSH2 0x992 DUP2 PUSH2 0x16D0 JUMP JUMPDEST SLOAD DUP1 ISZERO PUSH2 0xF81 JUMPI PUSH1 0xB SLOAD PUSH1 0x40 MLOAD PUSH4 0x23B872DD PUSH1 0xE0 SHL DUP2 MSTORE CALLER PUSH1 0x4 DUP3 ADD MSTORE ADDRESS PUSH1 0x24 DUP3 ADD MSTORE PUSH1 0x44 DUP2 ADD SWAP3 SWAP1 SWAP3 MSTORE PUSH1 0x20 SWAP1 DUP3 SWAP1 PUSH1 0x64 SWAP1 DUP3 SWAP1 PUSH0 SWAP1 PUSH1 0x1 PUSH1 0x1 PUSH1 0xA0 SHL SUB AND GAS CALL SWAP1 DUP2 ISZERO PUSH2 0xF76 JUMPI PUSH0 SWAP2 PUSH2 0xF3B JUMPI JUMPDEST POP ISZERO PUSH2 0xEFE JUMPI PUSH1 0xD SLOAD PUSH0 NOT DUP2 EQ PUSH2 0xE30 JUMPI PUSH1 0x1 DUP2 ADD PUSH1 0xD SSTORE PUSH1 0x20 SWAP2 PUSH1 0x40 MLOAD PUSH2 0xA0A DUP5 DUP3 PUSH2 0x1692 JUMP JUMPDEST PUSH0 DUP2 MSTORE CALLER ISZERO PUSH2 0xEEB JUMPI PUSH0 DUP4 DUP2 MSTORE PUSH1 0x2 DUP6 MSTORE PUSH1 0x40 SWAP1 KECCAK256 SLOAD PUSH1 0x1 PUSH1 0x1 PUSH1 0xA0 SHL SUB AND DUP1 ISZERO DUP1 ISZERO SWAP2 SWAP1 DUP3 PUSH2 0xEBA JUMPI JUMPDEST CALLER PUSH0 DUP2 DUP2 MSTORE PUSH1 0x3 DUP10 MSTORE PUSH1 0x40 DUP1 DUP3 KECCAK256 DUP1 SLOAD PUSH1 0x1 ADD SWAP1 SSTORE DUP9 DUP3 MSTORE PUSH1 0x2 DUP11 MSTORE DUP2 KECCAK256 DUP1 SLOAD PUSH1 0x1 PUSH1 0x1 PUSH1 0xA0 SHL SUB NOT AND DUP4 OR SWAP1 SSTORE DUP8 SWAP2 SWAP1 DUP5 SWAP1 PUSH32 0xDDF252AD1BE2C89B69C2B068FC378DAA952BA7F163C4A11628F55A4DF523B3EF SWAP1 DUP1 LOG4 ISZERO PUSH2 0xE44 JUMPI PUSH1 0x8 SLOAD DUP6 PUSH0 MSTORE PUSH1 0x9 DUP8 MSTORE DUP1 PUSH1 0x40 PUSH0 KECCAK256 SSTORE PUSH1 0x1 PUSH1 0x40 SHL DUP2 LT ISZERO PUSH2 0xCC3 JUMPI DUP6 PUSH2 0xAC1 DUP3 PUSH1 0x1 PUSH2 0xAD9 SWAP5 ADD PUSH1 0x8 SSTORE PUSH2 0x19A7 JUMP JUMPDEST SWAP1 SWAP2 SWAP1 DUP3 SLOAD SWAP1 PUSH1 0x3 SHL SWAP2 DUP3 SHL SWAP2 PUSH0 NOT SWAP1 SHL NOT AND OR SWAP1 SSTORE JUMP JUMPDEST CALLER DUP2 SUB PUSH2 0xDF5 JUMPI JUMPDEST POP PUSH2 0xDE2 JUMPI DUP4 CALLER EXTCODESIZE PUSH2 0xCD7 JUMPI JUMPDEST POP POP PUSH1 0x40 MLOAD DUP4 DUP2 ADD SWAP1 TIMESTAMP DUP3 MSTORE PREVRANDAO PUSH1 0x40 DUP3 ADD MSTORE CALLER PUSH1 0x60 SHL PUSH1 0x60 DUP3 ADD MSTORE DUP4 PUSH1 0x74 DUP3 ADD MSTORE PUSH1 0x74 DUP2 MSTORE PUSH2 0xB1E PUSH1 0x94 DUP3 PUSH2 0x1692 JUMP JUMPDEST MLOAD SWAP1 KECCAK256 SWAP1 PUSH2 0xB2C DUP2 DUP4 PUSH2 0x1AB3 JUMP JUMPDEST PUSH2 0xB46 DUP3 PUSH2 0xB3D DUP2 DUP7 PUSH1 0x8 SHR PUSH2 0x1AB3 JUMP JUMPDEST SWAP5 PUSH1 0x10 SHR PUSH2 0x1AB3 JUMP JUMPDEST SWAP3 PUSH1 0x40 MLOAD SWAP2 PUSH1 0xE0 DUP4 ADD SWAP1 DUP4 DUP3 LT PUSH8 0xFFFFFFFFFFFFFFFF DUP4 GT OR PUSH2 0xCC3 JUMPI PUSH1 0xFF SWAP2 PUSH1 0x40 MSTORE AND DUP3 MSTORE PUSH1 0xFF DUP7 DUP4 ADD SWAP2 AND DUP2 MSTORE PUSH1 0xFF PUSH1 0x40 DUP4 ADD SWAP5 AND DUP5 MSTORE PUSH1 0x60 DUP3 ADD SWAP4 DUP4 DUP6 MSTORE PUSH1 0x80 DUP4 ADD SWAP5 PUSH0 DUP7 MSTORE PUSH1 0xA0 DUP5 ADD SWAP2 PUSH0 DUP4 MSTORE PUSH1 0xC0 DUP6 ADD SWAP3 TIMESTAMP DUP5 MSTORE DUP9 PUSH0 MSTORE PUSH1 0xF DUP11 MSTORE PUSH1 0xFF PUSH1 0x40 PUSH0 KECCAK256 SWAP7 MLOAD AND SWAP5 PUSH3 0xFF0000 PUSH2 0xFF00 DUP9 SLOAD SWAP3 MLOAD PUSH1 0x8 SHL AND SWAP4 MLOAD PUSH1 0x10 SHL AND SWAP4 MLOAD PUSH1 0x4 DUP2 LT ISZERO PUSH2 0xCAF JUMPI DUP11 SWAP10 PUSH1 0x1 SWAP8 PUSH2 0xC4D SWAP7 PUSH4 0xFFFFFFFF SWAP7 PUSH2 0xC28 SWAP6 PUSH4 0xFF000000 DUP10 SWAP7 PUSH1 0x18 SHL AND SWAP4 PUSH4 0xFF000000 NOT SWAP2 PUSH3 0xFFFFFF NOT AND OR AND OR OR OR DUP10 SSTORE MLOAD AND DUP8 SWAP1 PUSH8 0xFFFFFFFF00000000 DUP3 SLOAD SWAP2 PUSH1 0x20 SHL AND SWAP1 PUSH8 0xFFFFFFFF00000000 NOT AND OR SWAP1 SSTORE JUMP JUMPDEST MLOAD DUP6 SLOAD PUSH12 0xFFFFFFFF0000000000000000 NOT AND SWAP2 AND PUSH1 0x40 SHL PUSH4 0xFFFFFFFF PUSH1 0x40 SHL AND OR DUP5 SSTORE JUMP JUMPDEST MLOAD SWAP2 ADD SSTORE PUSH2 0xC5E PUSH1 0x40 MLOAD DUP1 SWAP3 PUSH2 0x1685 JUMP JUMPDEST PUSH32 0xBD505665CCEF6D54E9244E8CC562406F27F4590A1EE39CCC941D462A22527069 DUP5 CALLER SWAP3 LOG3 PUSH1 0x1 PUSH32 0x9B779B17422D0DF92223018B32B4D1FA46E071723D6817E2486D003BECC55F00 SSTORE PUSH1 0x40 MLOAD SWAP1 DUP2 MSTORE RETURN JUMPDEST PUSH4 0x4E487B71 PUSH1 0xE0 SHL PUSH0 MSTORE PUSH1 0x21 PUSH1 0x4 MSTORE PUSH1 0x24 PUSH0 REVERT JUMPDEST PUSH4 0x4E487B71 PUSH1 0xE0 SHL PUSH0 MSTORE PUSH1 0x41 PUSH1 0x4 MSTORE PUSH1 0x24 PUSH0 REVERT JUMPDEST PUSH2 0xD0F SWAP2 PUSH1 0x40 MLOAD DUP1 SWAP4 DUP2 SWAP3 PUSH4 0xA85BD01 PUSH1 0xE1 SHL DUP4 MSTORE CALLER PUSH1 0x4 DUP5 ADD MSTORE PUSH0 PUSH1 0x24 DUP5 ADD MSTORE DUP8 PUSH1 0x44 DUP5 ADD MSTORE PUSH1 0x80 PUSH1 0x64 DUP5 ADD MSTORE PUSH1 0x84 DUP4 ADD SWAP1 PUSH2 0x15FB JUMP JUMPDEST SUB DUP2 PUSH0 CALLER GAS CALL PUSH0 SWAP2 DUP2 PUSH2 0xDA2 JUMPI JUMPDEST POP PUSH2 0xD71 JUMPI DUP4 RETURNDATASIZE ISZERO PUSH2 0xD69 JUMPI RETURNDATASIZE SWAP1 PUSH2 0xD34 DUP3 PUSH2 0x16B4 JUMP JUMPDEST SWAP2 PUSH2 0xD42 PUSH1 0x40 MLOAD SWAP4 DUP5 PUSH2 0x1692 JUMP JUMPDEST DUP3 MSTORE RETURNDATASIZE PUSH0 DUP3 DUP5 ADD RETURNDATACOPY JUMPDEST DUP2 MLOAD SWAP2 DUP3 PUSH2 0xD66 JUMPI PUSH4 0x32505749 PUSH1 0xE1 SHL PUSH0 MSTORE CALLER PUSH1 0x4 MSTORE PUSH1 0x24 PUSH0 REVERT JUMPDEST ADD REVERT JUMPDEST PUSH1 0x60 SWAP1 PUSH2 0xD4B JUMP JUMPDEST PUSH1 0x1 PUSH1 0x1 PUSH1 0xE0 SHL SUB NOT AND PUSH4 0x757A42FF PUSH1 0xE1 SHL ADD PUSH2 0xD8F JUMPI DUP4 DUP4 PUSH2 0xAEE JUMP JUMPDEST PUSH4 0x32505749 PUSH1 0xE1 SHL PUSH0 MSTORE CALLER PUSH1 0x4 MSTORE PUSH1 0x24 PUSH0 REVERT JUMPDEST SWAP1 SWAP2 POP DUP5 DUP2 DUP2 RETURNDATASIZE DUP4 GT PUSH2 0xDDB JUMPI JUMPDEST PUSH2 0xDBA DUP2 DUP4 PUSH2 0x1692 JUMP JUMPDEST DUP2 ADD SUB SLT PUSH2 0x1EC JUMPI MLOAD PUSH1 0x1 PUSH1 0x1 PUSH1 0xE0 SHL SUB NOT DUP2 AND DUP2 SUB PUSH2 0x1EC JUMPI SWAP1 DUP6 PUSH2 0xD1D JUMP JUMPDEST POP RETURNDATASIZE PUSH2 0xDB0 JUMP JUMPDEST PUSH4 0x39E35637 PUSH1 0xE1 SHL PUSH0 MSTORE PUSH0 PUSH1 0x4 MSTORE PUSH1 0x24 PUSH0 REVERT JUMPDEST PUSH2 0xDFE CALLER PUSH2 0x1A27 JUMP JUMPDEST PUSH0 NOT DUP2 ADD SWAP1 DUP2 GT PUSH2 0xE30 JUMPI CALLER PUSH0 MSTORE PUSH1 0x6 DUP8 MSTORE PUSH1 0x40 PUSH0 KECCAK256 DUP2 PUSH0 MSTORE DUP8 MSTORE DUP6 PUSH1 0x40 PUSH0 KECCAK256 SSTORE DUP6 PUSH0 MSTORE PUSH1 0x7 DUP8 MSTORE PUSH1 0x40 PUSH0 KECCAK256 SSTORE PUSH2 0xAE1 JUMP JUMPDEST PUSH4 0x4E487B71 PUSH1 0xE0 SHL PUSH0 MSTORE PUSH1 0x11 PUSH1 0x4 MSTORE PUSH1 0x24 PUSH0 REVERT JUMPDEST CALLER DUP2 EQ PUSH2 0xAD9 JUMPI PUSH2 0xE54 DUP2 PUSH2 0x1A27 JUMP JUMPDEST DUP6 PUSH0 MSTORE PUSH1 0x7 DUP8 MSTORE PUSH1 0x40 PUSH0 KECCAK256 SLOAD SWAP1 DUP3 PUSH0 MSTORE PUSH1 0x6 DUP9 MSTORE PUSH1 0x40 PUSH0 KECCAK256 SWAP2 DUP2 DUP2 SUB PUSH2 0xE92 JUMPI JUMPDEST POP DUP7 PUSH0 MSTORE PUSH1 0x7 DUP9 MSTORE PUSH0 PUSH1 0x40 DUP2 KECCAK256 SSTORE PUSH0 MSTORE DUP7 MSTORE PUSH0 PUSH1 0x40 DUP2 KECCAK256 SSTORE PUSH2 0xAD9 JUMP JUMPDEST DUP2 PUSH0 MSTORE DUP3 DUP10 MSTORE PUSH1 0x40 PUSH0 KECCAK256 SLOAD DUP2 PUSH0 MSTORE DUP4 DUP11 MSTORE DUP1 PUSH1 0x40 PUSH0 KECCAK256 SSTORE PUSH0 MSTORE PUSH1 0x7 DUP10 MSTORE PUSH1 0x40 PUSH0 KECCAK256 SSTORE DUP9 PUSH2 0xE75 JUMP JUMPDEST PUSH0 DUP7 DUP2 MSTORE PUSH1 0x4 PUSH1 0x20 MSTORE PUSH1 0x40 DUP1 DUP3 KECCAK256 DUP1 SLOAD PUSH1 0x1 PUSH1 0x1 PUSH1 0xA0 SHL SUB NOT AND SWAP1 SSTORE DUP4 DUP3 MSTORE PUSH1 0x3 DUP10 MSTORE SWAP1 KECCAK256 DUP1 SLOAD PUSH0 NOT ADD SWAP1 SSTORE PUSH2 0xA35 JUMP JUMPDEST PUSH4 0x32505749 PUSH1 0xE1 SHL PUSH0 MSTORE PUSH0 PUSH1 0x4 MSTORE PUSH1 0x24 PUSH0 REVERT JUMPDEST PUSH1 0x40 MLOAD PUSH3 0x461BCD PUSH1 0xE5 SHL DUP2 MSTORE PUSH1 0x20 PUSH1 0x4 DUP3 ADD MSTORE PUSH1 0x15 PUSH1 0x24 DUP3 ADD MSTORE PUSH21 0x1054915390481D1C985B9CD9995C8819985A5B1959 PUSH1 0x5A SHL PUSH1 0x44 DUP3 ADD MSTORE PUSH1 0x64 SWAP1 REVERT JUMPDEST SWAP1 POP PUSH1 0x20 DUP2 RETURNDATASIZE PUSH1 0x20 GT PUSH2 0xF6E JUMPI JUMPDEST DUP2 PUSH2 0xF56 PUSH1 0x20 SWAP4 DUP4 PUSH2 0x1692 JUMP JUMPDEST DUP2 ADD SUB SLT PUSH2 0x1EC JUMPI MLOAD DUP1 ISZERO ISZERO DUP2 SUB PUSH2 0x1EC JUMPI DUP3 PUSH2 0x9E2 JUMP JUMPDEST RETURNDATASIZE SWAP2 POP PUSH2 0xF49 JUMP JUMPDEST PUSH1 0x40 MLOAD RETURNDATASIZE PUSH0 DUP3 RETURNDATACOPY RETURNDATASIZE SWAP1 REVERT JUMPDEST PUSH1 0x40 MLOAD PUSH3 0x461BCD PUSH1 0xE5 SHL DUP2 MSTORE PUSH1 0x20 PUSH1 0x4 DUP3 ADD MSTORE PUSH1 0xE PUSH1 0x24 DUP3 ADD MSTORE PUSH14 0x496E76616C696420726172697479 PUSH1 0x90 SHL PUSH1 0x44 DUP3 ADD MSTORE PUSH1 0x64 SWAP1 REVERT JUMPDEST PUSH4 0x3EE5AEB5 PUSH1 0xE0 SHL PUSH0 MSTORE PUSH1 0x4 PUSH0 REVERT JUMPDEST CALLVALUE PUSH2 0x1EC JUMPI PUSH1 0x20 CALLDATASIZE PUSH1 0x3 NOT ADD SLT PUSH2 0x1EC JUMPI PUSH1 0x20 PUSH2 0xFE4 PUSH1 0x4 CALLDATALOAD PUSH2 0x1A58 JUMP JUMPDEST PUSH1 0x40 MLOAD PUSH1 0x1 PUSH1 0x1 PUSH1 0xA0 SHL SUB SWAP1 SWAP2 AND DUP2 MSTORE RETURN JUMPDEST CALLVALUE PUSH2 0x1EC JUMPI PUSH1 0x20 CALLDATASIZE PUSH1 0x3 NOT ADD SLT PUSH2 0x1EC JUMPI PUSH1 0x4 CALLDATALOAD PUSH2 0x101F PUSH1 0x1 DUP1 PUSH1 0xA0 SHL SUB PUSH1 0xC SLOAD AND CALLER EQ PUSH2 0x19D3 JUMP JUMPDEST DUP1 PUSH0 MSTORE PUSH1 0xF PUSH1 0x20 MSTORE PUSH2 0x737 PUSH1 0x40 PUSH0 KECCAK256 PUSH2 0x1041 PUSH4 0xFFFFFFFF DUP3 SLOAD PUSH1 0x40 SHR AND PUSH2 0x1A10 JUMP JUMPDEST PUSH4 0xFFFFFFFF PUSH1 0x40 SHL DUP3 SLOAD SWAP2 PUSH1 0x40 SHL AND SWAP1 PUSH4 0xFFFFFFFF PUSH1 0x40 SHL NOT AND OR SWAP1 SSTORE JUMP JUMPDEST CALLVALUE PUSH2 0x1EC JUMPI PUSH1 0x20 CALLDATASIZE PUSH1 0x3 NOT ADD SLT PUSH2 0x1EC JUMPI PUSH1 0x4 CALLDATALOAD PUSH8 0xFFFFFFFFFFFFFFFF DUP2 GT PUSH2 0x1EC JUMPI CALLDATASIZE PUSH1 0x23 DUP3 ADD SLT ISZERO PUSH2 0x1EC JUMPI DUP1 PUSH1 0x4 ADD CALLDATALOAD PUSH8 0xFFFFFFFFFFFFFFFF DUP2 GT PUSH2 0x1EC JUMPI CALLDATASIZE PUSH1 0x24 DUP3 DUP5 ADD ADD GT PUSH2 0x1EC JUMPI PUSH2 0x10B6 PUSH2 0x1A8C JUMP JUMPDEST PUSH2 0x10C1 PUSH1 0x10 SLOAD PUSH2 0x16E7 JUMP JUMPDEST PUSH1 0x1F DUP2 GT PUSH2 0x1171 JUMPI JUMPDEST POP PUSH0 PUSH1 0x1F DUP3 GT PUSH1 0x1 EQ PUSH2 0x1106 JUMPI DUP2 SWAP3 PUSH0 SWAP3 PUSH2 0x10F8 JUMPI JUMPDEST POP POP PUSH0 NOT PUSH1 0x3 DUP4 SWAP1 SHL SHR NOT AND PUSH1 0x1 SWAP2 SWAP1 SWAP2 SHL OR PUSH1 0x10 SSTORE STOP JUMPDEST PUSH1 0x24 SWAP3 POP ADD ADD CALLDATALOAD DUP3 DUP1 PUSH2 0x10E0 JUMP JUMPDEST PUSH1 0x1F NOT DUP3 AND SWAP3 PUSH0 MLOAD PUSH1 0x20 PUSH2 0x1C62 PUSH0 CODECOPY PUSH0 MLOAD SWAP1 PUSH0 MSTORE SWAP2 PUSH0 JUMPDEST DUP6 DUP2 LT PUSH2 0x1156 JUMPI POP DUP4 PUSH1 0x1 SWAP6 LT PUSH2 0x113A JUMPI JUMPDEST POP POP POP DUP2 SHL ADD PUSH1 0x10 SSTORE STOP JUMPDEST ADD PUSH1 0x24 ADD CALLDATALOAD PUSH0 NOT PUSH1 0x3 DUP5 SWAP1 SHL PUSH1 0xF8 AND SHR NOT AND SWAP1 SSTORE DUP3 DUP1 DUP1 PUSH2 0x112F JUMP JUMPDEST SWAP1 SWAP3 PUSH1 0x20 PUSH1 0x1 DUP2 SWAP3 PUSH1 0x24 DUP8 DUP8 ADD ADD CALLDATALOAD DUP2 SSTORE ADD SWAP5 ADD SWAP2 ADD PUSH2 0x111D JUMP JUMPDEST PUSH1 0x1F DUP3 ADD PUSH1 0x5 SHR PUSH0 MLOAD PUSH1 0x20 PUSH2 0x1C62 PUSH0 CODECOPY PUSH0 MLOAD SWAP1 PUSH0 MSTORE ADD SWAP1 PUSH1 0x20 DUP4 LT PUSH2 0x11C0 JUMPI JUMPDEST PUSH1 0x1F ADD PUSH1 0x5 SHR PUSH0 MLOAD PUSH1 0x20 PUSH2 0x1C62 PUSH0 CODECOPY PUSH0 MLOAD SWAP1 PUSH0 MSTORE ADD SWAP1 JUMPDEST DUP2 DUP2 LT PUSH2 0x11B5 JUMPI POP PUSH2 0x10CA JUMP JUMPDEST PUSH0 DUP2 SSTORE PUSH1 0x1 ADD PUSH2 0x11A8 JUMP JUMPDEST PUSH0 MLOAD PUSH1 0x20 PUSH2 0x1C62 PUSH0 CODECOPY PUSH0 MLOAD SWAP1 PUSH0 MSTORE SWAP2 POP PUSH2 0x1191 JUMP JUMPDEST CALLVALUE PUSH2 0x1EC JUMPI PUSH1 0x20 CALLDATASIZE PUSH1 0x3 NOT ADD SLT PUSH2 0x1EC JUMPI PUSH1 0x4 CALLDATALOAD PUSH1 0x8 SLOAD DUP2 LT ISZERO PUSH2 0x120D JUMPI PUSH2 0x11FE PUSH1 0x20 SWAP2 PUSH2 0x19A7 JUMP JUMPDEST SWAP1 SLOAD SWAP1 PUSH1 0x3 SHL SHR PUSH1 0x40 MLOAD SWAP1 DUP2 MSTORE RETURN JUMPDEST PUSH4 0x295F44F7 PUSH1 0xE2 SHL PUSH0 MSTORE PUSH0 PUSH1 0x4 MSTORE PUSH1 0x24 MSTORE PUSH1 0x44 PUSH0 REVERT JUMPDEST CALLVALUE PUSH2 0x1EC JUMPI PUSH0 CALLDATASIZE PUSH1 0x3 NOT ADD SLT PUSH2 0x1EC JUMPI PUSH1 0xB SLOAD PUSH1 0x40 MLOAD PUSH1 0x1 PUSH1 0x1 PUSH1 0xA0 SHL SUB SWAP1 SWAP2 AND DUP2 MSTORE PUSH1 0x20 SWAP1 RETURN JUMPDEST CALLVALUE PUSH2 0x1EC JUMPI PUSH2 0x598 PUSH2 0x125C CALLDATASIZE PUSH2 0x164B JUMP JUMPDEST SWAP1 PUSH1 0x40 MLOAD SWAP3 PUSH2 0x126C PUSH1 0x20 DUP6 PUSH2 0x1692 JUMP JUMPDEST PUSH0 DUP5 MSTORE PUSH2 0x592 DUP4 DUP4 DUP4 PUSH2 0x171F JUMP JUMPDEST CALLVALUE PUSH2 0x1EC JUMPI PUSH1 0x20 CALLDATASIZE PUSH1 0x3 NOT ADD SLT PUSH2 0x1EC JUMPI PUSH2 0x1293 PUSH2 0x161F JUMP JUMPDEST PUSH2 0x129B PUSH2 0x1A8C JUMP JUMPDEST PUSH1 0xC DUP1 SLOAD PUSH1 0x1 PUSH1 0x1 PUSH1 0xA0 SHL SUB NOT AND PUSH1 0x1 PUSH1 0x1 PUSH1 0xA0 SHL SUB SWAP3 SWAP1 SWAP3 AND SWAP2 DUP3 OR SWAP1 SSTORE PUSH32 0xDA05B298405D30FAA06FD33FD0F66BE4C5B369D0617617BAF90412C4BB25FCEA PUSH0 DUP1 LOG2 STOP JUMPDEST CALLVALUE PUSH2 0x1EC JUMPI PUSH1 0x40 CALLDATASIZE PUSH1 0x3 NOT ADD SLT PUSH2 0x1EC JUMPI PUSH2 0x12F9 PUSH2 0x161F JUMP JUMPDEST PUSH1 0x24 CALLDATALOAD SWAP1 PUSH2 0x1306 DUP2 PUSH2 0x1A27 JUMP JUMPDEST DUP3 LT ISZERO PUSH2 0x1335 JUMPI PUSH1 0x1 DUP1 PUSH1 0xA0 SHL SUB AND PUSH0 MSTORE PUSH1 0x6 PUSH1 0x20 MSTORE PUSH1 0x40 PUSH0 KECCAK256 SWAP1 PUSH0 MSTORE PUSH1 0x20 MSTORE PUSH1 0x20 PUSH1 0x40 PUSH0 KECCAK256 SLOAD PUSH1 0x40 MLOAD SWAP1 DUP2 MSTORE RETURN JUMPDEST PUSH4 0x295F44F7 PUSH1 0xE2 SHL PUSH0 MSTORE PUSH1 0x1 DUP1 PUSH1 0xA0 SHL SUB AND PUSH1 0x4 MSTORE PUSH1 0x24 MSTORE PUSH1 0x44 PUSH0 REVERT JUMPDEST CALLVALUE PUSH2 0x1EC JUMPI PUSH2 0x598 PUSH2 0x1363 CALLDATASIZE PUSH2 0x164B JUMP JUMPDEST SWAP2 PUSH2 0x171F JUMP JUMPDEST CALLVALUE PUSH2 0x1EC JUMPI PUSH0 CALLDATASIZE PUSH1 0x3 NOT ADD SLT PUSH2 0x1EC JUMPI PUSH1 0x20 PUSH1 0x8 SLOAD PUSH1 0x40 MLOAD SWAP1 DUP2 MSTORE RETURN JUMPDEST CALLVALUE PUSH2 0x1EC JUMPI PUSH1 0x40 CALLDATASIZE PUSH1 0x3 NOT ADD SLT PUSH2 0x1EC JUMPI PUSH2 0x139F PUSH2 0x161F JUMP JUMPDEST PUSH1 0x24 CALLDATALOAD PUSH2 0x13AB DUP2 PUSH2 0x1A58 JUMP JUMPDEST CALLER ISZERO ISZERO DUP1 PUSH2 0x145D JUMPI JUMPDEST DUP1 PUSH2 0x1430 JUMPI JUMPDEST PUSH2 0x141D JUMPI DUP2 SWAP1 PUSH1 0x1 PUSH1 0x1 PUSH1 0xA0 SHL SUB DUP5 DUP2 AND SWAP2 AND PUSH32 0x8C5BE1E5EBEC7D5BD14F71427D1E84F3DD0314C0F7B2291E5B200AC8C7C3B925 PUSH0 DUP1 LOG4 PUSH0 SWAP1 DUP2 MSTORE PUSH1 0x4 PUSH1 0x20 MSTORE PUSH1 0x40 SWAP1 KECCAK256 DUP1 SLOAD PUSH1 0x1 PUSH1 0x1 PUSH1 0xA0 SHL SUB NOT AND PUSH1 0x1 PUSH1 0x1 PUSH1 0xA0 SHL SUB SWAP1 SWAP3 AND SWAP2 SWAP1 SWAP2 OR SWAP1 SSTORE STOP JUMPDEST PUSH4 0xA9FBF51F PUSH1 0xE0 SHL PUSH0 MSTORE CALLER PUSH1 0x4 MSTORE PUSH1 0x24 PUSH0 REVERT JUMPDEST POP PUSH1 0x1 PUSH1 0x1 PUSH1 0xA0 SHL SUB DUP2 AND PUSH0 SWAP1 DUP2 MSTORE PUSH1 0x5 PUSH1 0x20 SWAP1 DUP2 MSTORE PUSH1 0x40 DUP1 DUP4 KECCAK256 CALLER DUP5 MSTORE SWAP1 SWAP2 MSTORE SWAP1 KECCAK256 SLOAD PUSH1 0xFF AND ISZERO PUSH2 0x13BA JUMP JUMPDEST POP PUSH1 0x1 PUSH1 0x1 PUSH1 0xA0 SHL SUB DUP2 AND CALLER EQ ISZERO PUSH2 0x13B4 JUMP JUMPDEST CALLVALUE PUSH2 0x1EC JUMPI PUSH0 CALLDATASIZE PUSH1 0x3 NOT ADD SLT PUSH2 0x1EC JUMPI PUSH1 0xC SLOAD PUSH1 0x40 MLOAD PUSH1 0x1 PUSH1 0x1 PUSH1 0xA0 SHL SUB SWAP1 SWAP2 AND DUP2 MSTORE PUSH1 0x20 SWAP1 RETURN JUMPDEST CALLVALUE PUSH2 0x1EC JUMPI PUSH1 0x20 CALLDATASIZE PUSH1 0x3 NOT ADD SLT PUSH2 0x1EC JUMPI PUSH1 0x4 CALLDATALOAD PUSH2 0x14B5 DUP2 PUSH2 0x1A58 JUMP JUMPDEST POP PUSH0 MSTORE PUSH1 0x4 PUSH1 0x20 MSTORE PUSH1 0x20 PUSH1 0x1 DUP1 PUSH1 0xA0 SHL SUB PUSH1 0x40 PUSH0 KECCAK256 SLOAD AND PUSH1 0x40 MLOAD SWAP1 DUP2 MSTORE RETURN JUMPDEST CALLVALUE PUSH2 0x1EC JUMPI PUSH0 CALLDATASIZE PUSH1 0x3 NOT ADD SLT PUSH2 0x1EC JUMPI PUSH1 0x40 MLOAD PUSH0 PUSH0 SLOAD PUSH2 0x14F3 DUP2 PUSH2 0x16E7 JUMP JUMPDEST DUP1 DUP5 MSTORE SWAP1 PUSH1 0x1 DUP2 AND SWAP1 DUP2 ISZERO PUSH2 0x830 JUMPI POP PUSH1 0x1 EQ PUSH2 0x151A JUMPI PUSH2 0x3A5 DUP4 PUSH2 0x391 DUP2 DUP6 SUB DUP3 PUSH2 0x1692 JUMP JUMPDEST PUSH0 DUP1 DUP1 MSTORE PUSH32 0x290DECD9548B62A8D60345A988386FC84BA6BC95484008F6362F93160EF3E563 SWAP4 SWAP3 POP SWAP1 JUMPDEST DUP1 DUP3 LT PUSH2 0x155C JUMPI POP SWAP1 SWAP2 POP DUP2 ADD PUSH1 0x20 ADD PUSH2 0x391 PUSH2 0x7C2 JUMP JUMPDEST SWAP2 SWAP3 PUSH1 0x1 DUP2 PUSH1 0x20 SWAP3 SLOAD DUP4 DUP6 DUP9 ADD ADD MSTORE ADD SWAP2 ADD SWAP1 SWAP3 SWAP2 PUSH2 0x1544 JUMP JUMPDEST CALLVALUE PUSH2 0x1EC JUMPI PUSH1 0x20 CALLDATASIZE PUSH1 0x3 NOT ADD SLT PUSH2 0x1EC JUMPI PUSH1 0x4 CALLDATALOAD SWAP1 PUSH4 0xFFFFFFFF PUSH1 0xE0 SHL DUP3 AND DUP1 SWAP3 SUB PUSH2 0x1EC JUMPI PUSH1 0x20 SWAP2 PUSH4 0x780E9D63 PUSH1 0xE0 SHL DUP2 EQ SWAP1 DUP2 ISZERO PUSH2 0x15B8 JUMPI JUMPDEST POP ISZERO ISZERO DUP2 MSTORE RETURN JUMPDEST PUSH4 0x80AC58CD PUSH1 0xE0 SHL DUP2 EQ SWAP2 POP DUP2 ISZERO PUSH2 0x15EA JUMPI JUMPDEST DUP2 ISZERO PUSH2 0x15D9 JUMPI JUMPDEST POP DUP4 PUSH2 0x15B1 JUMP JUMPDEST PUSH4 0x1FFC9A7 PUSH1 0xE0 SHL EQ SWAP1 POP DUP4 PUSH2 0x15D2 JUMP JUMPDEST PUSH4 0x5B5E139F PUSH1 0xE0 SHL DUP2 EQ SWAP2 POP PUSH2 0x15CB JUMP JUMPDEST DUP1 MLOAD DUP1 DUP4 MSTORE PUSH1 0x20 SWAP3 SWAP2 DUP2 SWAP1 DUP5 ADD DUP5 DUP5 ADD MCOPY PUSH0 DUP3 DUP3 ADD DUP5 ADD MSTORE PUSH1 0x1F ADD PUSH1 0x1F NOT AND ADD ADD SWAP1 JUMP JUMPDEST PUSH1 0x4 CALLDATALOAD SWAP1 PUSH1 0x1 PUSH1 0x1 PUSH1 0xA0 SHL SUB DUP3 AND DUP3 SUB PUSH2 0x1EC JUMPI JUMP JUMPDEST PUSH1 0x24 CALLDATALOAD SWAP1 PUSH1 0x1 PUSH1 0x1 PUSH1 0xA0 SHL SUB DUP3 AND DUP3 SUB PUSH2 0x1EC JUMPI JUMP JUMPDEST PUSH1 0x60 SWAP1 PUSH1 0x3 NOT ADD SLT PUSH2 0x1EC JUMPI PUSH1 0x4 CALLDATALOAD PUSH1 0x1 PUSH1 0x1 PUSH1 0xA0 SHL SUB DUP2 AND DUP2 SUB PUSH2 0x1EC JUMPI SWAP1 PUSH1 0x24 CALLDATALOAD PUSH1 0x1 PUSH1 0x1 PUSH1 0xA0 SHL SUB DUP2 AND DUP2 SUB PUSH2 0x1EC JUMPI SWAP1 PUSH1 0x44 CALLDATALOAD SWAP1 JUMP JUMPDEST SWAP1 PUSH1 0x4 DUP3 LT ISZERO PUSH2 0xCAF JUMPI MSTORE JUMP JUMPDEST SWAP1 PUSH1 0x1F DUP1 NOT SWAP2 ADD AND DUP2 ADD SWAP1 DUP2 LT PUSH8 0xFFFFFFFFFFFFFFFF DUP3 GT OR PUSH2 0xCC3 JUMPI PUSH1 0x40 MSTORE JUMP JUMPDEST PUSH8 0xFFFFFFFFFFFFFFFF DUP2 GT PUSH2 0xCC3 JUMPI PUSH1 0x1F ADD PUSH1 0x1F NOT AND PUSH1 0x20 ADD SWAP1 JUMP JUMPDEST PUSH1 0x4 DUP2 LT ISZERO PUSH2 0xCAF JUMPI PUSH0 MSTORE PUSH1 0xE PUSH1 0x20 MSTORE PUSH1 0x40 PUSH0 KECCAK256 SWAP1 JUMP JUMPDEST SWAP1 PUSH1 0x1 DUP3 DUP2 SHR SWAP3 AND DUP1 ISZERO PUSH2 0x1715 JUMPI JUMPDEST PUSH1 0x20 DUP4 LT EQ PUSH2 0x1701 JUMPI JUMP JUMPDEST PUSH4 0x4E487B71 PUSH1 0xE0 SHL PUSH0 MSTORE PUSH1 0x22 PUSH1 0x4 MSTORE PUSH1 0x24 PUSH0 REVERT JUMPDEST SWAP2 PUSH1 0x7F AND SWAP2 PUSH2 0x16F6 JUMP JUMPDEST SWAP1 SWAP2 SWAP1 PUSH1 0x1 PUSH1 0x1 PUSH1 0xA0 SHL SUB DUP4 AND DUP1 ISZERO PUSH2 0xEEB JUMPI PUSH0 DUP4 DUP2 MSTORE PUSH1 0x2 PUSH1 0x20 MSTORE PUSH1 0x40 SWAP1 KECCAK256 SLOAD PUSH1 0x1 PUSH1 0x1 PUSH1 0xA0 SHL SUB AND SWAP4 CALLER ISZERO ISZERO DUP1 PUSH2 0x1917 JUMPI JUMPDEST POP DUP5 ISZERO DUP1 ISZERO PUSH2 0x18E4 JUMPI JUMPDEST DUP3 PUSH0 MSTORE PUSH1 0x3 PUSH1 0x20 MSTORE PUSH1 0x40 PUSH0 KECCAK256 PUSH1 0x1 DUP2 SLOAD ADD SWAP1 SSTORE DUP5 PUSH0 MSTORE PUSH1 0x2 PUSH1 0x20 MSTORE PUSH1 0x40 PUSH0 KECCAK256 DUP4 PUSH12 0xFFFFFFFFFFFFFFFFFFFFFFFF PUSH1 0xA0 SHL DUP3 SLOAD AND OR SWAP1 SSTORE DUP5 DUP4 DUP8 PUSH32 0xDDF252AD1BE2C89B69C2B068FC378DAA952BA7F163C4A11628F55A4DF523B3EF PUSH0 DUP1 LOG4 ISZERO PUSH2 0x1867 JUMPI PUSH1 0x8 SLOAD DUP5 PUSH0 MSTORE PUSH1 0x9 PUSH1 0x20 MSTORE DUP1 PUSH1 0x40 PUSH0 KECCAK256 SSTORE PUSH1 0x1 PUSH1 0x40 SHL DUP2 LT ISZERO PUSH2 0xCC3 JUMPI DUP5 PUSH2 0xAC1 DUP3 PUSH1 0x1 PUSH2 0x17F0 SWAP5 ADD PUSH1 0x8 SSTORE PUSH2 0x19A7 JUMP JUMPDEST DUP2 DUP6 SUB PUSH2 0x1827 JUMPI JUMPDEST POP POP PUSH1 0x1 PUSH1 0x1 PUSH1 0xA0 SHL SUB AND DUP1 DUP4 SUB PUSH2 0x180F JUMPI POP POP POP JUMP JUMPDEST PUSH4 0x64283D7B PUSH1 0xE0 SHL PUSH0 MSTORE PUSH1 0x4 MSTORE PUSH1 0x24 MSTORE PUSH1 0x44 MSTORE PUSH1 0x64 PUSH0 REVERT JUMPDEST PUSH2 0x1830 SWAP1 PUSH2 0x1A27 JUMP JUMPDEST PUSH0 NOT DUP2 ADD SWAP2 SWAP1 DUP3 GT PUSH2 0xE30 JUMPI PUSH0 MSTORE PUSH1 0x6 PUSH1 0x20 MSTORE PUSH1 0x40 PUSH0 KECCAK256 DUP2 PUSH0 MSTORE PUSH1 0x20 MSTORE DUP3 PUSH1 0x40 PUSH0 KECCAK256 SSTORE DUP3 PUSH0 MSTORE PUSH1 0x7 PUSH1 0x20 MSTORE PUSH1 0x40 PUSH0 KECCAK256 SSTORE PUSH0 DUP1 PUSH2 0x17F8 JUMP JUMPDEST DUP5 DUP3 EQ PUSH2 0x17F0 JUMPI PUSH2 0x1877 DUP6 PUSH2 0x1A27 JUMP JUMPDEST DUP5 PUSH0 MSTORE PUSH1 0x7 PUSH1 0x20 MSTORE PUSH1 0x40 PUSH0 KECCAK256 SLOAD SWAP1 DUP7 PUSH0 MSTORE PUSH1 0x6 PUSH1 0x20 MSTORE PUSH1 0x40 PUSH0 KECCAK256 SWAP2 DUP2 DUP2 SUB PUSH2 0x18B9 JUMPI JUMPDEST POP DUP6 PUSH0 MSTORE PUSH1 0x7 PUSH1 0x20 MSTORE PUSH0 PUSH1 0x40 DUP2 KECCAK256 SSTORE PUSH0 MSTORE PUSH1 0x20 MSTORE PUSH0 PUSH1 0x40 DUP2 KECCAK256 SSTORE PUSH2 0x17F0 JUMP JUMPDEST DUP2 PUSH0 MSTORE DUP3 PUSH1 0x20 MSTORE PUSH1 0x40 PUSH0 KECCAK256 SLOAD DUP2 PUSH0 MSTORE DUP4 PUSH1 0x20 MSTORE DUP1 PUSH1 0x40 PUSH0 KECCAK256 SSTORE PUSH0 MSTORE PUSH1 0x7 PUSH1 0x20 MSTORE PUSH1 0x40 PUSH0 KECCAK256 SSTORE PUSH0 PUSH2 0x189A JUMP JUMPDEST PUSH0 DUP6 DUP2 MSTORE PUSH1 0x4 PUSH1 0x20 MSTORE PUSH1 0x40 SWAP1 KECCAK256 DUP1 SLOAD PUSH1 0x1 PUSH1 0x1 PUSH1 0xA0 SHL SUB NOT AND SWAP1 SSTORE DUP6 PUSH0 MSTORE PUSH1 0x3 PUSH1 0x20 MSTORE PUSH1 0x40 PUSH0 KECCAK256 PUSH0 NOT DUP2 SLOAD ADD SWAP1 SSTORE PUSH2 0x175D JUMP JUMPDEST DUP1 PUSH2 0x1956 JUMPI JUMPDEST ISZERO PUSH2 0x1928 JUMPI PUSH0 PUSH2 0x1753 JUMP JUMPDEST DUP4 DUP6 PUSH2 0x1940 JUMPI PUSH4 0x7E273289 PUSH1 0xE0 SHL PUSH0 MSTORE PUSH1 0x4 MSTORE PUSH1 0x24 PUSH0 REVERT JUMPDEST PUSH4 0x177E802F PUSH1 0xE0 SHL PUSH0 MSTORE CALLER PUSH1 0x4 MSTORE PUSH1 0x24 MSTORE PUSH1 0x44 PUSH0 REVERT JUMPDEST POP CALLER DUP6 EQ DUP1 ISZERO PUSH2 0x1985 JUMPI JUMPDEST DUP1 PUSH2 0x191D JUMPI POP PUSH0 DUP5 DUP2 MSTORE PUSH1 0x4 PUSH1 0x20 MSTORE PUSH1 0x40 SWAP1 KECCAK256 SLOAD PUSH1 0x1 PUSH1 0x1 PUSH1 0xA0 SHL SUB AND CALLER EQ PUSH2 0x191D JUMP JUMPDEST POP PUSH0 DUP6 DUP2 MSTORE PUSH1 0x5 PUSH1 0x20 SWAP1 DUP2 MSTORE PUSH1 0x40 DUP1 DUP4 KECCAK256 CALLER DUP5 MSTORE SWAP1 SWAP2 MSTORE SWAP1 KECCAK256 SLOAD PUSH1 0xFF AND PUSH2 0x1961 JUMP JUMPDEST PUSH1 0x8 SLOAD DUP2 LT ISZERO PUSH2 0x19BF JUMPI PUSH1 0x8 PUSH0 MSTORE PUSH1 0x20 PUSH0 KECCAK256 ADD SWAP1 PUSH0 SWAP1 JUMP JUMPDEST PUSH4 0x4E487B71 PUSH1 0xE0 SHL PUSH0 MSTORE PUSH1 0x32 PUSH1 0x4 MSTORE PUSH1 0x24 PUSH0 REVERT JUMPDEST ISZERO PUSH2 0x19DA JUMPI JUMP JUMPDEST PUSH1 0x40 MLOAD PUSH3 0x461BCD PUSH1 0xE5 SHL DUP2 MSTORE PUSH1 0x20 PUSH1 0x4 DUP3 ADD MSTORE PUSH1 0xE PUSH1 0x24 DUP3 ADD MSTORE PUSH14 0x4F6E6C79204172656E6147616D65 PUSH1 0x90 SHL PUSH1 0x44 DUP3 ADD MSTORE PUSH1 0x64 SWAP1 REVERT JUMPDEST PUSH4 0xFFFFFFFF AND PUSH4 0xFFFFFFFF DUP2 EQ PUSH2 0xE30 JUMPI PUSH1 0x1 ADD SWAP1 JUMP JUMPDEST PUSH1 0x1 PUSH1 0x1 PUSH1 0xA0 SHL SUB AND DUP1 ISZERO PUSH2 0x1A45 JUMPI PUSH0 MSTORE PUSH1 0x3 PUSH1 0x20 MSTORE PUSH1 0x40 PUSH0 KECCAK256 SLOAD SWAP1 JUMP JUMPDEST PUSH4 0x22718AD9 PUSH1 0xE2 SHL PUSH0 MSTORE PUSH0 PUSH1 0x4 MSTORE PUSH1 0x24 PUSH0 REVERT JUMPDEST PUSH0 DUP2 DUP2 MSTORE PUSH1 0x2 PUSH1 0x20 MSTORE PUSH1 0x40 SWAP1 KECCAK256 SLOAD PUSH1 0x1 PUSH1 0x1 PUSH1 0xA0 SHL SUB AND SWAP1 DUP2 ISZERO PUSH2 0x1A7A JUMPI POP SWAP1 JUMP JUMPDEST PUSH4 0x7E273289 PUSH1 0xE0 SHL PUSH0 MSTORE PUSH1 0x4 MSTORE PUSH1 0x24 PUSH0 REVERT JUMPDEST PUSH1 0xA SLOAD PUSH1 0x1 PUSH1 0x1 PUSH1 0xA0 SHL SUB AND CALLER SUB PUSH2 0x1AA0 JUMPI JUMP JUMPDEST PUSH4 0x118CDAA7 PUSH1 0xE0 SHL PUSH0 MSTORE CALLER PUSH1 0x4 MSTORE PUSH1 0x24 PUSH0 REVERT JUMPDEST SWAP1 PUSH1 0x4 DUP2 LT ISZERO PUSH2 0xCAF JUMPI DUP1 PUSH2 0x1AFA JUMPI POP PUSH1 0x14 PUSH1 0xFF PUSH1 0x1E JUMPDEST AND SWAP1 DUP2 ISZERO PUSH2 0x1AE6 JUMPI PUSH1 0xFF AND SWAP2 MOD DUP2 ADD DUP1 SWAP2 GT PUSH2 0xE30 JUMPI PUSH1 0xFF AND SWAP1 JUMP JUMPDEST PUSH4 0x4E487B71 PUSH1 0xE0 SHL PUSH0 MSTORE PUSH1 0x12 PUSH1 0x4 MSTORE PUSH1 0x24 PUSH0 REVERT JUMPDEST PUSH1 0x1 DUP2 SUB PUSH2 0x1B0E JUMPI POP PUSH1 0x28 PUSH1 0xFF PUSH1 0x1E PUSH2 0x1ACA JUMP JUMPDEST PUSH1 0x2 SUB PUSH2 0x1B20 JUMPI PUSH1 0x3C PUSH1 0xFF PUSH1 0x19 PUSH2 0x1ACA JUMP JUMPDEST PUSH1 0x50 PUSH1 0xFF PUSH1 0x14 PUSH2 0x1ACA JUMP JUMPDEST DUP3 EXTCODESIZE PUSH2 0x1B39 JUMPI JUMPDEST POP POP POP POP POP JUMP JUMPDEST PUSH1 0x40 MLOAD PUSH4 0xA85BD01 PUSH1 0xE1 SHL DUP2 MSTORE PUSH1 0x1 PUSH1 0x1 PUSH1 0xA0 SHL SUB SWAP2 DUP3 AND PUSH1 0x4 DUP3 ADD MSTORE SWAP2 DUP2 AND PUSH1 0x24 DUP4 ADD MSTORE PUSH1 0x44 DUP3 ADD SWAP4 SWAP1 SWAP4 MSTORE PUSH1 0x80 PUSH1 0x64 DUP3 ADD MSTORE SWAP2 AND SWAP2 PUSH1 0x20 SWAP1 DUP3 SWAP1 DUP2 SWAP1 PUSH2 0x1B85 SWAP1 PUSH1 0x84 DUP4 ADD SWAP1 PUSH2 0x15FB JUMP JUMPDEST SUB DUP2 PUSH0 DUP7 GAS CALL PUSH0 SWAP2 DUP2 PUSH2 0x1C1C JUMPI JUMPDEST POP PUSH2 0x1BE8 JUMPI POP RETURNDATASIZE ISZERO PUSH2 0x1BE1 JUMPI RETURNDATASIZE PUSH2 0x1BA9 DUP2 PUSH2 0x16B4 JUMP JUMPDEST SWAP1 PUSH2 0x1BB7 PUSH1 0x40 MLOAD SWAP3 DUP4 PUSH2 0x1692 JUMP JUMPDEST DUP2 MSTORE RETURNDATASIZE PUSH0 PUSH1 0x20 DUP4 ADD RETURNDATACOPY JUMPDEST DUP1 MLOAD SWAP1 DUP2 PUSH2 0x1BDC JUMPI DUP3 PUSH4 0x32505749 PUSH1 0xE1 SHL PUSH0 MSTORE PUSH1 0x4 MSTORE PUSH1 0x24 PUSH0 REVERT JUMPDEST PUSH1 0x20 ADD REVERT JUMPDEST PUSH1 0x60 PUSH2 0x1BC1 JUMP JUMPDEST PUSH1 0x1 PUSH1 0x1 PUSH1 0xE0 SHL SUB NOT AND PUSH4 0x757A42FF PUSH1 0xE1 SHL ADD PUSH2 0x1C0A JUMPI POP PUSH0 DUP1 DUP1 DUP1 DUP1 PUSH2 0x1B32 JUMP JUMPDEST PUSH4 0x32505749 PUSH1 0xE1 SHL PUSH0 MSTORE PUSH1 0x4 MSTORE PUSH1 0x24 PUSH0 REVERT JUMPDEST SWAP1 SWAP2 POP PUSH1 0x20 DUP2 RETURNDATASIZE PUSH1 0x20 GT PUSH2 0x1C59 JUMPI JUMPDEST DUP2 PUSH2 0x1C38 PUSH1 0x20 SWAP4 DUP4 PUSH2 0x1692 JUMP JUMPDEST DUP2 ADD SUB SLT PUSH2 0x1EC JUMPI MLOAD PUSH1 0x1 PUSH1 0x1 PUSH1 0xE0 SHL SUB NOT DUP2 AND DUP2 SUB PUSH2 0x1EC JUMPI SWAP1 PUSH0 PUSH2 0x1B93 JUMP JUMPDEST RETURNDATASIZE SWAP2 POP PUSH2 0x1C2B JUMP INVALID SHL PUSH9 0x47DC741A1B0CD08D27 DUP9 GASLIMIT 0xF9 0xD8 NOT 0xD8 PUSH28 0x734759AFB55FE2DE5CB82A9AE672A264697066735822122077C9E9FB JUMPDEST 0xE6 0xAA 0xE6 0xD2 SUB PUSH11 0x19089671F0C08813EEE469 SWAP3 0xC SWAP5 EXTCODESIZE 0xC0 0xD6 STATICCALL 0xE DUP9 0xE5 PUSH5 0x736F6C6343 STOP ADDMOD SHR STOP CALLER "},"methodIdentifiers":{"approve(address,uint256)":"095ea7b3","arenaCoin()":"48f7d5ab","arenaContract()":"082a8c4e","balanceOf(address)":"70a08231","getApproved(uint256)":"081812fc","isApprovedForAll(address,address)":"e985e9c5","mint(uint8)":"6ecd2306","mintCost(uint8)":"bd96237d","name()":"06fdde03","nextTokenId()":"75794a3c","owner()":"8da5cb5b","ownerOf(uint256)":"6352211e","recordLoss(uint256)":"6022743e","recordWin(uint256)":"9e6611a5","renounceOwnership()":"715018a6","safeTransferFrom(address,address,uint256)":"42842e0e","safeTransferFrom(address,address,uint256,bytes)":"b88d4fde","setApprovalForAll(address,bool)":"a22cb465","setArenaContract(address)":"368e0ed8","setBaseURI(string)":"55f804b3","setMintCost(uint8,uint256)":"c4be7153","stats(uint256)":"ad217ae5","supportsInterface(bytes4)":"01ffc9a7","symbol()":"95d89b41","tokenByIndex(uint256)":"4f6ccce7","tokenOfOwnerByIndex(address,uint256)":"2f745c59","tokenURI(uint256)":"c87b56dd","totalSupply()":"18160ddd","transferFrom(address,address,uint256)":"23b872dd","transferOwnership(address)":"f2fde38b"}}}}}