{"contracts/ArenaGame.sol":{"ArenaGame":{"abi":[{"inputs":[{"internalType":"address","name":"_fighterNFT","type":"address"},{"internalType":"address","name":"_arenaCoin","type":"address"}],"stateMutability":"nonpayable","type":"constructor"},{"inputs":[{"internalType":"address","name":"owner","type":"address"}],"name":"OwnableInvalidOwner","type":"error"},{"inputs":[{"internalType":"address","name":"account","type":"address"}],"name":"OwnableUnauthorizedAccount","type":"error"},{"inputs":[],"name":"ReentrancyGuardReentrantCall","type":"error"},{"anonymous":false,"inputs":[{"indexed":true,"internalType":"uint256","name":"battleId","type":"uint256"},{"indexed":true,"internalType":"uint256","name":"attackerTokenId","type":"uint256"},{"indexed":true,"internalType":"uint256","name":"defenderTokenId","type":"uint256"},{"indexed":false,"internalType":"enum ArenaGame.Outcome","name":"outcome","type":"uint8"},{"indexed":false,"internalType":"uint256","name":"reward","type":"uint256"}],"name":"BattleResolved","type":"event"},{"anonymous":false,"inputs":[{"indexed":true,"internalType":"address","name":"previousOwner","type":"address"},{"indexed":true,"internalType":"address","name":"newOwner","type":"address"}],"name":"OwnershipTransferred","type":"event"},{"inputs":[],"name":"arenaCoin","outputs":[{"internalType":"contract IArenaCoin","name":"","type":"address"}],"stateMutability":"view","type":"function"},{"inputs":[],"name":"battleCooldown","outputs":[{"internalType":"uint256","name":"","type":"uint256"}],"stateMutability":"view","type":"function"},{"inputs":[],"name":"battleCount","outputs":[{"internalType":"uint256","name":"","type":"uint256"}],"stateMutability":"view","type":"function"},{"inputs":[{"internalType":"uint256","name":"attackerTokenId","type":"uint256"}],"name":"battlePvE","outputs":[{"internalType":"uint256","name":"battleId","type":"uint256"}],"stateMutability":"nonpayable","type":"function"},{"inputs":[{"internalType":"uint256","name":"attackerTokenId","type":"uint256"},{"internalType":"uint256","name":"defenderTokenId","type":"uint256"}],"name":"battlePvP","outputs":[{"internalType":"uint256","name":"battleId","type":"uint256"}],"stateMutability":"nonpayable","type":"function"},{"inputs":[{"internalType":"uint256","name":"","type":"uint256"}],"name":"battles","outputs":[{"internalType":"uint256","name":"attackerTokenId","type":"uint256"},{"internalType":"uint256","name":"defenderTokenId","type":"uint256"},{"internalType":"address","name":"attacker","type":"address"},{"internalType":"address","name":"defender","type":"address"},{"internalType":"enum ArenaGame.BattleMode","name":"mode","type":"uint8"},{"internalType":"enum ArenaGame.Outcome","name":"outcome","type":"uint8"},{"internalType":"uint256","name":"reward","type":"uint256"},{"internalType":"uint256","name":"timestamp","type":"uint256"}],"stateMutability":"view","type":"function"},{"inputs":[],"name":"fighterNFT","outputs":[{"internalType":"contract IArenaFighter","name":"","type":"address"}],"stateMutability":"view","type":"function"},{"inputs":[{"internalType":"uint256","name":"","type":"uint256"}],"name":"lastBattleTime","outputs":[{"internalType":"uint256","name":"","type":"uint256"}],"stateMutability":"view","type":"function"},{"inputs":[],"name":"owner","outputs":[{"internalType":"address","name":"","type":"address"}],"stateMutability":"view","type":"function"},{"inputs":[],"name":"pveWinReward","outputs":[{"internalType":"uint256","name":"","type":"uint256"}],"stateMutability":"view","type":"function"},{"inputs":[],"name":"pvpWinReward","outputs":[{"internalType":"uint256","name":"","type":"uint256"}],"stateMutability":"view","type":"function"},{"inputs":[],"name":"renounceOwnership","outputs":[],"stateMutability":"nonpayable","type":"function"},{"inputs":[{"internalType":"uint256","name":"cooldown","type":"uint256"}],"name":"setBattleCooldown","outputs":[],"stateMutability":"nonpayable","type":"function"},{"inputs":[{"internalType":"uint256","name":"reward","type":"uint256"}],"name":"setPveWinReward","outputs":[],"stateMutability":"nonpayable","type":"function"},{"inputs":[{"internalType":"uint256","name":"reward","type":"uint256"}],"name":"setPvpWinReward","outputs":[],"stateMutability":"nonpayable","type":"function"},{"inputs":[{"internalType":"address","name":"newOwner","type":"address"}],"name":"transferOwnership","outputs":[],"stateMutability":"nonpayable","type":"function"}],"evm":{"bytecode":{"linkReferences":{},"object":"60803461013157601f61116c38819003918201601f19168301916001600160401b0383118484101761013557808492604094855283398101031261013157610052602061004b83610149565b9201610149565b331561011e575f8054336001600160a01b0319821681178355604051949290916001600160a01b0316907f8be0079c531659141344cd1fd0a4f28419497f9722a3daafe3b4186f6b6457e09080a360017f9b779b17422d0df92223018b32b4d1fa46e071723d6817e2486d003becc55f00819055678ac7230489e8000060055568015af1d78b58c40000600655610e1060075580546001600160a01b039283166001600160a01b0319918216179091556002805493909216921691909117905561100e908161015e8239f35b631e4fbdf760e01b5f525f60045260245ffd5b5f80fd5b634e487b7160e01b5f52604160045260245ffd5b51906001600160a01b03821682036101315756fe60806040526004361015610011575f80fd5b5f5f3560e01c80633b52af07146109e557806348f7d5ab146109bc5780635693e9761461099957806356ba304114610976578063606d2e96146108d857806364a291aa146108b557806370ea9f681461088b578063715018a6146108315780638613379a146108135780638da5cb5b146107ec57806390d354a9146101dd578063ba3cd937146101bf578063d1006a6f146101a1578063e00b636314610183578063f2fde38b146100f55763fa818cf6146100ca575f80fd5b346100f257806003193601126100f2576001546040516001600160a01b039091168152602090f35b80fd5b50346100f25760203660031901126100f2576004356001600160a01b0381169081900361017f57610124610fb2565b801561016b5781546001600160a01b03198116821783556001600160a01b03167f8be0079c531659141344cd1fd0a4f28419497f9722a3daafe3b4186f6b6457e08380a380f35b631e4fbdf760e01b82526004829052602482fd5b5080fd5b50346100f257806003193601126100f2576020600354604051908152f35b50346100f257806003193601126100f2576020600754604051908152f35b50346100f257806003193601126100f2576020600654604051908152f35b50346100f25760403660031901126100f2576024356004356101fd610e0a565b6001546040516331a9108f60e11b8152600481018390526001600160a01b0390911690602081602481855afa801561078e5761024b9186916107cd575b506001600160a01b03163314610d34565b8282146107995761025b82610e68565b6040516331a9108f60e11b81526004810184905290602082602481845afa91821561078e57859261075d575b5060405163ad217ae560e01b81526004810184905260e081602481855afa801561075257869087928891610729575b5060405163ad217ae560e01b8152600481018890529160e083602481885afa91821561071e5789918a948b946106bd575b509160ff806103106103089482610308819882806103199d9e169116610def565b911690610def565b97169116610def565b906040516020810190610371816103638a8a3344428993916094959391855260208501526bffffffffffffffffffffffff199060601b166040840152605483015260748201520190565b03601f198101835282610cf3565b5190208282146106a9575b5011156105cf575060065460015485929083906001600160a01b0316803b1561017f57818091602460405180948193639e6611a560e01b83528b60048401525af180156105c4576105af575b506001546001600160a01b0316803b1561017f5781906024604051809481936330113a1f60e11b83528b60048401525af180156105a45761058b575b5060406005959493837f76d6ae576845fe70321f4ac9ef3deb14100909d606cf45ead8540774b4d0f92e9361043c60209a9633610ec4565b86865260088a524284872055610453600354610dfc565b988980978160035586519361046785610cc2565b8a85528d85018c8152888601338152606087019260018060a01b0316835260808701906001825260a088019261049c8b610ca4565b8a845260c089018a81524260e08b019081529787526004602052958c902098518955516001890155516002880180546001600160a01b03199081166001600160a01b039384161790915593516003890180549095169116178355519061050182610ca4565b61050a82610ca4565b8254905161051781610ca4565b61052081610ca4565b60ff60a81b9060a81b169160ff60a01b9060a01b169061ffff60a01b1916171790555160048401555191015582519161055881610ca4565b825288820152a460017f9b779b17422d0df92223018b32b4d1fa46e071723d6817e2486d003becc55f0055604051908152f35b610596878092610cf3565b6105a0575f610404565b8580fd5b6040513d89823e3d90fd5b816105b991610cf3565b6105a057855f6103c8565b6040513d84823e3d90fd5b6001918560065492803b1561017f578180916024604051809481936330113a1f60e11b83528b60048401525af180156105c457610694575b5083546001600160a01b0316803b1561017f578190602460405180948193639e6611a560e01b83528b60048401525af180156105a45761067f575b5060406005959493838361067a60209a967f76d6ae576845fe70321f4ac9ef3deb14100909d606cf45ead8540774b4d0f92e96610ec4565b61043c565b61068a878092610cf3565b6105a0575f610642565b8161069e91610cf3565b6105a057855f610607565b90600a6106b7920690610def565b5f61037c565b610319955060ff80979550809450610310610308948261030881966106fa839760e03d60e011610717575b6106f28183610cf3565b810190610d92565b505050509e9199909e9c9e9d5050509698505050945050506102e7565b503d6106e8565b6040513d8b823e3d90fd5b915050610745915060e03d60e011610717576106f28183610cf3565b505050509190915f6102b6565b6040513d88823e3d90fd5b61078091925060203d602011610787575b6107788183610cf3565b810190610d15565b905f610287565b503d61076e565b6040513d87823e3d90fd5b60405162461bcd60e51b815260206004820152600c60248201526b29b0b6b2903334b3b43a32b960a11b6044820152606490fd5b6107e6915060203d602011610787576107788183610cf3565b5f61023a565b50346100f257806003193601126100f257546040516001600160a01b039091168152602090f35b50346100f257806003193601126100f2576020600554604051908152f35b50346100f257806003193601126100f25761084a610fb2565b80546001600160a01b03198116825581906001600160a01b03167f8be0079c531659141344cd1fd0a4f28419497f9722a3daafe3b4186f6b6457e08280a380f35b50346100f25760203660031901126100f25760406020916004358152600883522054604051908152f35b50346100f25760203660031901126100f2576108cf610fb2565b60043560075580f35b50346100f25760203660031901126100f257604061010091600435815260046020522080549060018101549060018060a01b03600282015416600382015460ff8160a01c169060ff8160a81c169260056004860154950154956040519788526020880152604087015260018060a01b0316606086015261095781610ca4565b608085015261096581610ca4565b60a084015260c083015260e0820152f35b50346100f25760203660031901126100f257610990610fb2565b60043560065580f35b50346100f25760203660031901126100f2576109b3610fb2565b60043560055580f35b50346100f257806003193601126100f2576002546040516001600160a01b039091168152602090f35b5034610c55576020366003190112610c555760043590610a03610e0a565b6001546040516331a9108f60e11b8152600481018490526001600160a01b0390911690602081602481855afa8015610c4a57610a50915f916107cd57506001600160a01b03163314610d34565b610a5983610e68565b60405163ad217ae560e01b81526004810184905260e081602481855afa908115610c4a57610a9e915f5f5f92610c6d575b60ff80809495506103089392169116610def565b6064600354604051610aeb8161036360208201948a3344428993916094959391855260208501526bffffffffffffffffffffffff199060601b166040840152605483015260748201520190565b519020066064019081606411610c595710610bf55750600554600154909282916001600160a01b0316803b15610bf157828091602460405180948193639e6611a560e01b83528760048401525af18015610be657610bd1575b5083610b5260209533610ec4565b818352600885524260408420557f76d6ae576845fe70321f4ac9ef3deb14100909d606cf45ead8540774b4d0f92e6040610b8d600354610dfc565b958693846003558251610b9f81610cc2565b868152600586898c8401818152878501903382526060860191838352608087019084825260a088019261049c8b610ca4565b610bdc838092610cf3565b61017f575f610b44565b6040513d85823e3d90fd5b8280fd5b91906001915f843b15610c55575f80956024604051809881936330113a1f60e11b83528760048401525af1948515610c4a57602095610c35575b50610b52565b610c429193505f90610cf3565b5f915f610c2f565b6040513d5f823e3d90fd5b5f80fd5b634e487b7160e01b5f52601160045260245ffd5b50505060ff61030881610c8f819460e03d60e011610717576106f28183610cf3565b50505050959192909594505050905082610a8a565b60021115610cae57565b634e487b7160e01b5f52602160045260245ffd5b610100810190811067ffffffffffffffff821117610cdf57604052565b634e487b7160e01b5f52604160045260245ffd5b90601f8019910116810190811067ffffffffffffffff821117610cdf57604052565b90816020910312610c5557516001600160a01b0381168103610c555790565b15610d3b57565b60405162461bcd60e51b815260206004820152601060248201526f2737ba103cb7bab9103334b3b43a32b960811b6044820152606490fd5b519060ff82168203610c5557565b519063ffffffff82168203610c5557565b908160e0910312610c5557610da681610d73565b91610db360208301610d73565b91610dc060408201610d73565b91610dcd60608301610d73565b91610dda60808201610d81565b9160c0610de960a08401610d81565b92015190565b91908201809211610c5957565b5f198114610c595760010190565b60027f9b779b17422d0df92223018b32b4d1fa46e071723d6817e2486d003becc55f005414610e595760027f9b779b17422d0df92223018b32b4d1fa46e071723d6817e2486d003becc55f0055565b633ee5aeb560e01b5f5260045ffd5b5f526008602052610e8060405f205460075490610def565b4210610e8857565b60405162461bcd60e51b81526020600482015260146024820152732334b3b43a32b91031b7b7b634b733903237bbb760611b6044820152606490fd5b6002546040516370a0823160e01b81523060048201526001600160a01b039091169290602081602481875afa8015610c4a5782915f91610f7d575b501015610f0b57505050565b60405163a9059cbb60e01b81526001600160a01b039092166004830152602482015290602090829060449082905f905af18015610c4a57610f495750565b6020813d602011610f75575b81610f6260209383610cf3565b81010312610c55575180151503610c5557565b3d9150610f55565b9150506020813d602011610faa575b81610f9960209383610cf3565b81010312610c55578190515f610eff565b3d9150610f8c565b5f546001600160a01b03163303610fc557565b63118cdaa760e01b5f523360045260245ffdfea2646970667358221220b7c1383a9b76fa1b02e0f24ed3049118564076e254d87489c22586e2b03b89f064736f6c634300081c0033","opcodes":"PUSH1 0x80 CALLVALUE PUSH2 0x131 JUMPI PUSH1 0x1F PUSH2 0x116C CODESIZE DUP2 SWAP1 SUB SWAP2 DUP3 ADD PUSH1 0x1F NOT AND DUP4 ADD SWAP2 PUSH1 0x1 PUSH1 0x1 PUSH1 0x40 SHL SUB DUP4 GT DUP5 DUP5 LT OR PUSH2 0x135 JUMPI DUP1 DUP5 SWAP3 PUSH1 0x40 SWAP5 DUP6 MSTORE DUP4 CODECOPY DUP2 ADD SUB SLT PUSH2 0x131 JUMPI PUSH2 0x52 PUSH1 0x20 PUSH2 0x4B DUP4 PUSH2 0x149 JUMP JUMPDEST SWAP3 ADD PUSH2 0x149 JUMP JUMPDEST CALLER ISZERO PUSH2 0x11E JUMPI PUSH0 DUP1 SLOAD CALLER PUSH1 0x1 PUSH1 0x1 PUSH1 0xA0 SHL SUB NOT DUP3 AND DUP2 OR DUP4 SSTORE PUSH1 0x40 MLOAD SWAP5 SWAP3 SWAP1 SWAP2 PUSH1 0x1 PUSH1 0x1 PUSH1 0xA0 SHL SUB AND SWAP1 PUSH32 0x8BE0079C531659141344CD1FD0A4F28419497F9722A3DAAFE3B4186F6B6457E0 SWAP1 DUP1 LOG3 PUSH1 0x1 PUSH32 0x9B779B17422D0DF92223018B32B4D1FA46E071723D6817E2486D003BECC55F00 DUP2 SWAP1 SSTORE PUSH8 0x8AC7230489E80000 PUSH1 0x5 SSTORE PUSH9 0x15AF1D78B58C40000 PUSH1 0x6 SSTORE PUSH2 0xE10 PUSH1 0x7 SSTORE DUP1 SLOAD PUSH1 0x1 PUSH1 0x1 PUSH1 0xA0 SHL SUB SWAP3 DUP4 AND PUSH1 0x1 PUSH1 0x1 PUSH1 0xA0 SHL SUB NOT SWAP2 DUP3 AND OR SWAP1 SWAP2 SSTORE PUSH1 0x2 DUP1 SLOAD SWAP4 SWAP1 SWAP3 AND SWAP3 AND SWAP2 SWAP1 SWAP2 OR SWAP1 SSTORE PUSH2 0x100E SWAP1 DUP2 PUSH2 0x15E DUP3 CODECOPY RETURN JUMPDEST PUSH4 0x1E4FBDF7 PUSH1 0xE0 SHL PUSH0 MSTORE PUSH0 PUSH1 0x4 MSTORE PUSH1 0x24 PUSH0 REVERT JUMPDEST PUSH0 DUP1 REVERT JUMPDEST PUSH4 0x4E487B71 PUSH1 0xE0 SHL PUSH0 MSTORE PUSH1 0x41 PUSH1 0x4 MSTORE PUSH1 0x24 PUSH0 REVERT JUMPDEST MLOAD SWAP1 PUSH1 0x1 PUSH1 0x1 PUSH1 0xA0 SHL SUB DUP3 AND DUP3 SUB PUSH2 0x131 JUMPI JUMP INVALID PUSH1 0x80 PUSH1 0x40 MSTORE PUSH1 0x4 CALLDATASIZE LT ISZERO PUSH2 0x11 JUMPI PUSH0 DUP1 REVERT JUMPDEST PUSH0 PUSH0 CALLDATALOAD PUSH1 0xE0 SHR DUP1 PUSH4 0x3B52AF07 EQ PUSH2 0x9E5 JUMPI DUP1 PUSH4 0x48F7D5AB EQ PUSH2 0x9BC JUMPI DUP1 PUSH4 0x5693E976 EQ PUSH2 0x999 JUMPI DUP1 PUSH4 0x56BA3041 EQ PUSH2 0x976 JUMPI DUP1 PUSH4 0x606D2E96 EQ PUSH2 0x8D8 JUMPI DUP1 PUSH4 0x64A291AA EQ PUSH2 0x8B5 JUMPI DUP1 PUSH4 0x70EA9F68 EQ PUSH2 0x88B JUMPI DUP1 PUSH4 0x715018A6 EQ PUSH2 0x831 JUMPI DUP1 PUSH4 0x8613379A EQ PUSH2 0x813 JUMPI DUP1 PUSH4 0x8DA5CB5B EQ PUSH2 0x7EC JUMPI DUP1 PUSH4 0x90D354A9 EQ PUSH2 0x1DD JUMPI DUP1 PUSH4 0xBA3CD937 EQ PUSH2 0x1BF JUMPI DUP1 PUSH4 0xD1006A6F EQ PUSH2 0x1A1 JUMPI DUP1 PUSH4 0xE00B6363 EQ PUSH2 0x183 JUMPI DUP1 PUSH4 0xF2FDE38B EQ PUSH2 0xF5 JUMPI PUSH4 0xFA818CF6 EQ PUSH2 0xCA JUMPI PUSH0 DUP1 REVERT JUMPDEST CALLVALUE PUSH2 0xF2 JUMPI DUP1 PUSH1 0x3 NOT CALLDATASIZE ADD SLT PUSH2 0xF2 JUMPI PUSH1 0x1 SLOAD PUSH1 0x40 MLOAD PUSH1 0x1 PUSH1 0x1 PUSH1 0xA0 SHL SUB SWAP1 SWAP2 AND DUP2 MSTORE PUSH1 0x20 SWAP1 RETURN JUMPDEST DUP1 REVERT JUMPDEST POP CALLVALUE PUSH2 0xF2 JUMPI PUSH1 0x20 CALLDATASIZE PUSH1 0x3 NOT ADD SLT PUSH2 0xF2 JUMPI PUSH1 0x4 CALLDATALOAD PUSH1 0x1 PUSH1 0x1 PUSH1 0xA0 SHL SUB DUP2 AND SWAP1 DUP2 SWAP1 SUB PUSH2 0x17F JUMPI PUSH2 0x124 PUSH2 0xFB2 JUMP JUMPDEST DUP1 ISZERO PUSH2 0x16B JUMPI DUP2 SLOAD PUSH1 0x1 PUSH1 0x1 PUSH1 0xA0 SHL SUB NOT DUP2 AND DUP3 OR DUP4 SSTORE PUSH1 0x1 PUSH1 0x1 PUSH1 0xA0 SHL SUB AND PUSH32 0x8BE0079C531659141344CD1FD0A4F28419497F9722A3DAAFE3B4186F6B6457E0 DUP4 DUP1 LOG3 DUP1 RETURN JUMPDEST PUSH4 0x1E4FBDF7 PUSH1 0xE0 SHL DUP3 MSTORE PUSH1 0x4 DUP3 SWAP1 MSTORE PUSH1 0x24 DUP3 REVERT JUMPDEST POP DUP1 REVERT JUMPDEST POP CALLVALUE PUSH2 0xF2 JUMPI DUP1 PUSH1 0x3 NOT CALLDATASIZE ADD SLT PUSH2 0xF2 JUMPI PUSH1 0x20 PUSH1 0x3 SLOAD PUSH1 0x40 MLOAD SWAP1 DUP2 MSTORE RETURN JUMPDEST POP CALLVALUE PUSH2 0xF2 JUMPI DUP1 PUSH1 0x3 NOT CALLDATASIZE ADD SLT PUSH2 0xF2 JUMPI PUSH1 0x20 PUSH1 0x7 SLOAD PUSH1 0x40 MLOAD SWAP1 DUP2 MSTORE RETURN JUMPDEST POP CALLVALUE PUSH2 0xF2 JUMPI DUP1 PUSH1 0x3 NOT CALLDATASIZE ADD SLT PUSH2 0xF2 JUMPI PUSH1 0x20 PUSH1 0x6 SLOAD PUSH1 0x40 MLOAD SWAP1 DUP2 MSTORE RETURN JUMPDEST POP CALLVALUE PUSH2 0xF2 JUMPI PUSH1 0x40 CALLDATASIZE PUSH1 0x3 NOT ADD SLT PUSH2 0xF2 JUMPI PUSH1 0x24 CALLDATALOAD PUSH1 0x4 CALLDATALOAD PUSH2 0x1FD PUSH2 0xE0A JUMP JUMPDEST PUSH1 0x1 SLOAD PUSH1 0x40 MLOAD PUSH4 0x31A9108F PUSH1 0xE1 SHL DUP2 MSTORE PUSH1 0x4 DUP2 ADD DUP4 SWAP1 MSTORE PUSH1 0x1 PUSH1 0x1 PUSH1 0xA0 SHL SUB SWAP1 SWAP2 AND SWAP1 PUSH1 0x20 DUP2 PUSH1 0x24 DUP2 DUP6 GAS STATICCALL DUP1 ISZERO PUSH2 0x78E JUMPI PUSH2 0x24B SWAP2 DUP7 SWAP2 PUSH2 0x7CD JUMPI JUMPDEST POP PUSH1 0x1 PUSH1 0x1 PUSH1 0xA0 SHL SUB AND CALLER EQ PUSH2 0xD34 JUMP JUMPDEST DUP3 DUP3 EQ PUSH2 0x799 JUMPI PUSH2 0x25B DUP3 PUSH2 0xE68 JUMP JUMPDEST PUSH1 0x40 MLOAD PUSH4 0x31A9108F PUSH1 0xE1 SHL DUP2 MSTORE PUSH1 0x4 DUP2 ADD DUP5 SWAP1 MSTORE SWAP1 PUSH1 0x20 DUP3 PUSH1 0x24 DUP2 DUP5 GAS STATICCALL SWAP2 DUP3 ISZERO PUSH2 0x78E JUMPI DUP6 SWAP3 PUSH2 0x75D JUMPI JUMPDEST POP PUSH1 0x40 MLOAD PUSH4 0xAD217AE5 PUSH1 0xE0 SHL DUP2 MSTORE PUSH1 0x4 DUP2 ADD DUP5 SWAP1 MSTORE PUSH1 0xE0 DUP2 PUSH1 0x24 DUP2 DUP6 GAS STATICCALL DUP1 ISZERO PUSH2 0x752 JUMPI DUP7 SWAP1 DUP8 SWAP3 DUP9 SWAP2 PUSH2 0x729 JUMPI JUMPDEST POP PUSH1 0x40 MLOAD PUSH4 0xAD217AE5 PUSH1 0xE0 SHL DUP2 MSTORE PUSH1 0x4 DUP2 ADD DUP9 SWAP1 MSTORE SWAP2 PUSH1 0xE0 DUP4 PUSH1 0x24 DUP2 DUP9 GAS STATICCALL SWAP2 DUP3 ISZERO PUSH2 0x71E JUMPI DUP10 SWAP2 DUP11 SWAP5 DUP12 SWAP5 PUSH2 0x6BD JUMPI JUMPDEST POP SWAP2 PUSH1 0xFF DUP1 PUSH2 0x310 PUSH2 0x308 SWAP5 DUP3 PUSH2 0x308 DUP2 SWAP9 DUP3 DUP1 PUSH2 0x319 SWAP14 SWAP15 AND SWAP2 AND PUSH2 0xDEF JUMP JUMPDEST SWAP2 AND SWAP1 PUSH2 0xDEF JUMP JUMPDEST SWAP8 AND SWAP2 AND PUSH2 0xDEF JUMP JUMPDEST SWAP1 PUSH1 0x40 MLOAD PUSH1 0x20 DUP2 ADD SWAP1 PUSH2 0x371 DUP2 PUSH2 0x363 DUP11 DUP11 CALLER PREVRANDAO TIMESTAMP DUP10 SWAP4 SWAP2 PUSH1 0x94 SWAP6 SWAP4 SWAP2 DUP6 MSTORE PUSH1 0x20 DUP6 ADD MSTORE PUSH12 0xFFFFFFFFFFFFFFFFFFFFFFFF NOT SWAP1 PUSH1 0x60 SHL AND PUSH1 0x40 DUP5 ADD MSTORE PUSH1 0x54 DUP4 ADD MSTORE PUSH1 0x74 DUP3 ADD MSTORE ADD SWAP1 JUMP JUMPDEST SUB PUSH1 0x1F NOT DUP2 ADD DUP4 MSTORE DUP3 PUSH2 0xCF3 JUMP JUMPDEST MLOAD SWAP1 KECCAK256 DUP3 DUP3 EQ PUSH2 0x6A9 JUMPI JUMPDEST POP GT ISZERO PUSH2 0x5CF JUMPI POP PUSH1 0x6 SLOAD PUSH1 0x1 SLOAD DUP6 SWAP3 SWAP1 DUP4 SWAP1 PUSH1 0x1 PUSH1 0x1 PUSH1 0xA0 SHL SUB AND DUP1 EXTCODESIZE ISZERO PUSH2 0x17F JUMPI DUP2 DUP1 SWAP2 PUSH1 0x24 PUSH1 0x40 MLOAD DUP1 SWAP5 DUP2 SWAP4 PUSH4 0x9E6611A5 PUSH1 0xE0 SHL DUP4 MSTORE DUP12 PUSH1 0x4 DUP5 ADD MSTORE GAS CALL DUP1 ISZERO PUSH2 0x5C4 JUMPI PUSH2 0x5AF JUMPI JUMPDEST POP PUSH1 0x1 SLOAD PUSH1 0x1 PUSH1 0x1 PUSH1 0xA0 SHL SUB AND DUP1 EXTCODESIZE ISZERO PUSH2 0x17F JUMPI DUP2 SWAP1 PUSH1 0x24 PUSH1 0x40 MLOAD DUP1 SWAP5 DUP2 SWAP4 PUSH4 0x30113A1F PUSH1 0xE1 SHL DUP4 MSTORE DUP12 PUSH1 0x4 DUP5 ADD MSTORE GAS CALL DUP1 ISZERO PUSH2 0x5A4 JUMPI PUSH2 0x58B JUMPI JUMPDEST POP PUSH1 0x40 PUSH1 0x5 SWAP6 SWAP5 SWAP4 DUP4 PUSH32 0x76D6AE576845FE70321F4AC9EF3DEB14100909D606CF45EAD8540774B4D0F92E SWAP4 PUSH2 0x43C PUSH1 0x20 SWAP11 SWAP7 CALLER PUSH2 0xEC4 JUMP JUMPDEST DUP7 DUP7 MSTORE PUSH1 0x8 DUP11 MSTORE TIMESTAMP DUP5 DUP8 KECCAK256 SSTORE PUSH2 0x453 PUSH1 0x3 SLOAD PUSH2 0xDFC JUMP JUMPDEST SWAP9 DUP10 DUP1 SWAP8 DUP2 PUSH1 0x3 SSTORE DUP7 MLOAD SWAP4 PUSH2 0x467 DUP6 PUSH2 0xCC2 JUMP JUMPDEST DUP11 DUP6 MSTORE DUP14 DUP6 ADD DUP13 DUP2 MSTORE DUP9 DUP7 ADD CALLER DUP2 MSTORE PUSH1 0x60 DUP8 ADD SWAP3 PUSH1 0x1 DUP1 PUSH1 0xA0 SHL SUB AND DUP4 MSTORE PUSH1 0x80 DUP8 ADD SWAP1 PUSH1 0x1 DUP3 MSTORE PUSH1 0xA0 DUP9 ADD SWAP3 PUSH2 0x49C DUP12 PUSH2 0xCA4 JUMP JUMPDEST DUP11 DUP5 MSTORE PUSH1 0xC0 DUP10 ADD DUP11 DUP2 MSTORE TIMESTAMP PUSH1 0xE0 DUP12 ADD SWAP1 DUP2 MSTORE SWAP8 DUP8 MSTORE PUSH1 0x4 PUSH1 0x20 MSTORE SWAP6 DUP13 SWAP1 KECCAK256 SWAP9 MLOAD DUP10 SSTORE MLOAD PUSH1 0x1 DUP10 ADD SSTORE MLOAD PUSH1 0x2 DUP9 ADD DUP1 SLOAD PUSH1 0x1 PUSH1 0x1 PUSH1 0xA0 SHL SUB NOT SWAP1 DUP2 AND PUSH1 0x1 PUSH1 0x1 PUSH1 0xA0 SHL SUB SWAP4 DUP5 AND OR SWAP1 SWAP2 SSTORE SWAP4 MLOAD PUSH1 0x3 DUP10 ADD DUP1 SLOAD SWAP1 SWAP6 AND SWAP2 AND OR DUP4 SSTORE MLOAD SWAP1 PUSH2 0x501 DUP3 PUSH2 0xCA4 JUMP JUMPDEST PUSH2 0x50A DUP3 PUSH2 0xCA4 JUMP JUMPDEST DUP3 SLOAD SWAP1 MLOAD PUSH2 0x517 DUP2 PUSH2 0xCA4 JUMP JUMPDEST PUSH2 0x520 DUP2 PUSH2 0xCA4 JUMP JUMPDEST PUSH1 0xFF PUSH1 0xA8 SHL SWAP1 PUSH1 0xA8 SHL AND SWAP2 PUSH1 0xFF PUSH1 0xA0 SHL SWAP1 PUSH1 0xA0 SHL AND SWAP1 PUSH2 0xFFFF PUSH1 0xA0 SHL NOT AND OR OR SWAP1 SSTORE MLOAD PUSH1 0x4 DUP5 ADD SSTORE MLOAD SWAP2 ADD SSTORE DUP3 MLOAD SWAP2 PUSH2 0x558 DUP2 PUSH2 0xCA4 JUMP JUMPDEST DUP3 MSTORE DUP9 DUP3 ADD MSTORE LOG4 PUSH1 0x1 PUSH32 0x9B779B17422D0DF92223018B32B4D1FA46E071723D6817E2486D003BECC55F00 SSTORE PUSH1 0x40 MLOAD SWAP1 DUP2 MSTORE RETURN JUMPDEST PUSH2 0x596 DUP8 DUP1 SWAP3 PUSH2 0xCF3 JUMP JUMPDEST PUSH2 0x5A0 JUMPI PUSH0 PUSH2 0x404 JUMP JUMPDEST DUP6 DUP1 REVERT JUMPDEST PUSH1 0x40 MLOAD RETURNDATASIZE DUP10 DUP3 RETURNDATACOPY RETURNDATASIZE SWAP1 REVERT JUMPDEST DUP2 PUSH2 0x5B9 SWAP2 PUSH2 0xCF3 JUMP JUMPDEST PUSH2 0x5A0 JUMPI DUP6 PUSH0 PUSH2 0x3C8 JUMP JUMPDEST PUSH1 0x40 MLOAD RETURNDATASIZE DUP5 DUP3 RETURNDATACOPY RETURNDATASIZE SWAP1 REVERT JUMPDEST PUSH1 0x1 SWAP2 DUP6 PUSH1 0x6 SLOAD SWAP3 DUP1 EXTCODESIZE ISZERO PUSH2 0x17F JUMPI DUP2 DUP1 SWAP2 PUSH1 0x24 PUSH1 0x40 MLOAD DUP1 SWAP5 DUP2 SWAP4 PUSH4 0x30113A1F PUSH1 0xE1 SHL DUP4 MSTORE DUP12 PUSH1 0x4 DUP5 ADD MSTORE GAS CALL DUP1 ISZERO PUSH2 0x5C4 JUMPI PUSH2 0x694 JUMPI JUMPDEST POP DUP4 SLOAD PUSH1 0x1 PUSH1 0x1 PUSH1 0xA0 SHL SUB AND DUP1 EXTCODESIZE ISZERO PUSH2 0x17F JUMPI DUP2 SWAP1 PUSH1 0x24 PUSH1 0x40 MLOAD DUP1 SWAP5 DUP2 SWAP4 PUSH4 0x9E6611A5 PUSH1 0xE0 SHL DUP4 MSTORE DUP12 PUSH1 0x4 DUP5 ADD MSTORE GAS CALL DUP1 ISZERO PUSH2 0x5A4 JUMPI PUSH2 0x67F JUMPI JUMPDEST POP PUSH1 0x40 PUSH1 0x5 SWAP6 SWAP5 SWAP4 DUP4 DUP4 PUSH2 0x67A PUSH1 0x20 SWAP11 SWAP7 PUSH32 0x76D6AE576845FE70321F4AC9EF3DEB14100909D606CF45EAD8540774B4D0F92E SWAP7 PUSH2 0xEC4 JUMP JUMPDEST PUSH2 0x43C JUMP JUMPDEST PUSH2 0x68A DUP8 DUP1 SWAP3 PUSH2 0xCF3 JUMP JUMPDEST PUSH2 0x5A0 JUMPI PUSH0 PUSH2 0x642 JUMP JUMPDEST DUP2 PUSH2 0x69E SWAP2 PUSH2 0xCF3 JUMP JUMPDEST PUSH2 0x5A0 JUMPI DUP6 PUSH0 PUSH2 0x607 JUMP JUMPDEST SWAP1 PUSH1 0xA PUSH2 0x6B7 SWAP3 MOD SWAP1 PUSH2 0xDEF JUMP JUMPDEST PUSH0 PUSH2 0x37C JUMP JUMPDEST PUSH2 0x319 SWAP6 POP PUSH1 0xFF DUP1 SWAP8 SWAP6 POP DUP1 SWAP5 POP PUSH2 0x310 PUSH2 0x308 SWAP5 DUP3 PUSH2 0x308 DUP2 SWAP7 PUSH2 0x6FA DUP4 SWAP8 PUSH1 0xE0 RETURNDATASIZE PUSH1 0xE0 GT PUSH2 0x717 JUMPI JUMPDEST PUSH2 0x6F2 DUP2 DUP4 PUSH2 0xCF3 JUMP JUMPDEST DUP2 ADD SWAP1 PUSH2 0xD92 JUMP JUMPDEST POP POP POP POP SWAP15 SWAP2 SWAP10 SWAP1 SWAP15 SWAP13 SWAP15 SWAP14 POP POP POP SWAP7 SWAP9 POP POP POP SWAP5 POP POP POP PUSH2 0x2E7 JUMP JUMPDEST POP RETURNDATASIZE PUSH2 0x6E8 JUMP JUMPDEST PUSH1 0x40 MLOAD RETURNDATASIZE DUP12 DUP3 RETURNDATACOPY RETURNDATASIZE SWAP1 REVERT JUMPDEST SWAP2 POP POP PUSH2 0x745 SWAP2 POP PUSH1 0xE0 RETURNDATASIZE PUSH1 0xE0 GT PUSH2 0x717 JUMPI PUSH2 0x6F2 DUP2 DUP4 PUSH2 0xCF3 JUMP JUMPDEST POP POP POP POP SWAP2 SWAP1 SWAP2 PUSH0 PUSH2 0x2B6 JUMP JUMPDEST PUSH1 0x40 MLOAD RETURNDATASIZE DUP9 DUP3 RETURNDATACOPY RETURNDATASIZE SWAP1 REVERT JUMPDEST PUSH2 0x780 SWAP2 SWAP3 POP PUSH1 0x20 RETURNDATASIZE PUSH1 0x20 GT PUSH2 0x787 JUMPI JUMPDEST PUSH2 0x778 DUP2 DUP4 PUSH2 0xCF3 JUMP JUMPDEST DUP2 ADD SWAP1 PUSH2 0xD15 JUMP JUMPDEST SWAP1 PUSH0 PUSH2 0x287 JUMP JUMPDEST POP RETURNDATASIZE PUSH2 0x76E JUMP JUMPDEST PUSH1 0x40 MLOAD RETURNDATASIZE DUP8 DUP3 RETURNDATACOPY RETURNDATASIZE SWAP1 REVERT JUMPDEST PUSH1 0x40 MLOAD PUSH3 0x461BCD PUSH1 0xE5 SHL DUP2 MSTORE PUSH1 0x20 PUSH1 0x4 DUP3 ADD MSTORE PUSH1 0xC PUSH1 0x24 DUP3 ADD MSTORE PUSH12 0x29B0B6B2903334B3B43A32B9 PUSH1 0xA1 SHL PUSH1 0x44 DUP3 ADD MSTORE PUSH1 0x64 SWAP1 REVERT JUMPDEST PUSH2 0x7E6 SWAP2 POP PUSH1 0x20 RETURNDATASIZE PUSH1 0x20 GT PUSH2 0x787 JUMPI PUSH2 0x778 DUP2 DUP4 PUSH2 0xCF3 JUMP JUMPDEST PUSH0 PUSH2 0x23A JUMP JUMPDEST POP CALLVALUE PUSH2 0xF2 JUMPI DUP1 PUSH1 0x3 NOT CALLDATASIZE ADD SLT PUSH2 0xF2 JUMPI SLOAD PUSH1 0x40 MLOAD PUSH1 0x1 PUSH1 0x1 PUSH1 0xA0 SHL SUB SWAP1 SWAP2 AND DUP2 MSTORE PUSH1 0x20 SWAP1 RETURN JUMPDEST POP CALLVALUE PUSH2 0xF2 JUMPI DUP1 PUSH1 0x3 NOT CALLDATASIZE ADD SLT PUSH2 0xF2 JUMPI PUSH1 0x20 PUSH1 0x5 SLOAD PUSH1 0x40 MLOAD SWAP1 DUP2 MSTORE RETURN JUMPDEST POP CALLVALUE PUSH2 0xF2 JUMPI DUP1 PUSH1 0x3 NOT CALLDATASIZE ADD SLT PUSH2 0xF2 JUMPI PUSH2 0x84A PUSH2 0xFB2 JUMP JUMPDEST DUP1 SLOAD PUSH1 0x1 PUSH1 0x1 PUSH1 0xA0 SHL SUB NOT DUP2 AND DUP3 SSTORE DUP2 SWAP1 PUSH1 0x1 PUSH1 0x1 PUSH1 0xA0 SHL SUB AND PUSH32 0x8BE0079C531659141344CD1FD0A4F28419497F9722A3DAAFE3B4186F6B6457E0 DUP3 DUP1 LOG3 DUP1 RETURN JUMPDEST POP CALLVALUE PUSH2 0xF2 JUMPI PUSH1 0x20 CALLDATASIZE PUSH1 0x3 NOT ADD SLT PUSH2 0xF2 JUMPI PUSH1 0x40 PUSH1 0x20 SWAP2 PUSH1 0x4 CALLDATALOAD DUP2 MSTORE PUSH1 0x8 DUP4 MSTORE KECCAK256 SLOAD PUSH1 0x40 MLOAD SWAP1 DUP2 MSTORE RETURN JUMPDEST POP CALLVALUE PUSH2 0xF2 JUMPI PUSH1 0x20 CALLDATASIZE PUSH1 0x3 NOT ADD SLT PUSH2 0xF2 JUMPI PUSH2 0x8CF PUSH2 0xFB2 JUMP JUMPDEST PUSH1 0x4 CALLDATALOAD PUSH1 0x7 SSTORE DUP1 RETURN JUMPDEST POP CALLVALUE PUSH2 0xF2 JUMPI PUSH1 0x20 CALLDATASIZE PUSH1 0x3 NOT ADD SLT PUSH2 0xF2 JUMPI PUSH1 0x40 PUSH2 0x100 SWAP2 PUSH1 0x4 CALLDATALOAD DUP2 MSTORE PUSH1 0x4 PUSH1 0x20 MSTORE KECCAK256 DUP1 SLOAD SWAP1 PUSH1 0x1 DUP2 ADD SLOAD SWAP1 PUSH1 0x1 DUP1 PUSH1 0xA0 SHL SUB PUSH1 0x2 DUP3 ADD SLOAD AND PUSH1 0x3 DUP3 ADD SLOAD PUSH1 0xFF DUP2 PUSH1 0xA0 SHR AND SWAP1 PUSH1 0xFF DUP2 PUSH1 0xA8 SHR AND SWAP3 PUSH1 0x5 PUSH1 0x4 DUP7 ADD SLOAD SWAP6 ADD SLOAD SWAP6 PUSH1 0x40 MLOAD SWAP8 DUP9 MSTORE PUSH1 0x20 DUP9 ADD MSTORE PUSH1 0x40 DUP8 ADD MSTORE PUSH1 0x1 DUP1 PUSH1 0xA0 SHL SUB AND PUSH1 0x60 DUP7 ADD MSTORE PUSH2 0x957 DUP2 PUSH2 0xCA4 JUMP JUMPDEST PUSH1 0x80 DUP6 ADD MSTORE PUSH2 0x965 DUP2 PUSH2 0xCA4 JUMP JUMPDEST PUSH1 0xA0 DUP5 ADD MSTORE PUSH1 0xC0 DUP4 ADD MSTORE PUSH1 0xE0 DUP3 ADD MSTORE RETURN JUMPDEST POP CALLVALUE PUSH2 0xF2 JUMPI PUSH1 0x20 CALLDATASIZE PUSH1 0x3 NOT ADD SLT PUSH2 0xF2 JUMPI PUSH2 0x990 PUSH2 0xFB2 JUMP JUMPDEST PUSH1 0x4 CALLDATALOAD PUSH1 0x6 SSTORE DUP1 RETURN JUMPDEST POP CALLVALUE PUSH2 0xF2 JUMPI PUSH1 0x20 CALLDATASIZE PUSH1 0x3 NOT ADD SLT PUSH2 0xF2 JUMPI PUSH2 0x9B3 PUSH2 0xFB2 JUMP JUMPDEST PUSH1 0x4 CALLDATALOAD PUSH1 0x5 SSTORE DUP1 RETURN JUMPDEST POP CALLVALUE PUSH2 0xF2 JUMPI DUP1 PUSH1 0x3 NOT CALLDATASIZE ADD SLT PUSH2 0xF2 JUMPI PUSH1 0x2 SLOAD PUSH1 0x40 MLOAD PUSH1 0x1 PUSH1 0x1 PUSH1 0xA0 SHL SUB SWAP1 SWAP2 AND DUP2 MSTORE PUSH1 0x20 SWAP1 RETURN JUMPDEST POP CALLVALUE PUSH2 0xC55 JUMPI PUSH1 0x20 CALLDATASIZE PUSH1 0x3 NOT ADD SLT PUSH2 0xC55 JUMPI PUSH1 0x4 CALLDATALOAD SWAP1 PUSH2 0xA03 PUSH2 0xE0A JUMP JUMPDEST PUSH1 0x1 SLOAD PUSH1 0x40 MLOAD PUSH4 0x31A9108F PUSH1 0xE1 SHL DUP2 MSTORE PUSH1 0x4 DUP2 ADD DUP5 SWAP1 MSTORE PUSH1 0x1 PUSH1 0x1 PUSH1 0xA0 SHL SUB SWAP1 SWAP2 AND SWAP1 PUSH1 0x20 DUP2 PUSH1 0x24 DUP2 DUP6 GAS STATICCALL DUP1 ISZERO PUSH2 0xC4A JUMPI PUSH2 0xA50 SWAP2 PUSH0 SWAP2 PUSH2 0x7CD JUMPI POP PUSH1 0x1 PUSH1 0x1 PUSH1 0xA0 SHL SUB AND CALLER EQ PUSH2 0xD34 JUMP JUMPDEST PUSH2 0xA59 DUP4 PUSH2 0xE68 JUMP JUMPDEST PUSH1 0x40 MLOAD PUSH4 0xAD217AE5 PUSH1 0xE0 SHL DUP2 MSTORE PUSH1 0x4 DUP2 ADD DUP5 SWAP1 MSTORE PUSH1 0xE0 DUP2 PUSH1 0x24 DUP2 DUP6 GAS STATICCALL SWAP1 DUP2 ISZERO PUSH2 0xC4A JUMPI PUSH2 0xA9E SWAP2 PUSH0 PUSH0 PUSH0 SWAP3 PUSH2 0xC6D JUMPI JUMPDEST PUSH1 0xFF DUP1 DUP1 SWAP5 SWAP6 POP PUSH2 0x308 SWAP4 SWAP3 AND SWAP2 AND PUSH2 0xDEF JUMP JUMPDEST PUSH1 0x64 PUSH1 0x3 SLOAD PUSH1 0x40 MLOAD PUSH2 0xAEB DUP2 PUSH2 0x363 PUSH1 0x20 DUP3 ADD SWAP5 DUP11 CALLER PREVRANDAO TIMESTAMP DUP10 SWAP4 SWAP2 PUSH1 0x94 SWAP6 SWAP4 SWAP2 DUP6 MSTORE PUSH1 0x20 DUP6 ADD MSTORE PUSH12 0xFFFFFFFFFFFFFFFFFFFFFFFF NOT SWAP1 PUSH1 0x60 SHL AND PUSH1 0x40 DUP5 ADD MSTORE PUSH1 0x54 DUP4 ADD MSTORE PUSH1 0x74 DUP3 ADD MSTORE ADD SWAP1 JUMP JUMPDEST MLOAD SWAP1 KECCAK256 MOD PUSH1 0x64 ADD SWAP1 DUP2 PUSH1 0x64 GT PUSH2 0xC59 JUMPI LT PUSH2 0xBF5 JUMPI POP PUSH1 0x5 SLOAD PUSH1 0x1 SLOAD SWAP1 SWAP3 DUP3 SWAP2 PUSH1 0x1 PUSH1 0x1 PUSH1 0xA0 SHL SUB AND DUP1 EXTCODESIZE ISZERO PUSH2 0xBF1 JUMPI DUP3 DUP1 SWAP2 PUSH1 0x24 PUSH1 0x40 MLOAD DUP1 SWAP5 DUP2 SWAP4 PUSH4 0x9E6611A5 PUSH1 0xE0 SHL DUP4 MSTORE DUP8 PUSH1 0x4 DUP5 ADD MSTORE GAS CALL DUP1 ISZERO PUSH2 0xBE6 JUMPI PUSH2 0xBD1 JUMPI JUMPDEST POP DUP4 PUSH2 0xB52 PUSH1 0x20 SWAP6 CALLER PUSH2 0xEC4 JUMP JUMPDEST DUP2 DUP4 MSTORE PUSH1 0x8 DUP6 MSTORE TIMESTAMP PUSH1 0x40 DUP5 KECCAK256 SSTORE PUSH32 0x76D6AE576845FE70321F4AC9EF3DEB14100909D606CF45EAD8540774B4D0F92E PUSH1 0x40 PUSH2 0xB8D PUSH1 0x3 SLOAD PUSH2 0xDFC JUMP JUMPDEST SWAP6 DUP7 SWAP4 DUP5 PUSH1 0x3 SSTORE DUP3 MLOAD PUSH2 0xB9F DUP2 PUSH2 0xCC2 JUMP JUMPDEST DUP7 DUP2 MSTORE PUSH1 0x5 DUP7 DUP10 DUP13 DUP5 ADD DUP2 DUP2 MSTORE DUP8 DUP6 ADD SWAP1 CALLER DUP3 MSTORE PUSH1 0x60 DUP7 ADD SWAP2 DUP4 DUP4 MSTORE PUSH1 0x80 DUP8 ADD SWAP1 DUP5 DUP3 MSTORE PUSH1 0xA0 DUP9 ADD SWAP3 PUSH2 0x49C DUP12 PUSH2 0xCA4 JUMP JUMPDEST PUSH2 0xBDC DUP4 DUP1 SWAP3 PUSH2 0xCF3 JUMP JUMPDEST PUSH2 0x17F JUMPI PUSH0 PUSH2 0xB44 JUMP JUMPDEST PUSH1 0x40 MLOAD RETURNDATASIZE DUP6 DUP3 RETURNDATACOPY RETURNDATASIZE SWAP1 REVERT JUMPDEST DUP3 DUP1 REVERT JUMPDEST SWAP2 SWAP1 PUSH1 0x1 SWAP2 PUSH0 DUP5 EXTCODESIZE ISZERO PUSH2 0xC55 JUMPI PUSH0 DUP1 SWAP6 PUSH1 0x24 PUSH1 0x40 MLOAD DUP1 SWAP9 DUP2 SWAP4 PUSH4 0x30113A1F PUSH1 0xE1 SHL DUP4 MSTORE DUP8 PUSH1 0x4 DUP5 ADD MSTORE GAS CALL SWAP5 DUP6 ISZERO PUSH2 0xC4A JUMPI PUSH1 0x20 SWAP6 PUSH2 0xC35 JUMPI JUMPDEST POP PUSH2 0xB52 JUMP JUMPDEST PUSH2 0xC42 SWAP2 SWAP4 POP PUSH0 SWAP1 PUSH2 0xCF3 JUMP JUMPDEST PUSH0 SWAP2 PUSH0 PUSH2 0xC2F JUMP JUMPDEST PUSH1 0x40 MLOAD RETURNDATASIZE PUSH0 DUP3 RETURNDATACOPY RETURNDATASIZE SWAP1 REVERT JUMPDEST PUSH0 DUP1 REVERT JUMPDEST PUSH4 0x4E487B71 PUSH1 0xE0 SHL PUSH0 MSTORE PUSH1 0x11 PUSH1 0x4 MSTORE PUSH1 0x24 PUSH0 REVERT JUMPDEST POP POP POP PUSH1 0xFF PUSH2 0x308 DUP2 PUSH2 0xC8F DUP2 SWAP5 PUSH1 0xE0 RETURNDATASIZE PUSH1 0xE0 GT PUSH2 0x717 JUMPI PUSH2 0x6F2 DUP2 DUP4 PUSH2 0xCF3 JUMP JUMPDEST POP POP POP POP SWAP6 SWAP2 SWAP3 SWAP1 SWAP6 SWAP5 POP POP POP SWAP1 POP DUP3 PUSH2 0xA8A JUMP JUMPDEST PUSH1 0x2 GT ISZERO PUSH2 0xCAE JUMPI JUMP JUMPDEST PUSH4 0x4E487B71 PUSH1 0xE0 SHL PUSH0 MSTORE PUSH1 0x21 PUSH1 0x4 MSTORE PUSH1 0x24 PUSH0 REVERT JUMPDEST PUSH2 0x100 DUP2 ADD SWAP1 DUP2 LT PUSH8 0xFFFFFFFFFFFFFFFF DUP3 GT OR PUSH2 0xCDF JUMPI PUSH1 0x40 MSTORE JUMP JUMPDEST PUSH4 0x4E487B71 PUSH1 0xE0 SHL PUSH0 MSTORE PUSH1 0x41 PUSH1 0x4 MSTORE PUSH1 0x24 PUSH0 REVERT JUMPDEST SWAP1 PUSH1 0x1F DUP1 NOT SWAP2 ADD AND DUP2 ADD SWAP1 DUP2 LT PUSH8 0xFFFFFFFFFFFFFFFF DUP3 GT OR PUSH2 0xCDF JUMPI PUSH1 0x40 MSTORE JUMP JUMPDEST SWAP1 DUP2 PUSH1 0x20 SWAP2 SUB SLT PUSH2 0xC55 JUMPI MLOAD PUSH1 0x1 PUSH1 0x1 PUSH1 0xA0 SHL SUB DUP2 AND DUP2 SUB PUSH2 0xC55 JUMPI SWAP1 JUMP JUMPDEST ISZERO PUSH2 0xD3B JUMPI JUMP JUMPDEST PUSH1 0x40 MLOAD PUSH3 0x461BCD PUSH1 0xE5 SHL DUP2 MSTORE PUSH1 0x20 PUSH1 0x4 DUP3 ADD MSTORE PUSH1 0x10 PUSH1 0x24 DUP3 ADD MSTORE PUSH16 0x2737BA103CB7BAB9103334B3B43A32B9 PUSH1 0x81 SHL PUSH1 0x44 DUP3 ADD MSTORE PUSH1 0x64 SWAP1 REVERT JUMPDEST MLOAD SWAP1 PUSH1 0xFF DUP3 AND DUP3 SUB PUSH2 0xC55 JUMPI JUMP JUMPDEST MLOAD SWAP1 PUSH4 0xFFFFFFFF DUP3 AND DUP3 SUB PUSH2 0xC55 JUMPI JUMP JUMPDEST SWAP1 DUP2 PUSH1 0xE0 SWAP2 SUB SLT PUSH2 0xC55 JUMPI PUSH2 0xDA6 DUP2 PUSH2 0xD73 JUMP JUMPDEST SWAP2 PUSH2 0xDB3 PUSH1 0x20 DUP4 ADD PUSH2 0xD73 JUMP JUMPDEST SWAP2 PUSH2 0xDC0 PUSH1 0x40 DUP3 ADD PUSH2 0xD73 JUMP JUMPDEST SWAP2 PUSH2 0xDCD PUSH1 0x60 DUP4 ADD PUSH2 0xD73 JUMP JUMPDEST SWAP2 PUSH2 0xDDA PUSH1 0x80 DUP3 ADD PUSH2 0xD81 JUMP JUMPDEST SWAP2 PUSH1 0xC0 PUSH2 0xDE9 PUSH1 0xA0 DUP5 ADD PUSH2 0xD81 JUMP JUMPDEST SWAP3 ADD MLOAD SWAP1 JUMP JUMPDEST SWAP2 SWAP1 DUP3 ADD DUP1 SWAP3 GT PUSH2 0xC59 JUMPI JUMP JUMPDEST PUSH0 NOT DUP2 EQ PUSH2 0xC59 JUMPI PUSH1 0x1 ADD SWAP1 JUMP JUMPDEST PUSH1 0x2 PUSH32 0x9B779B17422D0DF92223018B32B4D1FA46E071723D6817E2486D003BECC55F00 SLOAD EQ PUSH2 0xE59 JUMPI PUSH1 0x2 PUSH32 0x9B779B17422D0DF92223018B32B4D1FA46E071723D6817E2486D003BECC55F00 SSTORE JUMP JUMPDEST PUSH4 0x3EE5AEB5 PUSH1 0xE0 SHL PUSH0 MSTORE PUSH1 0x4 PUSH0 REVERT JUMPDEST PUSH0 MSTORE PUSH1 0x8 PUSH1 0x20 MSTORE PUSH2 0xE80 PUSH1 0x40 PUSH0 KECCAK256 SLOAD PUSH1 0x7 SLOAD SWAP1 PUSH2 0xDEF JUMP JUMPDEST TIMESTAMP LT PUSH2 0xE88 JUMPI JUMP JUMPDEST PUSH1 0x40 MLOAD PUSH3 0x461BCD PUSH1 0xE5 SHL DUP2 MSTORE PUSH1 0x20 PUSH1 0x4 DUP3 ADD MSTORE PUSH1 0x14 PUSH1 0x24 DUP3 ADD MSTORE PUSH20 0x2334B3B43A32B91031B7B7B634B733903237BBB7 PUSH1 0x61 SHL PUSH1 0x44 DUP3 ADD MSTORE PUSH1 0x64 SWAP1 REVERT JUMPDEST PUSH1 0x2 SLOAD PUSH1 0x40 MLOAD PUSH4 0x70A08231 PUSH1 0xE0 SHL DUP2 MSTORE ADDRESS PUSH1 0x4 DUP3 ADD MSTORE PUSH1 0x1 PUSH1 0x1 PUSH1 0xA0 SHL SUB SWAP1 SWAP2 AND SWAP3 SWAP1 PUSH1 0x20 DUP2 PUSH1 0x24 DUP2 DUP8 GAS STATICCALL DUP1 ISZERO PUSH2 0xC4A JUMPI DUP3 SWAP2 PUSH0 SWAP2 PUSH2 0xF7D JUMPI JUMPDEST POP LT ISZERO PUSH2 0xF0B JUMPI POP POP POP JUMP JUMPDEST PUSH1 0x40 MLOAD PUSH4 0xA9059CBB PUSH1 0xE0 SHL DUP2 MSTORE PUSH1 0x1 PUSH1 0x1 PUSH1 0xA0 SHL SUB SWAP1 SWAP3 AND PUSH1 0x4 DUP4 ADD MSTORE PUSH1 0x24 DUP3 ADD MSTORE SWAP1 PUSH1 0x20 SWAP1 DUP3 SWAP1 PUSH1 0x44 SWAP1 DUP3 SWAP1 PUSH0 SWAP1 GAS CALL DUP1 ISZERO PUSH2 0xC4A JUMPI PUSH2 0xF49 JUMPI POP JUMP JUMPDEST PUSH1 0x20 DUP2 RETURNDATASIZE PUSH1 0x20 GT PUSH2 0xF75 JUMPI JUMPDEST DUP2 PUSH2 0xF62 PUSH1 0x20 SWAP4 DUP4 PUSH2 0xCF3 JUMP JUMPDEST DUP2 ADD SUB SLT PUSH2 0xC55 JUMPI MLOAD DUP1 ISZERO ISZERO SUB PUSH2 0xC55 JUMPI JUMP JUMPDEST RETURNDATASIZE SWAP2 POP PUSH2 0xF55 JUMP JUMPDEST SWAP2 POP POP PUSH1 0x20 DUP2 RETURNDATASIZE PUSH1 0x20 GT PUSH2 0xFAA JUMPI JUMPDEST DUP2 PUSH2 0xF99 PUSH1 0x20 SWAP4 DUP4 PUSH2 0xCF3 JUMP JUMPDEST DUP2 ADD SUB SLT PUSH2 0xC55 JUMPI DUP2 SWAP1 MLOAD PUSH0 PUSH2 0xEFF JUMP JUMPDEST RETURNDATASIZE SWAP2 POP PUSH2 0xF8C JUMP JUMPDEST PUSH0 SLOAD PUSH1 0x1 PUSH1 0x1 PUSH1 0xA0 SHL SUB AND CALLER SUB PUSH2 0xFC5 JUMPI JUMP JUMPDEST PUSH4 0x118CDAA7 PUSH1 0xE0 SHL PUSH0 MSTORE CALLER PUSH1 0x4 MSTORE PUSH1 0x24 PUSH0 REVERT INVALID LOG2 PUSH5 0x6970667358 0x22 SLT KECCAK256 0xB7 0xC1 CODESIZE GASPRICE SWAP12 PUSH23 0xFA1B02E0F24ED3049118564076E254D87489C22586E2B0 EXTCODESIZE DUP10 CREATE PUSH5 0x736F6C6343 STOP ADDMOD SHR STOP CALLER "},"methodIdentifiers":{"arenaCoin()":"48f7d5ab","battleCooldown()":"d1006a6f","battleCount()":"e00b6363","battlePvE(uint256)":"3b52af07","battlePvP(uint256,uint256)":"90d354a9","battles(uint256)":"606d2e96","fighterNFT()":"fa818cf6","lastBattleTime(uint256)":"70ea9f68","owner()":"8da5cb5b","pveWinReward()":"8613379a","pvpWinReward()":"ba3cd937","renounceOwnership()":"715018a6","setBattleCooldown(uint256)":"64a291aa","setPveWinReward(uint256)":"5693e976","setPvpWinReward(uint256)":"56ba3041","transferOwnership(address)":"f2fde38b"}}}}}