{"contracts/ArenaMarketplace.sol":{"ArenaMarketplace":{"abi":[{"inputs":[{"internalType":"address","name":"_fighter","type":"address"},{"internalType":"address","name":"_arena","type":"address"},{"internalType":"address","name":"_treasury","type":"address"}],"stateMutability":"nonpayable","type":"constructor"},{"inputs":[{"internalType":"address","name":"owner","type":"address"}],"name":"OwnableInvalidOwner","type":"error"},{"inputs":[{"internalType":"address","name":"account","type":"address"}],"name":"OwnableUnauthorizedAccount","type":"error"},{"inputs":[],"name":"ReentrancyGuardReentrantCall","type":"error"},{"anonymous":false,"inputs":[{"indexed":true,"internalType":"uint256","name":"tokenId","type":"uint256"}],"name":"Delisted","type":"event"},{"anonymous":false,"inputs":[{"indexed":true,"internalType":"uint256","name":"tokenId","type":"uint256"},{"indexed":true,"internalType":"address","name":"seller","type":"address"},{"indexed":false,"internalType":"uint256","name":"price","type":"uint256"}],"name":"Listed","type":"event"},{"anonymous":false,"inputs":[{"indexed":true,"internalType":"address","name":"previousOwner","type":"address"},{"indexed":true,"internalType":"address","name":"newOwner","type":"address"}],"name":"OwnershipTransferred","type":"event"},{"anonymous":false,"inputs":[{"indexed":true,"internalType":"uint256","name":"tokenId","type":"uint256"},{"indexed":true,"internalType":"address","name":"buyer","type":"address"},{"indexed":false,"internalType":"uint256","name":"price","type":"uint256"}],"name":"Sold","type":"event"},{"inputs":[],"name":"arenaCoin","outputs":[{"internalType":"contract IERC20Transfer","name":"","type":"address"}],"stateMutability":"view","type":"function"},{"inputs":[{"internalType":"uint256","name":"tokenId","type":"uint256"}],"name":"buy","outputs":[],"stateMutability":"nonpayable","type":"function"},{"inputs":[{"internalType":"uint256","name":"tokenId","type":"uint256"}],"name":"delist","outputs":[],"stateMutability":"nonpayable","type":"function"},{"inputs":[],"name":"feeBps","outputs":[{"internalType":"uint16","name":"","type":"uint16"}],"stateMutability":"view","type":"function"},{"inputs":[],"name":"fighterNFT","outputs":[{"internalType":"contract IERC721Transfer","name":"","type":"address"}],"stateMutability":"view","type":"function"},{"inputs":[{"internalType":"uint256","name":"tokenId","type":"uint256"},{"internalType":"uint256","name":"price","type":"uint256"}],"name":"list","outputs":[],"stateMutability":"nonpayable","type":"function"},{"inputs":[{"internalType":"uint256","name":"","type":"uint256"}],"name":"listings","outputs":[{"internalType":"address","name":"seller","type":"address"},{"internalType":"uint256","name":"price","type":"uint256"},{"internalType":"bool","name":"active","type":"bool"}],"stateMutability":"view","type":"function"},{"inputs":[],"name":"owner","outputs":[{"internalType":"address","name":"","type":"address"}],"stateMutability":"view","type":"function"},{"inputs":[],"name":"renounceOwnership","outputs":[],"stateMutability":"nonpayable","type":"function"},{"inputs":[{"internalType":"uint16","name":"bps","type":"uint16"}],"name":"setFeeBps","outputs":[],"stateMutability":"nonpayable","type":"function"},{"inputs":[{"internalType":"address","name":"t","type":"address"}],"name":"setTreasury","outputs":[],"stateMutability":"nonpayable","type":"function"},{"inputs":[{"internalType":"address","name":"newOwner","type":"address"}],"name":"transferOwnership","outputs":[],"stateMutability":"nonpayable","type":"function"},{"inputs":[],"name":"treasury","outputs":[{"internalType":"address","name":"","type":"address"}],"stateMutability":"view","type":"function"}],"evm":{"bytecode":{"linkReferences":{},"object":"60c03461014b57601f610d3a38819003918201601f19168301916001600160401b0383118484101761014f5780849260609460405283398101031261014b5761004781610163565b61005f604061005860208501610163565b9301610163565b903315610138575f8054336001600160a01b0319821681178355604051959290916001600160a01b0316907f8be0079c531659141344cd1fd0a4f28419497f9722a3daafe3b4186f6b6457e09080a360017f9b779b17422d0df92223018b32b4d1fa46e071723d6817e2486d003becc55f0081905580546001600160a01b0393841660805291831660a0526001600160b01b03199091169290911691909117607d60a11b179055610bc29081610178823960805181818160be0152818161036f0152610743015260a0518181816103170152610a2f0152f35b631e4fbdf760e01b5f525f60045260245ffd5b5f80fd5b634e487b7160e01b5f52604160045260245ffd5b51906001600160a01b038216820361014b5756fe60806040526004361015610011575f80fd5b5f5f3560e01c8063023b1fc914610a8257806324a9d85314610a5e57806348f7d5ab14610a1a57806350fd73671461071457806361d027b3146106ec578063715018a6146106955780638da5cb5b1461066e578063964bc33f146105af578063d96a094a1461021d578063de74e57b146101ce578063f0f442601461017e578063f2fde38b146100f05763fa818cf6146100a9575f80fd5b346100ed57806003193601126100ed576040517f00000000000000000000000000000000000000000000000000000000000000006001600160a01b03168152602090f35b80fd5b50346100ed5760203660031901126100ed576004356001600160a01b0381169081900361017a5761011f610b66565b80156101665781546001600160a01b03198116821783556001600160a01b03167f8be0079c531659141344cd1fd0a4f28419497f9722a3daafe3b4186f6b6457e08380a380f35b631e4fbdf760e01b82526004829052602482fd5b5080fd5b50346100ed5760203660031901126100ed576004356001600160a01b0381169081900361017a576101ad610b66565b801561017a576bffffffffffffffffffffffff60a01b600154161760015580f35b50346100ed5760203660031901126100ed576040606091600435815260026020522060018060a01b038154169060ff600260018301549201541690604051928352602083015215156040820152f35b503461044f57602036600319011261044f5760043560027f9b779b17422d0df92223018b32b4d1fa46e071723d6817e2486d003becc55f0054146105a05760027f9b779b17422d0df92223018b32b4d1fa46e071723d6817e2486d003becc55f0055805f52600260205260405f20600281019081549161029f60ff8416610b2d565b81546001600160a01b03169233841461056d5760ff19169055600181019182549061ffff60015460a01c1680830290838204148315171561055957612710900491828103908111610559576040516323b872dd60e01b81523360048201526001600160a01b03928316602482015260448101919091527f0000000000000000000000000000000000000000000000000000000000000000909116906020816064815f865af1908115610444575f9161053a575b50156105085781610453575b5050546001600160a01b03908116907f000000000000000000000000000000000000000000000000000000000000000016803b1561044f576040516323b872dd60e01b81526001600160a01b03929092166004830152336024830152604482018490525f908290606490829084905af180156104445761042f575b5054906040519182527f66f5cd880edf48cdde6c966e5da0784fcc4c5e85572b8b3b62c4357798d447d760203393a360017f9b779b17422d0df92223018b32b4d1fa46e071723d6817e2486d003becc55f005580f35b61043c9193505f90610ad4565b5f915f6103d9565b6040513d5f823e3d90fd5b5f80fd5b6001546040516323b872dd60e01b81523360048201526001600160a01b0390911660248201526044810192909252602090829060649082905f905af1908115610444575f916104d9575b50156104aa575f8061035e565b60405162461bcd60e51b81526020600482015260076024820152665061792066656560c81b6044820152606490fd5b6104fb915060203d602011610501575b6104f38183610ad4565b810190610b15565b5f61049d565b503d6104e9565b60405162461bcd60e51b815260206004820152600a6024820152692830bc9039b2b63632b960b11b6044820152606490fd5b610553915060203d602011610501576104f38183610ad4565b5f610352565b634e487b7160e01b5f52601160045260245ffd5b60405162461bcd60e51b815260206004820152600b60248201526a4f776e206c697374696e6760a81b6044820152606490fd5b633ee5aeb560e01b5f5260045ffd5b3461044f57602036600319011261044f57600435805f52600260205260405f2060028101908154906105e360ff8316610b2d565b546001600160a01b03163314801561065b575b156106275760ff191690557fc40fdc946efe80191c467f60727c4abc08254a056035d467a4516a86005ab7635f80a2005b60405162461bcd60e51b815260206004820152600c60248201526b155b985d5d1a1bdc9a5e995960a21b6044820152606490fd5b505f546001600160a01b031633146105f6565b3461044f575f36600319011261044f575f546040516001600160a01b039091168152602090f35b3461044f575f36600319011261044f576106ad610b66565b5f80546001600160a01b0319811682556001600160a01b03167f8be0079c531659141344cd1fd0a4f28419497f9722a3daafe3b4186f6b6457e08280a3005b3461044f575f36600319011261044f576001546040516001600160a01b039091168152602090f35b3461044f57604036600319011261044f576040516331a9108f60e11b81526004803590820181905260248035927f00000000000000000000000000000000000000000000000000000000000000006001600160a01b031691602090829081855afa908115610444575f916109fb575b50336001600160a01b03909116036109ca57821561099b57815f52600260205260ff600260405f2001541661096d5760405163020604bf60e21b815260048101839052602081602481855afa908115610444575f9161093e575b506001600160a01b031630149081156108e3575b50156108af576040516060810181811067ffffffffffffffff82111761089b5760405233815260026020820191848352604081019260018452845f528260205260405f209160018060a01b039051166bffffffffffffffffffffffff60a01b835416178255516001820155019051151560ff801983541691161790556040519182527f50955776c5778c3b7d968d86d8c51fb6b29a7a74c20866b533268e209fc0834360203393a3005b634e487b7160e01b5f52604160045260245ffd5b60405162461bcd60e51b815260206004820152600c60248201526b139bdd08185c1c1c9bdd995960a21b6044820152606490fd5b60405163e985e9c560e01b81523360048201523060248201529150602090829060449082905afa908115610444575f9161091f575b50836107f1565b610938915060203d602011610501576104f38183610ad4565b83610918565b610960915060203d602011610966575b6109588183610ad4565b810190610af6565b846107dd565b503d61094e565b60405162461bcd60e51b815260206004820152600660248201526541637469766560d01b6044820152606490fd5b60405162461bcd60e51b8152602060048201526007602482015266050726963653d360cc1b6044820152606490fd5b60405162461bcd60e51b81526020600482015260096024820152682737ba1037bbb732b960b91b6044820152606490fd5b610a14915060203d602011610966576109588183610ad4565b84610783565b3461044f575f36600319011261044f576040517f00000000000000000000000000000000000000000000000000000000000000006001600160a01b03168152602090f35b3461044f575f36600319011261044f57602061ffff60015460a01c16604051908152f35b3461044f57602036600319011261044f5760043561ffff811680820361044f576103e890610aae610b66565b1161044f576001805461ffff60a01b191660a09290921b61ffff60a01b16919091179055005b90601f8019910116810190811067ffffffffffffffff82111761089b57604052565b9081602091031261044f57516001600160a01b038116810361044f5790565b9081602091031261044f5751801515810361044f5790565b15610b3457565b60405162461bcd60e51b815260206004820152600a6024820152694e6f742061637469766560b01b6044820152606490fd5b5f546001600160a01b03163303610b7957565b63118cdaa760e01b5f523360045260245ffdfea2646970667358221220e3d4769ce5d963917d9c0e6fa99500e5a07b982df07748807a1b7e57221c87ea64736f6c634300081c0033","opcodes":"PUSH1 0xC0 CALLVALUE PUSH2 0x14B JUMPI PUSH1 0x1F PUSH2 0xD3A CODESIZE DUP2 SWAP1 SUB SWAP2 DUP3 ADD PUSH1 0x1F NOT AND DUP4 ADD SWAP2 PUSH1 0x1 PUSH1 0x1 PUSH1 0x40 SHL SUB DUP4 GT DUP5 DUP5 LT OR PUSH2 0x14F JUMPI DUP1 DUP5 SWAP3 PUSH1 0x60 SWAP5 PUSH1 0x40 MSTORE DUP4 CODECOPY DUP2 ADD SUB SLT PUSH2 0x14B JUMPI PUSH2 0x47 DUP2 PUSH2 0x163 JUMP JUMPDEST PUSH2 0x5F PUSH1 0x40 PUSH2 0x58 PUSH1 0x20 DUP6 ADD PUSH2 0x163 JUMP JUMPDEST SWAP4 ADD PUSH2 0x163 JUMP JUMPDEST SWAP1 CALLER ISZERO PUSH2 0x138 JUMPI PUSH0 DUP1 SLOAD CALLER PUSH1 0x1 PUSH1 0x1 PUSH1 0xA0 SHL SUB NOT DUP3 AND DUP2 OR DUP4 SSTORE PUSH1 0x40 MLOAD SWAP6 SWAP3 SWAP1 SWAP2 PUSH1 0x1 PUSH1 0x1 PUSH1 0xA0 SHL SUB AND SWAP1 PUSH32 0x8BE0079C531659141344CD1FD0A4F28419497F9722A3DAAFE3B4186F6B6457E0 SWAP1 DUP1 LOG3 PUSH1 0x1 PUSH32 0x9B779B17422D0DF92223018B32B4D1FA46E071723D6817E2486D003BECC55F00 DUP2 SWAP1 SSTORE DUP1 SLOAD PUSH1 0x1 PUSH1 0x1 PUSH1 0xA0 SHL SUB SWAP4 DUP5 AND PUSH1 0x80 MSTORE SWAP2 DUP4 AND PUSH1 0xA0 MSTORE PUSH1 0x1 PUSH1 0x1 PUSH1 0xB0 SHL SUB NOT SWAP1 SWAP2 AND SWAP3 SWAP1 SWAP2 AND SWAP2 SWAP1 SWAP2 OR PUSH1 0x7D PUSH1 0xA1 SHL OR SWAP1 SSTORE PUSH2 0xBC2 SWAP1 DUP2 PUSH2 0x178 DUP3 CODECOPY PUSH1 0x80 MLOAD DUP2 DUP2 DUP2 PUSH1 0xBE ADD MSTORE DUP2 DUP2 PUSH2 0x36F ADD MSTORE PUSH2 0x743 ADD MSTORE PUSH1 0xA0 MLOAD DUP2 DUP2 DUP2 PUSH2 0x317 ADD MSTORE PUSH2 0xA2F ADD MSTORE RETURN JUMPDEST PUSH4 0x1E4FBDF7 PUSH1 0xE0 SHL PUSH0 MSTORE PUSH0 PUSH1 0x4 MSTORE PUSH1 0x24 PUSH0 REVERT JUMPDEST PUSH0 DUP1 REVERT JUMPDEST PUSH4 0x4E487B71 PUSH1 0xE0 SHL PUSH0 MSTORE PUSH1 0x41 PUSH1 0x4 MSTORE PUSH1 0x24 PUSH0 REVERT JUMPDEST MLOAD SWAP1 PUSH1 0x1 PUSH1 0x1 PUSH1 0xA0 SHL SUB DUP3 AND DUP3 SUB PUSH2 0x14B JUMPI JUMP INVALID PUSH1 0x80 PUSH1 0x40 MSTORE PUSH1 0x4 CALLDATASIZE LT ISZERO PUSH2 0x11 JUMPI PUSH0 DUP1 REVERT JUMPDEST PUSH0 PUSH0 CALLDATALOAD PUSH1 0xE0 SHR DUP1 PUSH4 0x23B1FC9 EQ PUSH2 0xA82 JUMPI DUP1 PUSH4 0x24A9D853 EQ PUSH2 0xA5E JUMPI DUP1 PUSH4 0x48F7D5AB EQ PUSH2 0xA1A JUMPI DUP1 PUSH4 0x50FD7367 EQ PUSH2 0x714 JUMPI DUP1 PUSH4 0x61D027B3 EQ PUSH2 0x6EC JUMPI DUP1 PUSH4 0x715018A6 EQ PUSH2 0x695 JUMPI DUP1 PUSH4 0x8DA5CB5B EQ PUSH2 0x66E JUMPI DUP1 PUSH4 0x964BC33F EQ PUSH2 0x5AF JUMPI DUP1 PUSH4 0xD96A094A EQ PUSH2 0x21D JUMPI DUP1 PUSH4 0xDE74E57B EQ PUSH2 0x1CE JUMPI DUP1 PUSH4 0xF0F44260 EQ PUSH2 0x17E JUMPI DUP1 PUSH4 0xF2FDE38B EQ PUSH2 0xF0 JUMPI PUSH4 0xFA818CF6 EQ PUSH2 0xA9 JUMPI PUSH0 DUP1 REVERT JUMPDEST CALLVALUE PUSH2 0xED JUMPI DUP1 PUSH1 0x3 NOT CALLDATASIZE ADD SLT PUSH2 0xED JUMPI PUSH1 0x40 MLOAD PUSH32 0x0 PUSH1 0x1 PUSH1 0x1 PUSH1 0xA0 SHL SUB AND DUP2 MSTORE PUSH1 0x20 SWAP1 RETURN JUMPDEST DUP1 REVERT JUMPDEST POP CALLVALUE PUSH2 0xED JUMPI PUSH1 0x20 CALLDATASIZE PUSH1 0x3 NOT ADD SLT PUSH2 0xED JUMPI PUSH1 0x4 CALLDATALOAD PUSH1 0x1 PUSH1 0x1 PUSH1 0xA0 SHL SUB DUP2 AND SWAP1 DUP2 SWAP1 SUB PUSH2 0x17A JUMPI PUSH2 0x11F PUSH2 0xB66 JUMP JUMPDEST DUP1 ISZERO PUSH2 0x166 JUMPI DUP2 SLOAD PUSH1 0x1 PUSH1 0x1 PUSH1 0xA0 SHL SUB NOT DUP2 AND DUP3 OR DUP4 SSTORE PUSH1 0x1 PUSH1 0x1 PUSH1 0xA0 SHL SUB AND PUSH32 0x8BE0079C531659141344CD1FD0A4F28419497F9722A3DAAFE3B4186F6B6457E0 DUP4 DUP1 LOG3 DUP1 RETURN JUMPDEST PUSH4 0x1E4FBDF7 PUSH1 0xE0 SHL DUP3 MSTORE PUSH1 0x4 DUP3 SWAP1 MSTORE PUSH1 0x24 DUP3 REVERT JUMPDEST POP DUP1 REVERT JUMPDEST POP CALLVALUE PUSH2 0xED JUMPI PUSH1 0x20 CALLDATASIZE PUSH1 0x3 NOT ADD SLT PUSH2 0xED JUMPI PUSH1 0x4 CALLDATALOAD PUSH1 0x1 PUSH1 0x1 PUSH1 0xA0 SHL SUB DUP2 AND SWAP1 DUP2 SWAP1 SUB PUSH2 0x17A JUMPI PUSH2 0x1AD PUSH2 0xB66 JUMP JUMPDEST DUP1 ISZERO PUSH2 0x17A JUMPI PUSH12 0xFFFFFFFFFFFFFFFFFFFFFFFF PUSH1 0xA0 SHL PUSH1 0x1 SLOAD AND OR PUSH1 0x1 SSTORE DUP1 RETURN JUMPDEST POP CALLVALUE PUSH2 0xED JUMPI PUSH1 0x20 CALLDATASIZE PUSH1 0x3 NOT ADD SLT PUSH2 0xED JUMPI PUSH1 0x40 PUSH1 0x60 SWAP2 PUSH1 0x4 CALLDATALOAD DUP2 MSTORE PUSH1 0x2 PUSH1 0x20 MSTORE KECCAK256 PUSH1 0x1 DUP1 PUSH1 0xA0 SHL SUB DUP2 SLOAD AND SWAP1 PUSH1 0xFF PUSH1 0x2 PUSH1 0x1 DUP4 ADD SLOAD SWAP3 ADD SLOAD AND SWAP1 PUSH1 0x40 MLOAD SWAP3 DUP4 MSTORE PUSH1 0x20 DUP4 ADD MSTORE ISZERO ISZERO PUSH1 0x40 DUP3 ADD MSTORE RETURN JUMPDEST POP CALLVALUE PUSH2 0x44F JUMPI PUSH1 0x20 CALLDATASIZE PUSH1 0x3 NOT ADD SLT PUSH2 0x44F JUMPI PUSH1 0x4 CALLDATALOAD PUSH1 0x2 PUSH32 0x9B779B17422D0DF92223018B32B4D1FA46E071723D6817E2486D003BECC55F00 SLOAD EQ PUSH2 0x5A0 JUMPI PUSH1 0x2 PUSH32 0x9B779B17422D0DF92223018B32B4D1FA46E071723D6817E2486D003BECC55F00 SSTORE DUP1 PUSH0 MSTORE PUSH1 0x2 PUSH1 0x20 MSTORE PUSH1 0x40 PUSH0 KECCAK256 PUSH1 0x2 DUP2 ADD SWAP1 DUP2 SLOAD SWAP2 PUSH2 0x29F PUSH1 0xFF DUP5 AND PUSH2 0xB2D JUMP JUMPDEST DUP2 SLOAD PUSH1 0x1 PUSH1 0x1 PUSH1 0xA0 SHL SUB AND SWAP3 CALLER DUP5 EQ PUSH2 0x56D JUMPI PUSH1 0xFF NOT AND SWAP1 SSTORE PUSH1 0x1 DUP2 ADD SWAP2 DUP3 SLOAD SWAP1 PUSH2 0xFFFF PUSH1 0x1 SLOAD PUSH1 0xA0 SHR AND DUP1 DUP4 MUL SWAP1 DUP4 DUP3 DIV EQ DUP4 ISZERO OR ISZERO PUSH2 0x559 JUMPI PUSH2 0x2710 SWAP1 DIV SWAP2 DUP3 DUP2 SUB SWAP1 DUP2 GT PUSH2 0x559 JUMPI PUSH1 0x40 MLOAD PUSH4 0x23B872DD PUSH1 0xE0 SHL DUP2 MSTORE CALLER PUSH1 0x4 DUP3 ADD MSTORE PUSH1 0x1 PUSH1 0x1 PUSH1 0xA0 SHL SUB SWAP3 DUP4 AND PUSH1 0x24 DUP3 ADD MSTORE PUSH1 0x44 DUP2 ADD SWAP2 SWAP1 SWAP2 MSTORE PUSH32 0x0 SWAP1 SWAP2 AND SWAP1 PUSH1 0x20 DUP2 PUSH1 0x64 DUP2 PUSH0 DUP7 GAS CALL SWAP1 DUP2 ISZERO PUSH2 0x444 JUMPI PUSH0 SWAP2 PUSH2 0x53A JUMPI JUMPDEST POP ISZERO PUSH2 0x508 JUMPI DUP2 PUSH2 0x453 JUMPI JUMPDEST POP POP SLOAD PUSH1 0x1 PUSH1 0x1 PUSH1 0xA0 SHL SUB SWAP1 DUP2 AND SWAP1 PUSH32 0x0 AND DUP1 EXTCODESIZE ISZERO PUSH2 0x44F JUMPI PUSH1 0x40 MLOAD PUSH4 0x23B872DD PUSH1 0xE0 SHL DUP2 MSTORE PUSH1 0x1 PUSH1 0x1 PUSH1 0xA0 SHL SUB SWAP3 SWAP1 SWAP3 AND PUSH1 0x4 DUP4 ADD MSTORE CALLER PUSH1 0x24 DUP4 ADD MSTORE PUSH1 0x44 DUP3 ADD DUP5 SWAP1 MSTORE PUSH0 SWAP1 DUP3 SWAP1 PUSH1 0x64 SWAP1 DUP3 SWAP1 DUP5 SWAP1 GAS CALL DUP1 ISZERO PUSH2 0x444 JUMPI PUSH2 0x42F JUMPI JUMPDEST POP SLOAD SWAP1 PUSH1 0x40 MLOAD SWAP2 DUP3 MSTORE PUSH32 0x66F5CD880EDF48CDDE6C966E5DA0784FCC4C5E85572B8B3B62C4357798D447D7 PUSH1 0x20 CALLER SWAP4 LOG3 PUSH1 0x1 PUSH32 0x9B779B17422D0DF92223018B32B4D1FA46E071723D6817E2486D003BECC55F00 SSTORE DUP1 RETURN JUMPDEST PUSH2 0x43C SWAP2 SWAP4 POP PUSH0 SWAP1 PUSH2 0xAD4 JUMP JUMPDEST PUSH0 SWAP2 PUSH0 PUSH2 0x3D9 JUMP JUMPDEST PUSH1 0x40 MLOAD RETURNDATASIZE PUSH0 DUP3 RETURNDATACOPY RETURNDATASIZE SWAP1 REVERT JUMPDEST PUSH0 DUP1 REVERT JUMPDEST PUSH1 0x1 SLOAD PUSH1 0x40 MLOAD PUSH4 0x23B872DD PUSH1 0xE0 SHL DUP2 MSTORE CALLER PUSH1 0x4 DUP3 ADD MSTORE PUSH1 0x1 PUSH1 0x1 PUSH1 0xA0 SHL SUB SWAP1 SWAP2 AND PUSH1 0x24 DUP3 ADD MSTORE PUSH1 0x44 DUP2 ADD SWAP3 SWAP1 SWAP3 MSTORE PUSH1 0x20 SWAP1 DUP3 SWAP1 PUSH1 0x64 SWAP1 DUP3 SWAP1 PUSH0 SWAP1 GAS CALL SWAP1 DUP2 ISZERO PUSH2 0x444 JUMPI PUSH0 SWAP2 PUSH2 0x4D9 JUMPI JUMPDEST POP ISZERO PUSH2 0x4AA JUMPI PUSH0 DUP1 PUSH2 0x35E JUMP JUMPDEST PUSH1 0x40 MLOAD PUSH3 0x461BCD PUSH1 0xE5 SHL DUP2 MSTORE PUSH1 0x20 PUSH1 0x4 DUP3 ADD MSTORE PUSH1 0x7 PUSH1 0x24 DUP3 ADD MSTORE PUSH7 0x50617920666565 PUSH1 0xC8 SHL PUSH1 0x44 DUP3 ADD MSTORE PUSH1 0x64 SWAP1 REVERT JUMPDEST PUSH2 0x4FB SWAP2 POP PUSH1 0x20 RETURNDATASIZE PUSH1 0x20 GT PUSH2 0x501 JUMPI JUMPDEST PUSH2 0x4F3 DUP2 DUP4 PUSH2 0xAD4 JUMP JUMPDEST DUP2 ADD SWAP1 PUSH2 0xB15 JUMP JUMPDEST PUSH0 PUSH2 0x49D JUMP JUMPDEST POP RETURNDATASIZE PUSH2 0x4E9 JUMP JUMPDEST PUSH1 0x40 MLOAD PUSH3 0x461BCD PUSH1 0xE5 SHL DUP2 MSTORE PUSH1 0x20 PUSH1 0x4 DUP3 ADD MSTORE PUSH1 0xA PUSH1 0x24 DUP3 ADD MSTORE PUSH10 0x2830BC9039B2B63632B9 PUSH1 0xB1 SHL PUSH1 0x44 DUP3 ADD MSTORE PUSH1 0x64 SWAP1 REVERT JUMPDEST PUSH2 0x553 SWAP2 POP PUSH1 0x20 RETURNDATASIZE PUSH1 0x20 GT PUSH2 0x501 JUMPI PUSH2 0x4F3 DUP2 DUP4 PUSH2 0xAD4 JUMP JUMPDEST PUSH0 PUSH2 0x352 JUMP JUMPDEST PUSH4 0x4E487B71 PUSH1 0xE0 SHL PUSH0 MSTORE PUSH1 0x11 PUSH1 0x4 MSTORE PUSH1 0x24 PUSH0 REVERT JUMPDEST PUSH1 0x40 MLOAD PUSH3 0x461BCD PUSH1 0xE5 SHL DUP2 MSTORE PUSH1 0x20 PUSH1 0x4 DUP3 ADD MSTORE PUSH1 0xB PUSH1 0x24 DUP3 ADD MSTORE PUSH11 0x4F776E206C697374696E67 PUSH1 0xA8 SHL PUSH1 0x44 DUP3 ADD MSTORE PUSH1 0x64 SWAP1 REVERT JUMPDEST PUSH4 0x3EE5AEB5 PUSH1 0xE0 SHL PUSH0 MSTORE PUSH1 0x4 PUSH0 REVERT JUMPDEST CALLVALUE PUSH2 0x44F JUMPI PUSH1 0x20 CALLDATASIZE PUSH1 0x3 NOT ADD SLT PUSH2 0x44F JUMPI PUSH1 0x4 CALLDATALOAD DUP1 PUSH0 MSTORE PUSH1 0x2 PUSH1 0x20 MSTORE PUSH1 0x40 PUSH0 KECCAK256 PUSH1 0x2 DUP2 ADD SWAP1 DUP2 SLOAD SWAP1 PUSH2 0x5E3 PUSH1 0xFF DUP4 AND PUSH2 0xB2D JUMP JUMPDEST SLOAD PUSH1 0x1 PUSH1 0x1 PUSH1 0xA0 SHL SUB AND CALLER EQ DUP1 ISZERO PUSH2 0x65B JUMPI JUMPDEST ISZERO PUSH2 0x627 JUMPI PUSH1 0xFF NOT AND SWAP1 SSTORE PUSH32 0xC40FDC946EFE80191C467F60727C4ABC08254A056035D467A4516A86005AB763 PUSH0 DUP1 LOG2 STOP JUMPDEST PUSH1 0x40 MLOAD PUSH3 0x461BCD PUSH1 0xE5 SHL DUP2 MSTORE PUSH1 0x20 PUSH1 0x4 DUP3 ADD MSTORE PUSH1 0xC PUSH1 0x24 DUP3 ADD MSTORE PUSH12 0x155B985D5D1A1BDC9A5E9959 PUSH1 0xA2 SHL PUSH1 0x44 DUP3 ADD MSTORE PUSH1 0x64 SWAP1 REVERT JUMPDEST POP PUSH0 SLOAD PUSH1 0x1 PUSH1 0x1 PUSH1 0xA0 SHL SUB AND CALLER EQ PUSH2 0x5F6 JUMP JUMPDEST CALLVALUE PUSH2 0x44F JUMPI PUSH0 CALLDATASIZE PUSH1 0x3 NOT ADD SLT PUSH2 0x44F JUMPI PUSH0 SLOAD PUSH1 0x40 MLOAD PUSH1 0x1 PUSH1 0x1 PUSH1 0xA0 SHL SUB SWAP1 SWAP2 AND DUP2 MSTORE PUSH1 0x20 SWAP1 RETURN JUMPDEST CALLVALUE PUSH2 0x44F JUMPI PUSH0 CALLDATASIZE PUSH1 0x3 NOT ADD SLT PUSH2 0x44F JUMPI PUSH2 0x6AD PUSH2 0xB66 JUMP JUMPDEST PUSH0 DUP1 SLOAD PUSH1 0x1 PUSH1 0x1 PUSH1 0xA0 SHL SUB NOT DUP2 AND DUP3 SSTORE PUSH1 0x1 PUSH1 0x1 PUSH1 0xA0 SHL SUB AND PUSH32 0x8BE0079C531659141344CD1FD0A4F28419497F9722A3DAAFE3B4186F6B6457E0 DUP3 DUP1 LOG3 STOP JUMPDEST CALLVALUE PUSH2 0x44F JUMPI PUSH0 CALLDATASIZE PUSH1 0x3 NOT ADD SLT PUSH2 0x44F JUMPI PUSH1 0x1 SLOAD PUSH1 0x40 MLOAD PUSH1 0x1 PUSH1 0x1 PUSH1 0xA0 SHL SUB SWAP1 SWAP2 AND DUP2 MSTORE PUSH1 0x20 SWAP1 RETURN JUMPDEST CALLVALUE PUSH2 0x44F JUMPI PUSH1 0x40 CALLDATASIZE PUSH1 0x3 NOT ADD SLT PUSH2 0x44F JUMPI PUSH1 0x40 MLOAD PUSH4 0x31A9108F PUSH1 0xE1 SHL DUP2 MSTORE PUSH1 0x4 DUP1 CALLDATALOAD SWAP1 DUP3 ADD DUP2 SWAP1 MSTORE PUSH1 0x24 DUP1 CALLDATALOAD SWAP3 PUSH32 0x0 PUSH1 0x1 PUSH1 0x1 PUSH1 0xA0 SHL SUB AND SWAP2 PUSH1 0x20 SWAP1 DUP3 SWAP1 DUP2 DUP6 GAS STATICCALL SWAP1 DUP2 ISZERO PUSH2 0x444 JUMPI PUSH0 SWAP2 PUSH2 0x9FB JUMPI JUMPDEST POP CALLER PUSH1 0x1 PUSH1 0x1 PUSH1 0xA0 SHL SUB SWAP1 SWAP2 AND SUB PUSH2 0x9CA JUMPI DUP3 ISZERO PUSH2 0x99B JUMPI DUP2 PUSH0 MSTORE PUSH1 0x2 PUSH1 0x20 MSTORE PUSH1 0xFF PUSH1 0x2 PUSH1 0x40 PUSH0 KECCAK256 ADD SLOAD AND PUSH2 0x96D JUMPI PUSH1 0x40 MLOAD PUSH4 0x20604BF PUSH1 0xE2 SHL DUP2 MSTORE PUSH1 0x4 DUP2 ADD DUP4 SWAP1 MSTORE PUSH1 0x20 DUP2 PUSH1 0x24 DUP2 DUP6 GAS STATICCALL SWAP1 DUP2 ISZERO PUSH2 0x444 JUMPI PUSH0 SWAP2 PUSH2 0x93E JUMPI JUMPDEST POP PUSH1 0x1 PUSH1 0x1 PUSH1 0xA0 SHL SUB AND ADDRESS EQ SWAP1 DUP2 ISZERO PUSH2 0x8E3 JUMPI JUMPDEST POP ISZERO PUSH2 0x8AF JUMPI PUSH1 0x40 MLOAD PUSH1 0x60 DUP2 ADD DUP2 DUP2 LT PUSH8 0xFFFFFFFFFFFFFFFF DUP3 GT OR PUSH2 0x89B JUMPI PUSH1 0x40 MSTORE CALLER DUP2 MSTORE PUSH1 0x2 PUSH1 0x20 DUP3 ADD SWAP2 DUP5 DUP4 MSTORE PUSH1 0x40 DUP2 ADD SWAP3 PUSH1 0x1 DUP5 MSTORE DUP5 PUSH0 MSTORE DUP3 PUSH1 0x20 MSTORE PUSH1 0x40 PUSH0 KECCAK256 SWAP2 PUSH1 0x1 DUP1 PUSH1 0xA0 SHL SUB SWAP1 MLOAD AND PUSH12 0xFFFFFFFFFFFFFFFFFFFFFFFF PUSH1 0xA0 SHL DUP4 SLOAD AND OR DUP3 SSTORE MLOAD PUSH1 0x1 DUP3 ADD SSTORE ADD SWAP1 MLOAD ISZERO ISZERO PUSH1 0xFF DUP1 NOT DUP4 SLOAD AND SWAP2 AND OR SWAP1 SSTORE PUSH1 0x40 MLOAD SWAP2 DUP3 MSTORE PUSH32 0x50955776C5778C3B7D968D86D8C51FB6B29A7A74C20866B533268E209FC08343 PUSH1 0x20 CALLER SWAP4 LOG3 STOP JUMPDEST PUSH4 0x4E487B71 PUSH1 0xE0 SHL PUSH0 MSTORE PUSH1 0x41 PUSH1 0x4 MSTORE PUSH1 0x24 PUSH0 REVERT JUMPDEST PUSH1 0x40 MLOAD PUSH3 0x461BCD PUSH1 0xE5 SHL DUP2 MSTORE PUSH1 0x20 PUSH1 0x4 DUP3 ADD MSTORE PUSH1 0xC PUSH1 0x24 DUP3 ADD MSTORE PUSH12 0x139BDD08185C1C1C9BDD9959 PUSH1 0xA2 SHL PUSH1 0x44 DUP3 ADD MSTORE PUSH1 0x64 SWAP1 REVERT JUMPDEST PUSH1 0x40 MLOAD PUSH4 0xE985E9C5 PUSH1 0xE0 SHL DUP2 MSTORE CALLER PUSH1 0x4 DUP3 ADD MSTORE ADDRESS PUSH1 0x24 DUP3 ADD MSTORE SWAP2 POP PUSH1 0x20 SWAP1 DUP3 SWAP1 PUSH1 0x44 SWAP1 DUP3 SWAP1 GAS STATICCALL SWAP1 DUP2 ISZERO PUSH2 0x444 JUMPI PUSH0 SWAP2 PUSH2 0x91F JUMPI JUMPDEST POP DUP4 PUSH2 0x7F1 JUMP JUMPDEST PUSH2 0x938 SWAP2 POP PUSH1 0x20 RETURNDATASIZE PUSH1 0x20 GT PUSH2 0x501 JUMPI PUSH2 0x4F3 DUP2 DUP4 PUSH2 0xAD4 JUMP JUMPDEST DUP4 PUSH2 0x918 JUMP JUMPDEST PUSH2 0x960 SWAP2 POP PUSH1 0x20 RETURNDATASIZE PUSH1 0x20 GT PUSH2 0x966 JUMPI JUMPDEST PUSH2 0x958 DUP2 DUP4 PUSH2 0xAD4 JUMP JUMPDEST DUP2 ADD SWAP1 PUSH2 0xAF6 JUMP JUMPDEST DUP5 PUSH2 0x7DD JUMP JUMPDEST POP RETURNDATASIZE PUSH2 0x94E JUMP JUMPDEST PUSH1 0x40 MLOAD PUSH3 0x461BCD PUSH1 0xE5 SHL DUP2 MSTORE PUSH1 0x20 PUSH1 0x4 DUP3 ADD MSTORE PUSH1 0x6 PUSH1 0x24 DUP3 ADD MSTORE PUSH6 0x416374697665 PUSH1 0xD0 SHL PUSH1 0x44 DUP3 ADD MSTORE PUSH1 0x64 SWAP1 REVERT JUMPDEST PUSH1 0x40 MLOAD PUSH3 0x461BCD PUSH1 0xE5 SHL DUP2 MSTORE PUSH1 0x20 PUSH1 0x4 DUP3 ADD MSTORE PUSH1 0x7 PUSH1 0x24 DUP3 ADD MSTORE PUSH7 0x50726963653D3 PUSH1 0xCC SHL PUSH1 0x44 DUP3 ADD MSTORE PUSH1 0x64 SWAP1 REVERT JUMPDEST PUSH1 0x40 MLOAD PUSH3 0x461BCD PUSH1 0xE5 SHL DUP2 MSTORE PUSH1 0x20 PUSH1 0x4 DUP3 ADD MSTORE PUSH1 0x9 PUSH1 0x24 DUP3 ADD MSTORE PUSH9 0x2737BA1037BBB732B9 PUSH1 0xB9 SHL PUSH1 0x44 DUP3 ADD MSTORE PUSH1 0x64 SWAP1 REVERT JUMPDEST PUSH2 0xA14 SWAP2 POP PUSH1 0x20 RETURNDATASIZE PUSH1 0x20 GT PUSH2 0x966 JUMPI PUSH2 0x958 DUP2 DUP4 PUSH2 0xAD4 JUMP JUMPDEST DUP5 PUSH2 0x783 JUMP JUMPDEST CALLVALUE PUSH2 0x44F JUMPI PUSH0 CALLDATASIZE PUSH1 0x3 NOT ADD SLT PUSH2 0x44F JUMPI PUSH1 0x40 MLOAD PUSH32 0x0 PUSH1 0x1 PUSH1 0x1 PUSH1 0xA0 SHL SUB AND DUP2 MSTORE PUSH1 0x20 SWAP1 RETURN JUMPDEST CALLVALUE PUSH2 0x44F JUMPI PUSH0 CALLDATASIZE PUSH1 0x3 NOT ADD SLT PUSH2 0x44F JUMPI PUSH1 0x20 PUSH2 0xFFFF PUSH1 0x1 SLOAD PUSH1 0xA0 SHR AND PUSH1 0x40 MLOAD SWAP1 DUP2 MSTORE RETURN JUMPDEST CALLVALUE PUSH2 0x44F JUMPI PUSH1 0x20 CALLDATASIZE PUSH1 0x3 NOT ADD SLT PUSH2 0x44F JUMPI PUSH1 0x4 CALLDATALOAD PUSH2 0xFFFF DUP2 AND DUP1 DUP3 SUB PUSH2 0x44F JUMPI PUSH2 0x3E8 SWAP1 PUSH2 0xAAE PUSH2 0xB66 JUMP JUMPDEST GT PUSH2 0x44F JUMPI PUSH1 0x1 DUP1 SLOAD PUSH2 0xFFFF PUSH1 0xA0 SHL NOT AND PUSH1 0xA0 SWAP3 SWAP1 SWAP3 SHL PUSH2 0xFFFF PUSH1 0xA0 SHL AND SWAP2 SWAP1 SWAP2 OR SWAP1 SSTORE STOP JUMPDEST SWAP1 PUSH1 0x1F DUP1 NOT SWAP2 ADD AND DUP2 ADD SWAP1 DUP2 LT PUSH8 0xFFFFFFFFFFFFFFFF DUP3 GT OR PUSH2 0x89B JUMPI PUSH1 0x40 MSTORE JUMP JUMPDEST SWAP1 DUP2 PUSH1 0x20 SWAP2 SUB SLT PUSH2 0x44F JUMPI MLOAD PUSH1 0x1 PUSH1 0x1 PUSH1 0xA0 SHL SUB DUP2 AND DUP2 SUB PUSH2 0x44F JUMPI SWAP1 JUMP JUMPDEST SWAP1 DUP2 PUSH1 0x20 SWAP2 SUB SLT PUSH2 0x44F JUMPI MLOAD DUP1 ISZERO ISZERO DUP2 SUB PUSH2 0x44F JUMPI SWAP1 JUMP JUMPDEST ISZERO PUSH2 0xB34 JUMPI JUMP JUMPDEST PUSH1 0x40 MLOAD PUSH3 0x461BCD PUSH1 0xE5 SHL DUP2 MSTORE PUSH1 0x20 PUSH1 0x4 DUP3 ADD MSTORE PUSH1 0xA PUSH1 0x24 DUP3 ADD MSTORE PUSH10 0x4E6F7420616374697665 PUSH1 0xB0 SHL PUSH1 0x44 DUP3 ADD MSTORE PUSH1 0x64 SWAP1 REVERT JUMPDEST PUSH0 SLOAD PUSH1 0x1 PUSH1 0x1 PUSH1 0xA0 SHL SUB AND CALLER SUB PUSH2 0xB79 JUMPI JUMP JUMPDEST PUSH4 0x118CDAA7 PUSH1 0xE0 SHL PUSH0 MSTORE CALLER PUSH1 0x4 MSTORE PUSH1 0x24 PUSH0 REVERT INVALID LOG2 PUSH5 0x6970667358 0x22 SLT KECCAK256 0xE3 0xD4 PUSH23 0x9CE5D963917D9C0E6FA99500E5A07B982DF07748807A1B PUSH31 0x57221C87EA64736F6C634300081C0033000000000000000000000000000000 "},"methodIdentifiers":{"arenaCoin()":"48f7d5ab","buy(uint256)":"d96a094a","delist(uint256)":"964bc33f","feeBps()":"24a9d853","fighterNFT()":"fa818cf6","list(uint256,uint256)":"50fd7367","listings(uint256)":"de74e57b","owner()":"8da5cb5b","renounceOwnership()":"715018a6","setFeeBps(uint16)":"023b1fc9","setTreasury(address)":"f0f44260","transferOwnership(address)":"f2fde38b","treasury()":"61d027b3"}}}}}